:100000005BEF03F054656E733D256620562020207B
:1000100020200000EA6A220EE96EEF500EE00F0E7B
:10002000016E006A002EFED7012EFBD78F0E006EE8
:10003000002EFED70000EF2EF2D71200080E016E40
:10004000110E006E002EFED78C9E959E110E006E36
:10005000002EFED726368C9CD8B0958CD8A0959CC7
:10006000958E83AEFED7012EEBD7110E006E002EBB
:10007000FED78C9E959E0000958C110E006E002E72
:10008000FED7110E006E002EFED7958E83AEFED7E2
:10009000016A110E006E002EFED783BC01808C9E7B
:1000A000959E8C9C959C1200958C110E006E002ED6
:1000B000FED7958E110E006E002EFED78C9C959C5F
:1000C000110E006E002EFED78C9E959E4F0E006E78
:1000D000002EFED700D04E0E266EB0DF4F0E006E03
:1000E000002EFED700D025C026F0A8DF4F0E006EF0
:1000F000002EFED700D0959C0000958E83AEFED7D3
:10010000110E006E002EFED700D00000958C110E4F
:10011000006E002EFED74F0E006E002EFED700D0D0
:1001200012000BA005D0245004090809246E01D048
:10013000248424C025F0B8DF040E245E24C025F0FA
:10014000B3DF1200246AEDDF100E246EEADF020E28
:10015000226E60DF1200C80E226E5CDF246AE1DFCF
:10016000100E246EDEDF246ADCDF246ADADF100E74
:10017000246ED7DF300E246ED4DF300E246ED1DF34
:10018000300E246ECEDF200E246ECBDF200E246EC8
:10019000C8DF800E246EC5DF246AC3DFC00E246E64
:1001A000C0DF246ABEDF600E246EBBDFCBDF6EEFE4
:1001B00003F0146A136A92928992030E006E002E65
:1001C000FED700D092948994030E006E002EFED7C5
:1001D00000D092948984030E006E002EFED700D0CA
:1001E000176A17500E0818E3928680B602D0D8908E
:1001F00001D0D8801336143692948994030E006E81
:10020000002EFED700D092948984030E006E002E3B
:10021000FED700D0172AE5D792928982156A14502A
:10022000080B166E15520DE1165008080AE113C0AE
:1002300000F01450F70B036E13C013F0F80E0324F4
:10024000146E13C001F014C002F06FEF03F08E0EB5
:10025000006E14C001F013C002F0036A14AE05D0A2
:10026000011E021E022A01E1012A015209E102C017
:1002700001F0026A080E005E015202E1006A0AD033
:10028000D89001BE04D0023601360006F9D714BE5C
:1002900001D0019E78EF03F02350010A07E0030A22
:1002A00008E0010A09E0070A0AE00CD0800E0A6E95
:1002B0000BD0C00E0A6E08D0940E0A6E05D0D40E74
:1002C0000A6E02D0800E0A6E010E225C0A260A50C7
:1002D000F00B0C6E0CC024F024DF0A500F0B0C6ED8
:1002E0000C3AF00E0C160CC024F01BDF120020504C
:1002F0000C0A09E00D0A09E0030A0CE0010A10E00B
:10030000070A14E019D01EDF28D0010E226E236EDA
:10031000C3DF23D0010E226E020E236EBDDF1DD07F
:10032000010E226E030E236EB7DF17D0010E226E70
:10033000040E236EB1DF11D02050F00B216E21800E
:1003400021C024F0EEDE20500F0B216E213AF00E7A
:100350002116218021C024F0E4DE12000900F6CF2E
:1003600014F0F7CF15F0F5CF20F0C1DF14C0F6FF81
:1003700015C0F7FF132EF2D712002050D8B471D059
:10038000006E2450D8B46DD0002604E3810E002600
:1003900068E204D07F0E005E64E363E021C028F0D1
:1003A0002550281A218E258E23502702F4CF2AF0BB
:1003B00022502602F4CF03F0F3CF29F02702F350A6
:1003C0002A26F4502922000E032223502602F3503D
:1003D0002A26F4502922000E026A0322022221500A
:1003E0002702F3502926F4500322000E0222215046
:1003F0002602F3500326F4500222000E016A012265
:1004000023502502F3502926F4500322000E022225
:10041000012222502502F3500326F4500222000E3E
:10042000012221502502F3500226F4500122002A15
:1004300001BE05D029360336023601360006000E0D
:1004400029AE0AD0032A02220122015005E10250FE
:1004500003E1035001E1002A28BE018E28AE019E6F
:1004600004D0006A016A026A036AB2EF02F0205007
:10047000B608206E036A21C024F0218ED890213264
:10048000223223320332023201320032202EF6D7DA
:1004900024AE0BD0001E011E021E031E002AD8B47B
:1004A000012AD8B4022AD8B4032AC5EF02F0D8B280
:1004B00003D0EA6A280EE96E006A016A026A036ADA
:1004C000286A296A2A6A2B6A2750261025102410C8
:1004D0002CE0200E2C6ED890203621362236233682
:1004E000283629362A362B3627502B5C08E1265031
:1004F0002A5C05E12550295C02E12450285C0FE3C9
:100500002450285E2550D8A0253C295E2650D8A02E
:10051000263C2A5E2750D8A0273C2B5ED880003688
:100520000136023603362C2ED6D728C0EFFF29C05D
:10053000ECFF2AC0ECFF2BC0ECFF1200E950186E54
:1005400017501A6E19E016C023F015C022F014C01F
:1005500021F013C020F0276A266A200E256E820E35
:10056000246E0BD703C016F002C015F001C014F0C2
:1005700000C013F01A2EE7D716C023F015C022F0E2
:1005800014C021F013C020F072D703C016F002C0CF
:1005900015F001C014F000C013F016AE0DD018060F
:1005A000188A131E141E151E161E132AD8B4142AD8
:1005B000D8B4152AD8B4162A3B0E1F6E9A0E1E6E9A
:1005C000CA0E1D6E1C6A0A0E1A6E1750D8B4182A6D
:1005D000D882EA6A130EE96E16C023F015C022F025
:1005E00014C021F013C020F01FC027F01EC026F059
:1005F0001DC025F01CC024F05ADF015000520FE14D
:1006000017281A5C0CE018500CE00F0B1A5C01E084
:1006100037E218BE35D018BC04D0200E2DD0200EE5
:10062000181618AA0CD0189A1750D8A418060050FB
:10063000186E2D0E206E5BDE1850006E186A175073
:100640001A5C0AE10050186E2E0E206E50DE185013
:10065000006E200E1816000E300E18AA0DD0189A33
:100660001750D8A418060050186E2D0E206E3FDECD
:100670001850006E186A300E002600C020F037DED9
:10068000D8921FC023F01EC022F01DC021F01CC054
:1006900020F0276A266A256A0A0E246E08DF03C046
:1006A0001FF002C01EF001C01DF000C01CF01A2E89
:1006B0008FD798EF03F0F86AD09E0B80C150C00B23
:1006C0000F09C16E070EB46E046A056A0C6AE80E63
:1006D000926EFF0E926E899489803DD56AD502C0D4
:1006E0000EF001C00DF00EC014F00DC013F0AFD528
:1006F00003C012F002C011F001C010F000C00FF0F2
:10070000010E226E236EC8DD040EF66E000EF76E2B
:10071000050E136E23DE890EE96E12C016F011C0AD
:1007200015F010C014F00FC013F0020E176E06D7AC
:100730000B0EF66E000EF76E070E136E0FDE960EA2
:08074000226E68DCCBD7FFD765
:020000040030CA
:0E00000007CC391E008700000FC00FE00F4034
:00000001FF
;PIC18F4550
;CRC=43A3  CREATED="02-nov-16 12:05"
