:1000000012EF03F056616C6F723D256620202020B0
:1000100020200000146A136889920D0E006E002ED5
:10002000FED78994176A17500F0810E38984020ECF
:10003000006E002EFED7000080B602D0D89001D00E
:10004000D880133614368994172AEDD7898489828B
:10005000156A1450080B166E15520DE1165008085B
:100060000AE113C000F01450F70B036E13C013F035
:10007000F80E0324146E13C001F014C002F029EF2F
:1000800003F08E0E006E14C001F013C002F0036A7C
:1000900014AE05D0011E021E022A01E1012A0152FE
:1000A00009E102C001F0026A080E005E015202E19D
:1000B000006A0AD0D89001BE04D00236013600068C
:1000C000F9D714BE01D0019E32EF03F0080E016E85
:1000D0000A0E006E002EFED78C9E959E0B0E006EB3
:1000E000002EFED726368C9CD8B0958CD8A0959C37
:1000F000958E83AEFED7012EEBD70A0E006E002E32
:10010000FED78C9E959E0000958C0B0E006E002EE7
:10011000FED70B0E006E002EFED7958E83AEFED757
:10012000016A0B0E006E002EFED783BC01808C9EF0
:10013000959E8C9C959C1200958C0A0E006E002E4C
:10014000FED7958E0B0E006E002EFED78C9C959CD4
:100150000A0E006E002EFED78C9E959E350E006E08
:10016000002EFED74E0E266EB1DF350E006E002E2D
:10017000FED725C026F0AADF350E006E002EFED772
:10018000959C0000958E83AEFED70A0E006E002E61
:10019000FED700D00000958C0A0E006E002EFED710
:1001A000350E006E002EFED712000BA005D0245095
:1001B00004090809246E01D0248424C025F0BCDF82
:1001C000040E245E24C025F0B7DF12002350010A7C
:1001D00007E0030A08E0010A09E0070A0AE00CD078
:1001E000800E0A6E0BD0C00E0A6E08D0940E0A6EF6
:1001F00005D0D40E0A6E02D0800E0A6E010E225C6B
:100200000A260A50F00B0C6E0CC024F0CEDF0A5008
:100210000F0B0C6E0C3AF00E0C160CC024F0C5DF60
:100220001200EA6A220EE96EEF500DE00A0E016E2E
:10023000006A002EFED7012EFBD75F0E006E002E47
:10024000FED7EF2EF3D71200246AAFDF100E246E14
:10025000ACDF020E226EE5DF64EF01F020500C0AE5
:1002600009E00D0A09E0030A0CE0010A10E0070AA0
:1002700014E019D0E9D728D0010E226E236EA6DF34
:1002800023D0010E226E020E236EA0DF1DD0010EC0
:10029000226E030E236E9ADF17D0010E226E040E1B
:1002A000236E94DF11D02050F00B216E218021C0ED
:1002B00024F07BDF20500F0B216E213AF00E211627
:1002C000218021C024F071DF12000900F6CF14F064
:1002D000F7CF15F0F5CF20F0C1DF14C0F6FF15C041
:1002E000F7FF132EF2D712002050D8B471D0006E51
:1002F0002450D8B46DD0002604E3810E002668E2B5
:1003000004D07F0E005E64E363E021C028F0255036
:10031000281A218E258E23502702F4CF2AF022504E
:100320002602F4CF03F0F3CF29F02702F3502A2658
:10033000F4502922000E032223502602F3502A26CD
:10034000F4502922000E026A0322022221502702C1
:10035000F3502926F4500322000E022221502602D7
:10036000F3500326F4500222000E016A01222350AA
:100370002502F3502926F4500322000E0222012206
:1003800022502502F3500326F4500222000E0122CF
:1003900021502502F3500226F4500122002A01BE0A
:1003A00005D029360336023601360006000E29AE86
:1003B0000AD0032A02220122015005E1025003E182
:1003C000035001E1002A28BE018E28AE019E04D010
:1003D000006A016A026A036A69EF02F02050B608F7
:1003E000206E036A21C024F0218ED890213222325F
:1003F00023320332023201320032202EF6D724AEED
:100400000BD0001E011E021E031E002AD8B4012AB2
:10041000D8B4022AD8B4032A7CEF02F0D8B203D0B1
:10042000EA6A280EE96E006A016A026A036A286AAB
:10043000296A2A6A2B6A27502610251024102CE0DE
:10044000200E2C6ED89020362136223623362836C0
:1004500029362A362B3627502B5C08E126502A5C99
:1004600005E12550295C02E12450285C0FE324506B
:10047000285E2550D8A0253C295E2650D8A0263CD1
:100480002A5E2750D8A0273C2B5ED8800036013644
:10049000023603362C2ED6D728C0EFFF29C0ECFF3A
:1004A0002AC0ECFF2BC0ECFF1200E950186E175069
:1004B0001A6E19E016C023F015C022F014C021F006
:1004C00013C020F0276A266A200E256E820E246E45
:1004D0000BD703C016F002C015F001C014F000C025
:1004E00013F01A2EE7D716C023F015C022F014C05F
:1004F00021F013C020F072D703C016F002C015F02F
:1005000001C014F000C013F016AE0DD01806188A02
:10051000131E141E151E161E132AD8B4142AD8B47E
:10052000152AD8B4162A3B0E1F6E9A0E1E6ECA0EDE
:100530001D6E1C6A0A0E1A6E1750D8B4182AD8827B
:10054000EA6A130EE96E16C023F015C022F014C03B
:1005500021F013C020F01FC027F01EC026F01DC0E0
:1005600025F01CC024F05ADF015000520FE117287B
:100570001A5C0CE018500CE00F0B1A5C01E037E23B
:1005800018BE35D018BC04D0200E2DD0200E181661
:1005900018AA0CD0189A1750D8A418060050186E34
:1005A0002D0E206E5BDE1850006E186A17501A5C14
:1005B0000AE10050186E2E0E206E50DE1850006EAC
:1005C000200E1816000E300E18AA0DD0189A1750CB
:1005D000D8A418060050186E2D0E206E3FDE18505D
:1005E000006E186A300E002600C020F037DED89268
:1005F0001FC023F01EC022F01DC021F01CC020F03F
:10060000276A266A256A0A0E246E08DF03C01FF0D7
:1006100002C01EF001C01DF000C01CF01A2E8FD7C2
:1006200052EF03F0F86AD09E0B800E6A0D6A126AD0
:10063000116A106A0F6AC150C00B0F09C16E070E14
:10064000B46E046A056A0C6AF80E926E8984898217
:10065000E1D402C00EF001C00DF00EC014F00DC0C8
:1006600013F00FD503C012F002C011F001C010F05A
:1006700000C00FF0010E226E236EA8DD040EF66E90
:10068000000EF76E060E136E20DE890EE96E12C0A4
:1006900016F011C015F010C014F00FC013F0020EC8
:1006A000176E03D70C0EF66E000EF76E060E136E65
:1006B0000CDE040E136EC80E226EB3DD132EFBD7B4
:0406C000C7D7030095
:020000040030CA
:0E000000074C3E1E0087A1000FC00FE00F400E
:00000001FF
;PIC18F4550
;CRC=4400  CREATED="27-oct-16 00:14"
