:040000005BEF0BF0B7
:08000800046ED8CF05F0E0CF33
:1000100006F00001E9CF0CF0EACF07F0E1CF08F0DD
:10002000E2CF09F0D9CF0AF0DACF0BF0F3CF12F01C
:10003000F4CF13F0FACF14F0F5CF15F0F6CF16F099
:10004000F7CF17F000C00EF001C00FF002C010F0A3
:1000500003C011F0F2AA30EF00F0F2B45EEF00F04E
:100060000EC000F00FC001F010C002F011C003F08C
:100070000CC0E9FF07C0EAFF078E08C0E1FF09C016
:10008000E2FF0AC0D9FF0BC0DAFF12C0F3FF13C0B2
:10009000F4FF14C0FAFF15C0F5FF16C0F6FF17C035
:1000A000F7FF045006C0E0FF05C0D8FF10005072F3
:1000B000696D65722070727565626100F40ED76EAD
:1000C000850ED66E252AF29430EF00F05365206D30
:1000D0006964696F20646573666173650000506FC1
:1000E00074656E6369613D20256620570000543DAC
:1000F000256620562020493D256620410000EA6AF9
:100100005E0EE96EEF500EE0030E016E006A002EE7
:10011000FED7012EFBD7E30E006E002EFED70000A7
:10012000EF2EF2D71200080E016E020E006E002EA6
:10013000FED78C9E959E020E006E002EFED7623773
:100140008C9CD8B0958CD8A0959C958E83AEFED70C
:10015000012EEBD7020E006E002EFED78C9E959ED0
:100160000000958C020E006E002EFED7020E006E6F
:10017000002EFED7958E83AEFED7016A020E006E6A
:10018000002EFED783BC01808C9E959E8C9C959CF6
:100190001200958C020E006E002EFED7958E020E78
:1001A000006E002EFED78C9C959C020E006E002ED9
:1001B000FED78C9E959E130E006E002EFED700D0AB
:1001C0004E0E626FB0DF130E006E002EFED700D011
:1001D00061C062F0A8DF130E006E002EFED700D0C3
:1001E000959C0000958E83AEFED7020E006E002E09
:1001F000FED700D00000958C020E006E002EFED7B8
:10020000130E006E002EFED700D0120020A005D0E5
:10021000605104090809606F01D0608560C061F019
:10022000B8DF040E605F60C061F0B3DF1200606B86
:10023000EDDF100E606FEADF020E5E6E60DF12000F
:10024000C80E5E6E5CDF606BE1DF100E606FDEDF9C
:10025000606BDCDF606BDADF100E606FD7DF300EB3
:10026000606FD4DF300E606FD1DF300E606FCEDF95
:10027000200E606FCBDF200E606FC8DF800E606FD6
:10028000C5DF606BC3DFC00E606FC0DF606BBEDFB9
:10029000600E606FBBDFCBDFD2EF01F05F50010A71
:1002A00007E0030A08E0010A09E0070A0AE00CD0A7
:1002B000800E1F6E0BD0C00E1F6E08D0940E1F6EE6
:1002C00005D0D40E1F6E02D0800E1F6E010E5E5C34
:1002D0001F261F50F00B266E26C060F097DF1F50C0
:1002E0000F0B266E263AF00E261626C060F08EDF23
:1002F00012005D500C0A09E00D0A09E0030A0CE047
:10030000010A10E0070A14E019D091DF28D0010E8D
:100310005E6E5F6EC3DF23D0010E5E6E020E5F6EF7
:10032000BDDF1DD0010E5E6E030E5F6EB7DF17D00E
:10033000010E5E6E040E5F6EB1DF11D05D50F00BEA
:100340005E6E5E805EC060F061DF5D500F0B5E6EC2
:100350005E3AF00E5E165E805EC060F057DF1200FF
:100360000900F5520CE0F6CF4FF0F7CF50F0F5CF83
:100370005DF0BFDF4FC0F6FF50C0F7FFF1D7DBEFF6
:1003800001F0C150C00B0E09C16EC050C00B050971
:10039000C06EC09EC280800ED56EF90E926E010EA8
:1003A000226E4ED7010E5E6E5F6E78DFAE0EF66E79
:1003B000000EF76ED5D72080F28AC00EF212898027
:1003C000898275EF0BF0506A4F6A9292899200D041
:1003D00000009294899400D000009294898400D007
:1003E0000000536A53500E0812E3928680B602D082
:1003F000D89001D0D8804F3650369294899400D04E
:1004000000009294898400D00000532AEBD7929286
:100410008982516A5050080B526E51520DE1525070
:1004200008080AE14FC000F05050F70B036E4FC0B0
:100430004FF0F80E0324506E4FC001F050C002F090
:10044000CAEF08F08E0E516E92908990929889981A
:1004500000D00000526A5250070811E3D89051367C
:1004600002E2899801D0898892989294898400D078
:1004700000009294899400D00000522AECD7929008
:100480008980929089909294898400D000009294FF
:10049000899400D00000526A52500E0812E39294E0
:1004A000898400D00000928680B602D0D89001D016
:1004B000D8804F3650369294899400D00000522A4A
:1004C000EBD7929089805030546E4F30536E543237
:1004D0005332543253321F0E541653C04FF05450FF
:1004E0000F0B506E4FC001F050C002F0D0EF08F07B
:1004F0008E0E006E82C001F081C002F0036A0152CC
:1005000009E102C001F0026A080E005E015202E138
:10051000006A08D0D89001BE04D002360136000629
:10052000F9D7019E12006151D8B4A5D06D6F655105
:10053000D8B4A1D06D5F05E37F0E6D27D8B09BD0F6
:1005400006D0810E6D5FD8A096D0D8B494D06DC07F
:1005500000F0016A026A036A6C6B62C06BF06B8F19
:1005600063C06AF064C069F0190E6D6F6851695F0D
:100570000DE2010E6A5F0AE26B5F08E26C5F06E261
:100580006C2B6B2B6A2B6851692728D067516A5FE7
:1005900012E2010E6B5F0FE26C5F0DE26C2B6B2BB6
:1005A00067516A276851692719E36A2B17E16B2B9A
:1005B00015E16C2B13D0665180096B5F0EE2010EC2
:1005C0006C5F0BE26C2B665180096B2767516A27C1
:1005D000E9E36B2BE7E16C2BE5D703806D2F01D0AE
:1005E0000BD0D89069376A376B376C37D8900336A1
:1005F000023601366E37BAD76EA106D0D8900132D6
:10060000023203326E3302D0000635E06EBF1ED0D8
:10061000D89069376A376B376C376851695F07E282
:10062000010E6A5F04E26B5F02E26C5F1AE36751DE
:100630006A5F05E2010E6B5F02E26C5F12E36651D6
:1006400080096B5F03E2010E6C5F0BE3032A09E193
:10065000022A07E1012A05E1002A0DE001320232F7
:10066000033262C06DF066516D1B6DAF02D0018E1A
:1006700006D0019E04D0006A016A026A036A120071
:10068000800ED8B2861B8B6B8C6B82C08AF0865131
:100690008A1B8151D8B4DCD0896F006E8551D8B4E3
:1006A000E0D0895FD8B481D03DE386C08FF08F8FD2
:1006B00087C08EF088C08DF08C6BD8908F338E33CE
:1006C0008D338C33892FF8D78AAF03D08B81DDD05F
:1006D0008B9189918B89EA6A840EE96EE9D08B99B6
:1006E0008ABF0AD089A113D08F338E338D338C33D8
:1006F000002AD8B4C5D00BD08FBF0CD0D8908C377F
:100700008D378E378F370006D8B4BAD0F5D78B8D9A
:100710006BD08B9D82C08AF082AF02D08F8FA9D020
:100720008F9FA7D085C089F085C000F08151895F77
:1007300082C08FF08F8F83C08EF084C08DF08C6B61
:10074000D8908F338E338D338C33892FF8D78AAF7F
:1007500003D08B839AD08B9389918B8BEA6A880E16
:10076000E96EA6D08B9B8ABF0AD089A113D08F33A4
:100770008E338D338C33002AD8B482D00BD08FBF08
:100780000CD0D8908C378D378E378F370006D8B481
:1007900077D0F5D78B8F28D08B9F86C08AF086AF15
:1007A00002D08F8F66D08F9F64D086C08FF08F8FDE
:1007B00087C08EF088C08DF08AAF04D08F9F8B8564
:1007C00064D08B958C6B8991EA6A840EE96E70D047
:1007D0008ABF1CD082C08AF089A106D08F338E33A5
:1007E0008D338C33002A4CE08CAF0BD08D2B09E17C
:1007F0008E2B07E18F2B05E18F338E338D33002A4B
:100800003FE08BBD86D78BBFC7D71CD0800E8F1B18
:100810008FAF04D03AD086C08AF00AD082C08AF066
:100820008F5306E18E5304E18D5302E1006A21D01B
:100830008FBF08D0D8908C378D378E378F37002EEA
:10084000F7D71ED08AAF02D08F8F13D08F9F11D0D1
:1008500085C000F086C08FF087C08EF088C08DF014
:1008600008D081C000F082C08FF083C08EF084C0B9
:100870008DF08FC001F08EC002F08DC003F034D037
:10088000006A016A026A036A2FD08C6B8D1F8E1F6B
:100890008F1F8C1F8C2B05E18D2B03E18E2B01E12B
:1008A0008F2B8BB115D78BB356D78BB58AD7B3D7D0
:1008B000EF508D2705E38E2B03E18F2BD8B4898170
:1008C000ED52EF508E2703E38F2BD8B48981ED5280
:1008D000EF50EFBE01D0800A8F27D8B089818BB945
:1008E000FED68BBB3FD774D712008151D8B471D0DC
:1008F000006E8551D8B46DD0002604E3810E002629
:1009000068E204D07F0E005E64E363E082C089F099
:100910008651891B828F868F84518803F4CF8BF098
:1009200083518703F4CF03F0F3CF8AF08803F350A9
:100930008B27F4508A23000E032284518703F3503F
:100940008B27F4508A23000E026A0322022282516E
:100950008803F3508A27F4500322000E02228251AA
:100960008703F3500326F4500222000E016A01228D
:1009700084518603F3508A27F4500322000E02228A
:10098000012283518603F3500326F4500222000E05
:10099000012282518603F3500226F4500122002ADC
:1009A00001BE05D08A370336023601360006000E36
:1009B0008AAF0AD0032A02220122015005E1025027
:1009C00003E1035001E1002A89BF018E89AF019E36
:1009D00004D0006A016A026A036A12007EC085F0D0
:1009E0008251851B85AF05D0D894D8907EBFD88022
:1009F0002FD07EC085F081C086F07D51865F06E0F5
:100A000085AF26D0D850010AD86E22D082C086F099
:100A10007E51865F06E085AF1BD0D850010AD86EA4
:100A200017D083C086F07F51865F06E085AF10D077
:100A3000D850010AD86E0CD084C086F08051865FF1
:100A400006E085AF05D0D850010AD86E01D0D89005
:100A5000120056C080F055C07FF054C07EF053C0E5
:100A60007DF0846B836B826B816BB8DF01E205E103
:100A7000006A016A026A036A70D056C05AF055C013
:100A800059F054C058F053C057F0606B570E5F6E6A
:100A90005FC0E9FF60C0EAFFEF50646B636F7F0ED9
:100AA0006327000E6423D8906431633160C0EAFF8D
:100AB0005FC0E9FFEF6E5AC05EF059C05DF058C0EC
:100AC0005CF057C05BF056C064F055C063F054C092
:100AD00062F053C061F05AC068F059C067F058C066
:100AE00066F057C065F01FDDD8925AC084F059C037
:100AF00083F058C082F057C081F003C088F002C074
:100B000087F001C086F000C085F0BADD03C05AF05E
:100B100002C059F001C058F000C057F05FC0E9FFB3
:100B200060C0EAFFEF065EC080F05DC07FF05CC091
:100B30007EF05BC07DF05AC084F059C083F058C08D
:100B400082F057C081F04ADFB6E15BC000F05CC0C4
:100B500001F05DC002F05EC003F012000900F55222
:100B60000DE0F6CF4FF0F7CF50F0F5CF5DF079EC18
:100B700001F04FC0F6FF50C0F7FFF0D7A1EF0AF029
:100B80008E0E006E7D51005E7EC002F07FC001F0CF
:100B9000028E005209E0D890025202E1015204E0B4
:100BA00002320132002EF7D77EAF05D0011E021EA1
:100BB000012AD8B4022A33EF06F0626B616B606BD6
:100BC0007F0E5F6E7E0E696F800E6A6F6B6B6C6B53
:100BD0007A0E6D6F2A0E6E6FAA0E6F6FA30E706F76
:100BE000750E716FB60E726F090E736FB40E746F5F
:100BF0006F0E756F4F0E766FB60E776FAA0E786F09
:100C0000690E796F8B0E7A6FF60E7B6FE80E7C6F34
:100C100056C080F055C07FF054C07EF053C07DF0C8
:100C2000846B836B826B816BD9DE03E35450800A43
:100C3000546E56C084F055C083F054C082F053C047
:100C400081F0830E886FF90E876F220E866F7E0EFD
:100C5000856F4BDE03C080F002C07FF001C07EF0E4
:100C600000C07DF08DD701C063F056C084F055C040
:100C700083F054C082F053C081F0830E886FF90E68
:100C8000876F220E866F7E0E856F2FDE03C080F089
:100C900002C07FF001C07EF000C07DF0826B63C0B7
:100CA00081F026DCD88280C084F07FC083F07EC0D3
:100CB00082F07DC081F003C088F002C087F001C0DF
:100CC00086F000C085F0DCDC03C068F002C067F08D
:100CD00001C066F000C065F0030E6317635303E0C4
:100CE000635102081AE168C084F067C083F066C0EF
:100CF00082F065C081F0DB0E886F0F0E876F490EA2
:100D0000866F7F0E856FF1DD03C05EF002C05DF07F
:100D100001C05CF000C05BF063D0632D31D0D8829D
:100D2000846B836B826B7F0E816F68C088F067C0B5
:100D300087F066C086F065C085F0A2DC03C080F055
:100D400002C07FF001C07EF000C07DF003C084F0DF
:100D500002C083F001C082F000C081F0DB0E886F1A
:100D60000F0E876F490E866F7F0E856FBEDD03C045
:100D70005EF002C05DF001C05CF000C05BF030D0FE
:100D8000D88268C084F067C083F066C082F065C016
:100D900081F0886B876B866B7F0E856F71DC03C07B
:100DA00080F002C07FF001C07EF000C07DF003C083
:100DB00084F002C083F001C082F000C081F0DB0E3D
:100DC000886F0F0E876F490E866F7F0E856F8DDDE2
:100DD00003C05EF002C05DF001C05CF000C05BF0DB
:100DE0005A6A596A586A7F0E576E5EC084F05DC0B9
:100DF00083F05CC082F05BC081F05EC088F05DC0B3
:100E000087F05CC086F05BC085F06FDD03C05EF0EC
:100E100002C05DF001C05CF000C05BF0646B645127
:100E2000040858E362C084F061C083F060C082F0BF
:100E30005FC081F05EC088F05DC087F05CC086F066
:100E40005BC085F052DD03C062F002C061F001C0FA
:100E500060F000C05FF06451040DF350036A690F45
:100E6000E96E000E0320EA6EEFCF81F0ECCF82F046
:100E7000ECCF83F0ECCF84F062C088F061C087F0E3
:100E800060C086F05FC085F030DDEACF7EF0E9CF4C
:100E90007DF0D8925AC084F059C083F058C082F0D7
:100EA00057C081F003C088F002C087F001C086F00F
:100EB00000C085F040EC03F07EC0EAFF7DC0E9FF92
:100EC00003C05AF002C059F001C058F000C057F0FA
:100ED000642BA5D76351020802E0632D03D058505C
:100EE000800A586E57C000F058C001F059C002F097
:100EF0005AC003F0CDEF0AF00900F6CF50F0F7CF5B
:100F000051F0F5CF5DF079EC01F050C0F6FF51C023
:100F1000F7FF4F2EF1D712005C50B6085C6E036AE3
:100F20005DC060F05D8ED8905D325E325F3203321C
:100F30000232013200325C2EF6D760AF0BD0001EB9
:100F4000011E021E031E002AD8B4012AD8B4022AA8
:100F5000D8B4032A1AEF08F0D8B203D0EA6A640EB4
:100F6000E96E006A016A026A036A646B656B666B0C
:100F7000676B63516211611160112CE0200E686F84
:100F8000D8905C365D365E365F36643765376637D7
:100F900067376351675D08E16251665D05E1615144
:100FA000655D02E16051645D0FE36051645F615112
:100FB000D8A0613D655F6251D8A0623D665F635114
:100FC000D8A0633D675FD88000360136023603360D
:100FD000682FD6D764C0EFFF65C0ECFF66C0ECFF9A
:100FE00067C0ECFF1200E950546E5350566E19E082
:100FF00052C084F051C083F050C082F04FC081F0E5
:10100000886B876B200E866F820E856F6EDC03C047
:1010100052F002C051F001C050F000C04FF0562E07
:10102000E7D752C05FF051C05EF050C05DF04FC0D6
:101030005CF072D703C052F002C051F001C050F012
:1010400000C04FF052AE0DD05406548A4F1E501EB1
:10105000511E521E4F2AD8B4502AD8B4512AD8B49F
:10106000522A3B0E5B6E9A0E5A6ECA0E596E586A21
:101070000A0E566E5350D8B4542AD882EA6A4F0EDC
:10108000E96E52C05FF051C05EF050C05DF04FC0DD
:101090005CF05BC063F05AC062F059C061F058C0A8
:1010A00060F05ADF015000520FE15328565C0CE00B
:1010B00054500CE00F0B565C01E03BE254BE39D0BB
:1010C00054BC04D0200E30D0200E541654AA0DD09B
:1010D000549A5350D8A454060050546E2D0E5D6E91
:1010E00079EC01F05450006E546A5350565C0BE199
:1010F0000050546E2E0E5D6E79EC01F05450006E6F
:10110000200E5416000E300E54AA0ED0549A53508E
:10111000D8A454060050546E2D0E5D6E79EC01F08B
:101120005450006E546A300E002600C05DF079EC19
:1011300001F0D8925BC05FF05AC05EF059C05DF01C
:1011400058C05CF0636B626B616B0A0E606F04DF0A
:1011500003C05BF002C05AF001C059F000C058F063
:10116000562E8BD712004E50000A0CE0010A3CE0CC
:10117000030AD8B4D9D0010AD8B441D1070AD8B4E7
:1011800030D296D2000E016EC250C30B0110C26E57
:10119000E3EF01F002C028F001C027F022EF02F0D7
:1011A00002C02AF001C029F028C082F027C081F0D7
:1011B00078EC02F003C035F002C034F001C033F027
:1011C00000C032F02AC082F029C081F078EC02F031
:1011D00003C039F002C038F001C037F000C036F06B
:1011E000222A010E4E6E65D235C064F034C063F021
:1011F00033C062F032C061F0686B676B7A0E666F65
:10120000880E656F93EC02F003C052F002C051F0FB
:1012100001C050F000C04FF0D88203C084F002C07B
:1012200083F001C082F000C081F05C0E886F8F0EE9
:10123000876F220E866F800E856F40EC03F003C02F
:1012400035F002C034F001C033F000C032F039C0D4
:1012500084F038C083F037C082F036C081F0886BEC
:10126000876B200E866F810E856F75EC04F003C0CE
:1012700052F002C051F001C050F000C04FF003C066
:1012800064F002C063F001C062F000C061F0686BFE
:10129000676B666B890E656F93EC02F003C052F0CA
:1012A00002C051F001C050F000C04FF0D88203C01E
:1012B00084F002C083F001C082F000C081F0886B2E
:1012C000876B200E866F800E856F40EC03F003C0A5
:1012D00039F002C038F001C037F000C036F02B6A98
:1012E00033BE2B802C6A37BE2C802B2C0AD0225286
:1012F00008E02D5206E12F5204E022C02FF0010E2B
:10130000316E2C2C0AD0225208E02E5206E13052C7
:1013100004E022C030F0020E316E2BC02DF02CC044
:101320002EF0020E4E6EC5D122501D085EE3252C14
:101330005CD035C084F034C083F033C082F032C05A
:1013400081F035C088F034C087F033C086F032C0F9
:1013500085F075EC04F0D8923DC084F03CC083F079
:101360003BC082F03AC081F003C088F002C087F031
:1013700001C086F000C085F040EC03F003C03DF0F2
:1013800002C03CF001C03BF000C03AF039C084F02C
:1013900038C083F037C082F036C081F039C088F0A1
:1013A00038C087F037C086F036C085F075EC04F0A1
:1013B000D89241C084F040C083F03FC082F03EC06C
:1013C00081F003C088F002C087F001C086F000C041
:1013D00085F040EC03F003C041F002C040F001C0D2
:1013E0003FF000C03EF0256A4E6A22501D0806E11B
:1013F000F29CF29EF2BEFDD7030E4E6E5AD13DC056
:1014000064F03CC063F03BC062F03AC061F0686BCE
:10141000676B700E666F830E656F93EC02F003C00E
:1014200052F002C051F001C050F000C04FF003C0B4
:1014300056F002C055F001C054F000C053F029EC42
:1014400005F003C03DF002C03CF001C03BF000C01D
:101450003AF041C064F040C063F03FC062F03EC06B
:1014600061F0686B676B700E666F830E656F93EC4F
:1014700002F003C052F002C051F001C050F000C0B1
:101480004FF003C056F002C055F001C054F000C048
:1014900053F029EC05F003C041F002C040F001C058
:1014A0003FF000C03EF03150020853E12F50305C55
:1014B000826B816F78EC02F003C045F002C044F00B
:1014C00001C043F000C042F045C084F044C083F046
:1014D00043C082F042C081F0DB0E886F0F0E876F31
:1014E000490E866F800E856F75EC04F003C052F0D4
:1014F00002C051F001C050F000C04FF003C064F0D2
:1015000002C063F001C062F000C061F0686B676BFD
:10151000200E666F830E656F93EC02F003C04DF0F2
:1015200002C04CF001C04BF000C04AF0010E5E6EEC
:101530005F6E4EEC01F0CC0EF66E000EF76EAEEF65
:1015400005F0040E4F6EFA0E5E6E7FEC00F04F2E2B
:10155000FAD73DC084F03CC083F03BC082F03AC073
:1015600081F041C088F040C087F03FC086F03EC0A7
:1015700085F075EC04F003C052F002C051F001C0D8
:1015800050F000C04FF04DC056F04CC055F04BC06D
:1015900054F04AC053F0DDEF05F052C084F051C062
:1015A00083F050C082F04FC081F003C088F002C0C9
:1015B00087F001C086F000C085F075EC04F003C030
:1015C00049F002C048F001C047F000C046F02F6A61
:1015D000306A4D6A4C6A4B6A4A6A316A040E4E6E32
:1015E00068D0010E5E6E5F6E4EEC01F0DE0EF66EA0
:1015F000000EF76E0A0E4F6E7FDC890EE96E49C051
:1016000052F048C051F047C050F046C04FF0020EB3
:10161000536EE9DC200E5D6E79EC01F0570E5D6EC5
:1016200079EC01F0010E5E6E020E5F6E4EEC01F081
:10163000540E5D6E79EC01F03D0E5D6E79EC01F0BB
:10164000890EE96E3DC052F03CC051F03BC050F0F5
:101650003AC04FF0020E536EC6DCF20EF66E000E6C
:10166000F76E060E4F6E48DC890EE96E41C052F0EF
:1016700040C051F03FC050F03EC04FF0020E536EDC
:10168000B2DC200E5D6E79EC01F0410E5D6E79ECFE
:1016900001F0040E4F6EFA0E5E6E7FEC00F04F2EDE
:1016A000FAD7C00EF212D76A1D0ED66E4E6A01D05E
:1016B0004E6A7AEF0BF0F86AD09E078E2080246A7B
:1016C000236A20802080196A1A6A216A226A256AA0
:1016D00020804E6A246A236A266AC150C00B0F0913
:1016E000C16E070EB46EC1EF01F0F40ED76E850E19
:0816F000D66E39D5FED70300C8
:020000040030CA
:0E000000024C3E1E0087A1000FC00FE00F4013
:00000001FF
;PIC18F4550
;CRC=D5E0  CREATED="30-oct-16 20:55"
