:0400000059EF0CF0B8
:08000800046ED8CF05F0E0CF33
:1000100006F00001E9CF0CF0EACF07F0E1CF08F0DD
:10002000E2CF09F0D9CF0AF0DACF0BF0F3CF12F01C
:10003000F4CF13F0FACF14F0F5CF15F0F6CF16F099
:10004000F7CF17F000C00EF001C00FF002C010F0A3
:1000500003C011F09DA030EF00F09EB05EEF00F005
:100060000EC000F00FC001F010C002F011C003F08C
:100070000CC0E9FF07C0EAFF078E08C0E1FF09C016
:10008000E2FF0AC0D9FF0BC0DAFF12C0F3FF13C0B2
:10009000F4FF14C0FAFF15C0F5FF16C0F6FF17C035
:1000A000F7FF045006C0E0FF05C0D8FF10005072F3
:1000B000696D65722070727565626100E80ECF6EC1
:1000C000AB0ECE6E252A9E9030EF00F0456E657225
:1000D000205B6B57685D3D20256620570000543D2E
:1000E00025662020493D256620200000EA6A6D0E25
:1000F000E96EEF500EE00F0E016E006A002EFED783
:10010000012EFBD78F0E006E002EFED70000EF2EC3
:10011000F2D71200080E016E110E006E002EFED7EF
:100120008C9E959E110E006E002EFED771378C9C12
:10013000D8B0958CD8A0959C958E83AEFED7012E15
:10014000EBD7110E006E002EFED78C9E959E000000
:10015000958C110E006E002EFED7110E006E002E33
:10016000FED7958E83AEFED7016A110E006E002E6B
:10017000FED783BC01808C9E959E8C9C959C120022
:10018000958C110E006E002EFED7958E110E006E0E
:10019000002EFED78C9C959C110E006E002EFED773
:1001A0008C9E959E4F0E006E002EFED700D04E0EF8
:1001B000716FB0DF4F0E006E002EFED700D070C002
:1001C00071F0A8DF4F0E006E002EFED700D0959C78
:1001D0000000958E83AEFED7110E006E002EFED766
:1001E00000D00000958C110E006E002EFED74F0E31
:1001F000006E002EFED700D0120020A005D06F5157
:10020000040908096F6F01D06F856FC070F0B8DF07
:10021000040E6F5F6FC070F0B3DF12006F6BEDDF25
:10022000100E6F6FEADF020E6D6F60DF1200C80EF6
:100230006D6F5CDF6F6BE1DF100E6F6FDEDF6F6B7A
:10024000DCDF6F6BDADF100E6F6FD7DF300E6F6F92
:10025000D4DF300E6F6FD1DF300E6F6FCEDF200E28
:100260006F6FCBDF200E6F6FC8DF800E6F6FC5DF43
:100270006F6BC3DFC00E6F6FC0DF6F6BBEDF600ED2
:100280006F6FBBDFCBDFC4EF01F06E51010A07E0F7
:10029000030A08E0010A09E0070A0AE00CD0800E10
:1002A0001F6E0BD0C00E1F6E08D0940E1F6E05D0AF
:1002B000D40E1F6E02D0800E1F6E010E6D5D1F26C4
:1002C0001F50F00B266E26C06FF097DF1F500F0BEC
:1002D000266E263AF00E261626C06FF08EDF12002C
:1002E0006C510C0A09E00D0A09E0030A0CE0010A4E
:1002F00010E0070A14E019D091DF28D0010E6D6FCD
:100300006E6FC3DF23D0010E6D6F020E6E6FBDDF07
:100310001DD0010E6D6F030E6E6FB7DF17D0010E8B
:100320006D6F040E6E6FB1DF11D06C51F00B6D6FFD
:100330006D816DC06FF061DF6C510F0B6D6F6D3BA8
:10034000F00E6D176D816DC06FF057DF1200090060
:10035000F5520CE0F6CF5EF0F7CF5FF0F5CF6CF022
:10036000BFDF5EC0F6FF5FC0F7FFF1D7CDEF01F052
:10037000950ECD6E840ED56ED76AD66AE80E926E53
:10038000FF0E936E226A53D7010E6D6F6E6F7DDF85
:10039000AE0EF66E000EF76EDAD720809D80C00E8E
:1003A000F21289808982A2EF0CF05F6A5E6A9292F3
:1003B0008992030E006E002EFED700D0929489948D
:1003C000030E006E002EFED700D092948984030E97
:1003D000006E002EFED700D0626B62510E0818E34B
:1003E000928680B602D0D89001D0D8805E365F3633
:1003F00092948994030E006E002EFED700D0929442
:100400008984030E006E002EFED700D0622BE5D744
:1004100092928982606B5F50080B616F60530DE1AF
:10042000615108080AE15EC000F05F50F70B036EEF
:100430005EC05EF0F80E03245F6E5EC001F05FC028
:1004400002F0F4EF08F05F6A5E6A8E0E606F9290C1
:10045000899092988998030E006E002EFED700D0E6
:10046000616B6151070817E3D890603702E2899801
:1004700001D08988929893928A82030E006E002E92
:10048000FED700D093928A92030E006E002EFED704
:1004900000D0612BE6D792908980929089909392B8
:1004A0008A82030E006E002EFED700D093928A92AD
:1004B000030E006E002EFED700D0616B61510E0856
:1004C00018E393928A82030E006E002EFED700D0AE
:1004D000938081B002D0D89001D0D8805E365F364C
:1004E00093928A92030E006E002EFED700D0612BED
:1004F000E5D7929089805F30636F5E30626F6333BF
:100500006233633362331F0E631762C05EF0635160
:100510000F0B5F6E5EC001F05FC002F0FAEF08F0F3
:100520008E0E006E5FC001F05EC002F0036A5FAE27
:1005300005D0011E021E022A01E1012A015209E131
:1005400002C001F0026A080E005E015202E1006A78
:100550000AD0D89001BE04D0023601360006F9D781
:100560005FBE01D0019E04EF09F08E0E006E8DC0BB
:1005700001F08CC002F0036A015209E102C001F0EF
:10058000026A080E005E015202E1006A08D0D890AB
:1005900001BE04D0023601360006F9D7019E1200D2
:1005A0008C51D8B471D0006E9051D8B46DD0002663
:1005B00004E3810E002668E204D07F0E005E64E34F
:1005C00063E08DC094F09151941B8D8F918F8F516A
:1005D0009303F4CF96F08E519203F4CF03F0F3CF50
:1005E00095F09303F3509627F4509523000E0322C1
:1005F0008F519203F3509627F4509523000E026A10
:10060000032202228D519303F3509527F4500322C5
:10061000000E02228D519203F3500326F450022261
:10062000000E016A01228F519103F3509527F45077
:100630000322000E022201228E519103F350032661
:10064000F4500222000E01228D519103F350022634
:10065000F4500122002A01BE05D095370336023638
:1006600001360006000E95AF0AD0032A02220122AD
:10067000015005E1025003E1035001E1002A94BF5B
:10068000018E94AF019E04D0006A016A026A036A77
:1006900012007051D8B4A5D07C6F7451D8B4A1D0D9
:1006A0007C5F05E37F0E7C27D8B09BD006D0810EFF
:1006B0007C5FD8A096D0D8B494D07CC000F0016AFA
:1006C000026A036A7B6B71C07AF07A8F72C079F02C
:1006D00073C078F0190E7C6F7751785F0DE2010ED0
:1006E000795F0AE27A5F08E27B5F06E27B2B7A2B76
:1006F000792B7751782728D07651795F12E2010E55
:100700007A5F0FE27B5F0DE27B2B7A2B76517927A4
:100710007751782719E3792B17E17A2B15E17B2B99
:1007200013D0755180097A5F0EE2010E7B5F0BE2F8
:100730007B2B755180097A2776517927E9E37A2B4B
:10074000E7E17B2BE5D703807C2F01D00BD0D8903D
:10075000783779377A377B37D890033602360136C7
:100760007D37BAD77DA106D0D8900132023203324C
:100770007D3302D0000635E07DBF1ED0D89078379B
:1007800079377A377B377751785F07E2010E795FE7
:1007900004E27A5F02E27B5F1AE37651795F05E259
:1007A000010E7A5F02E27B5F12E3755180097A5F86
:1007B00003E2010E7B5F0BE3032A09E1022A07E152
:1007C000012A05E1002A0DE001320232033271C034
:1007D0007CF075517C1B7CAF02D0018E06D0019E4F
:1007E00004D0006A016A026A036A1200800ED8B25D
:1007F000911B966B976B8DC095F09151951B8C5109
:10080000D8B4DCD0946F006E9051D8B4E0D0945F2F
:10081000D8B481D03DE391C09AF09A8F92C099F0FC
:1008200093C098F0976BD8909A3399339833973355
:10083000942FF8D795AF03D09681DDD096919491FF
:100840009689EA6A8F0EE96EE9D0969995BF0AD02B
:1008500094A113D09A33993398339733002AD8B49C
:10086000C5D00BD09ABF0CD0D8909737983799370E
:100870009A370006D8B4BAD0F5D7968D6BD0969D2E
:100880008DC095F08DAF02D09A8FA9D09A9FA7D036
:1008900090C094F090C000F08C51945F8DC09AF09D
:1008A0009A8F8EC099F08FC098F0976BD8909A333A
:1008B000993398339733942FF8D795AF03D0968315
:1008C0009AD096939491968BEA6A930EE96EA6D08D
:1008D000969B95BF0AD094A113D09A33993398333D
:1008E0009733002AD8B482D00BD09ABF0CD0D890BE
:1008F0009737983799379A370006D8B477D0F5D715
:10090000968F28D0969F91C095F091AF02D09A8F84
:1009100066D09A9F64D091C09AF09A8F92C099F055
:1009200093C098F095AF04D09A9F968564D0969521
:10093000976B9491EA6A8F0EE96E70D095BF1CD0C8
:100940008DC095F094A106D09A339933983397339C
:10095000002A4CE097AF0BD0982B09E1992B07E1C7
:100960009A2B05E19A3399339833002A3FE096BDDC
:1009700086D796BFC7D71CD0800E9A1B9AAF04D0DB
:100980003AD091C095F00AD08DC095F09A5306E107
:10099000995304E1985302E1006A21D09ABF08D02C
:1009A000D8909737983799379A37002EF7D71ED0B7
:1009B00095AF02D09A8F13D09A9F11D090C000F0BB
:1009C00091C09AF092C099F093C098F008D08CC072
:1009D00000F08DC09AF08EC099F08FC098F09AC048
:1009E00001F099C002F098C003F034D0006A016AA7
:1009F000026A036A2FD0976B981F991F9A1F971F3F
:100A0000972B05E1982B03E1992B01E19A2B96B1E5
:100A100015D796B356D796B58AD7B3D7EF50982740
:100A200005E3992B03E19A2BD8B49481ED52EF5052
:100A3000992703E39A2BD8B49481ED52EF50EFBE7F
:100A400001D0800A9A27D8B0948196B9FED696BB79
:100A50003FD774D7120089C090F08D51901B90AF92
:100A600005D0D894D89089BFD8802FD089C090F075
:100A70008CC091F08851915F06E090AF26D0D8509D
:100A8000010AD86E22D08DC091F08951915F06E0A5
:100A900090AF1BD0D850010AD86E17D08EC091F0FD
:100AA0008A51915F06E090AF10D0D850010AD86EFD
:100AB0000CD08FC091F08B51915F06E090AF05D0C4
:100AC000D850010AD86E01D0D890120065C08BF0C2
:100AD00064C08AF063C089F062C088F08F6B8E6B4F
:100AE0008D6B8C6BB8DF01E205E1006A016A026A76
:100AF000036A70D065C069F064C068F063C067F0D5
:100B000062C066F06F6B660E6E6F6EC0E9FF6FC0FD
:100B1000EAFFEF50736B726F7F0E7227000E732324
:100B2000D890733172316FC0EAFF6EC0E9FFEF6E8B
:100B300069C06DF068C06CF067C06BF066C06AF0A9
:100B400065C073F064C072F063C071F062C070F091
:100B500069C077F068C076F067C075F066C074F061
:100B600098DDD89269C08FF068C08EF067C08DF0B4
:100B700066C08CF003C093F002C092F001C091F007
:100B800000C090F033DE03C069F002C068F001C01D
:100B900067F000C066F06EC0E9FF6FC0EAFFEF06C5
:100BA0006DC08BF06CC08AF06BC089F06AC088F0B1
:100BB00069C08FF068C08EF067C08DF066C08CF0A1
:100BC0004ADFB6E16AC000F06BC001F06CC002F011
:100BD0006DC003F012008E0E006E8851005E89C059
:100BE00002F08AC001F0028E005209E0D890025251
:100BF00002E1015204E002320132002EF7D789AF40
:100C000005D0011E021E012AD8B4022A5EEF06F0AA
:100C10006D6B6C6B6B6B7F0E6A6F7E0E746F800EEC
:100C2000756F766B776B7A0E786F2A0E796FAA0ED6
:100C30007A6FA30E7B6F750E7C6FB60E7D6F090EFB
:100C40007E6FB40E7F6F6F0E806F4F0E816FB60E8A
:100C5000826FAA0E836F690E846F8B0E856FF60EFE
:100C6000866FE80E876F61C08BF060C08AF05FC04E
:100C700089F05EC088F08F6B8E6B8D6B8C6BEBDEBA
:100C800003E35F50800A5F6E61C08FF060C08EF03A
:100C90005FC08DF05EC08CF0830E936FF90E926F83
:100CA000220E916F7E0E906F7BDC03C08BF002C032
:100CB0008AF001C089F000C088F08DD701C06EF0C5
:100CC00061C08FF060C08EF05FC08DF05EC08CF0B0
:100CD000830E936FF90E926F220E916F7E0E906FBE
:100CE0005FDC03C08BF002C08AF001C089F000C055
:100CF00088F08D6B6EC08CF038DCD8828BC08FF0A2
:100D00008AC08EF089C08DF088C08CF003C093F04B
:100D100002C092F001C091F000C090F067DD03C006
:100D200073F002C072F001C071F000C070F0030EE9
:100D30006E176E5303E06E5102081AE173C08FF014
:100D400072C08EF071C08DF070C08CF0DB0E936FAE
:100D50000F0E926F490E916F7F0E906F21DC03C0D2
:100D600069F002C068F001C067F000C066F065D0AD
:100D70006E2D32D0D8828F6B8E6B8D6B7F0E8C6F09
:100D800073C093F072C092F071C091F070C090F097
:100D90002DDD03C08BF002C08AF001C089F000C0D5
:100DA00088F003C08FF002C08EF001C08DF000C04B
:100DB0008CF0DB0E936F0F0E926F490E916F7F0ECA
:100DC000906FD0EC02F003C069F002C068F001C07F
:100DD00067F000C066F031D0D88273C08FF072C067
:100DE0008EF071C08DF070C08CF0936B926B916B34
:100DF0007F0E906FFBDC03C08BF002C08AF001C055
:100E000089F000C088F003C08FF002C08EF001C0EE
:100E10008DF000C08CF0DB0E936F0F0E926F490EB9
:100E2000916F7F0E906FD0EC02F003C069F002C0AA
:100E300068F001C067F000C066F0656B646B636BBF
:100E40007F0E626F69C08FF068C08EF067C08DF052
:100E500066C08CF069C093F068C092F067C091F0F2
:100E600066C090F0D0EC02F003C069F002C068F0F8
:100E700001C067F000C066F06F6B6F51040859E362
:100E80006DC08FF06CC08EF06BC08DF06AC08CF0BE
:100E900069C093F068C092F067C091F066C090F0AE
:100EA000D0EC02F003C06DF002C06CF001C06BF03A
:100EB00000C06AF06F51040DF350036A740FE96EBD
:100EC000000E0320EA6EEFCF8CF0ECCF8DF0ECCF6C
:100ED0008EF0ECCF8FF06DC093F06CC092F06BC0D1
:100EE00091F06AC090F0D0EC02F0EACF89F0E9CF3F
:100EF00088F0D89265C08FF064C08EF063C08DF02A
:100F000062C08CF003C093F002C092F001C091F077
:100F100000C090F06BDC89C0EAFF88C0E9FF03C025
:100F200065F002C064F001C063F000C062F06F2B96
:100F3000A4D76E51020802E06E2D03D06351800ADF
:100F4000636F62C000F063C001F064C002F065C06E
:100F500003F0E9EF0AF00900F6CF5FF0F7CF60F099
:100F6000F5CF6CF070EC01F05FC0F6FF60C0F7FFEA
:100F70005E2EF1D712006B51B6086B6F036A6CC01E
:100F80006FF06C8FD8906C336D336E330332023256
:100F9000013200326B2FF6D76FAF0BD0001E011E4F
:100FA000021E031E002AD8B4012AD8B4022AD8B4DB
:100FB000032A4AEF08F0D8B203D0EA6A730EE96E4A
:100FC000006A016A026A036A736B746B756B766BF5
:100FD0007251711170116F112CE0200E776FD89043
:100FE0006B376C376D376E377337743775377637C5
:100FF0007251765D08E17151755D05E17051745D66
:1010000002E16F51735D0FE36F51735F7051D8A0B0
:10101000703D745F7151D8A0713D755F7251D8A059
:10102000723D765FD8800036013602360336772F60
:10103000D6D773C0EFFF74C0ECFF75C0ECFF76C06D
:10104000ECFF1200E950636F6251656F1AE061C0F6
:101050008FF060C08EF05FC08DF05EC08CF0936B3F
:10106000926B200E916F820E906FD0EC02F003C055
:1010700061F002C060F001C05FF000C05EF0652F5B
:10108000E6D761C06EF060C06DF05FC06CF05EC00E
:101090006BF071D703C061F002C060F001C05FF077
:1010A00000C05EF061AF0DD06307638B5E1E5F1EF4
:1010B000601F611F5E2AD8B45F2AD8B4602BD8B4F1
:1010C000612B3B0E6A6F9A0E696FCA0E686F676B71
:1010D0000A0E656F6251D8B4632BD882EA6A5E0E3D
:1010E000E96E61C06EF060C06DF05FC06CF05EC014
:1010F0006BF06AC072F069C071F068C070F067C0D0
:101100006FF059DF015000520FE16229655D0CE07C
:1011100063510CE00F0B655D01E03BE263BF39D02A
:1011200063BD04D0200E30D0200E631763AB0DD00A
:10113000639B6251D8A463070050636F2D0E6C6FE0
:1011400070EC01F06351006E636B6251655D0BE101
:101150000050636F2E0E6C6F70EC01F06351006EE7
:10116000200E6317000E300E63AB0ED0639B6251EE
:10117000D8A463070050636F2D0E6C6F70EC01F004
:101180006351006E636B300E002600C06CF070EC93
:1011900001F0D8926AC06EF069C06DF068C06CF062
:1011A00067C06BF0726B716B706B0A0E6F6F03DF51
:1011B00003C06AF002C069F001C068F000C067F0C7
:1011C000652F8BD712005D50000A0CE0010A36E053
:1011D000030AD8B4F0D0010AD8B456D1070AD8B45B
:1011E000F0D264D3D5EF01F002C028F001C027F09F
:1011F00023EF02F002C02AF001C029F028C05FF0FE
:1012000027C05EF090EF02F003C038F002C037F064
:1012100001C036F000C035F02AC08DF029C08CF036
:10122000B5EC02F003C03CF002C03BF001C03AF064
:1012300000C039F0222A010E5D6E39D338C08FF01C
:1012400037C08EF036C08DF035C08CF0936B926B4A
:10125000200E916F800E906FD0EC02F003C061F011
:1012600002C060F001C05FF000C05EF003C073F028
:1012700002C072F001C071F000C070F0776B766B45
:10128000756B8A0E746F49EC03F003C038F002C02E
:1012900037F001C036F000C035F03CC073F03BC001
:1012A00072F03AC071F039C070F0776B766B7A0EDD
:1012B000756F880E746F49EC03F003C061F002C0D3
:1012C00060F001C05FF000C05EF0D88203C08FF014
:1012D00002C08EF001C08DF000C08CF0D70E936F6D
:1012E000A30E926F200E916F800E906FF6EC03F0BC
:1012F00003C03CF002C03BF001C03AF000C039F03E
:1013000038C08FF037C08EF036C08DF035C08CF00D
:10131000EC0E936F910E926F1B0E916F860E906F75
:10132000D0EC02F003C038F002C037F001C036F054
:1013300000C035F03CC08FF03BC08EF03AC08DF05D
:1013400039C08CF0936B926B400E916F820E906F50
:10135000D0EC02F003C03CF002C03BF001C03AF018
:1013600000C039F02D6A36BE2D802E6A3ABE2E801E
:101370002D2C0CD02250010809E22F5207E1332C0A
:1013800001D004D022C031F0010E336E2E2C0CD0CF
:101390002250010809E2305207E13350020804E00C
:1013A00022C032F0020E336E2DC02FF02EC030F06E
:1013B000020E5D6E7CD222501D0865E3252C63D0A1
:1013C00038C08FF037C08EF036C08DF035C08CF04D
:1013D00038C093F037C092F036C091F035C090F02D
:1013E000D0EC02F0D89240C08FF03FC08EF03EC0EB
:1013F0008DF03DC08CF003C093F002C092F001C0AC
:1014000091F000C090F0F6EC03F003C040F002C091
:101410003FF001C03EF000C03DF03CC08FF03BC04B
:101420008EF03AC08DF039C08CF03CC093F03BC0D8
:1014300092F03AC091F039C090F0D0EC02F0D8921E
:1014400044C08FF043C08EF042C08DF041C08CF09C
:1014500003C093F002C092F001C091F000C090F080
:10146000F6EC03F003C044F002C043F001C042F0C8
:1014700000C041F0256A5D6A22501D0804E19D907C
:10148000226A030E5D6E13D240C073F03FC072F04B
:101490003EC071F03DC070F0776B766B700E756F6B
:1014A000830E746F49EC03F003C061F002C060F07A
:1014B00001C05FF000C05EF003C065F002C064F0E0
:1014C00001C063F000C062F066EC05F003C040F0BC
:1014D00002C03FF001C03EF000C03DF044C073F0D8
:1014E00043C072F042C071F041C070F0776B766B10
:1014F000700E756F830E746F49EC03F003C061F0DA
:1015000002C060F001C05FF000C05EF003C065F093
:1015100002C064F001C063F000C062F066EC05F048
:1015200003C044F002C043F001C042F000C041F0EB
:10153000506A4F6A4E6A4D6A3350020840E131509A
:10154000325C8D6B8C6FB5EC02F003C048F002C0CA
:1015500047F001C046F000C045F048C08FF047C0DA
:101560008EF046C08DF045C08CF0DB0E936F0F0EF1
:10157000926F490E916F800E906FD0EC02F003C015
:1015800061F002C060F001C05FF000C05EF003C017
:1015900073F002C072F001C071F000C070F0776BA0
:1015A000766B200E756F820E746F49EC03F003C0EA
:1015B00050F002C04FF001C04EF000C04DF050C0DE
:1015C00061F04FC060F04EC05FF04DC05EF008EFBC
:1015D00006F003C050F002C04FF001C04EF000C052
:1015E0004DF040C08FF03FC08EF03EC08DF03DC04A
:1015F0008CF044C093F043C092F042C091F041C0DF
:1016000090F0D0EC02F003C061F002C060F001C0C5
:101610005FF000C05EF003C08FF002C08EF001C02A
:101620008DF000C08CF050C093F04FC092F04EC0CF
:1016300091F04DC090F0D0EC02F003C04CF002C02D
:101640004BF001C04AF000C049F0316A326A506A7A
:101650004F6A4E6A4D6A336AD650FF0A010F2B6EED
:10166000000ED7542C6E2CC08DF02BC08CF0B5EC36
:1016700002F04CC08FF04BC08EF04AC08DF049C0D4
:101680008CF003C093F002C092F001C091F000C052
:1016900090F0D0EC02F003C061F002C060F001C035
:1016A0005FF000C05EF003C073F002C072F001C0D2
:1016B00071F000C070F0180E776F0D0E766F0F0E80
:1016C000756F980E746F49EC03F0D89254C08FF088
:1016D00053C08EF052C08DF051C08CF003C093F017
:1016E00002C092F001C091F000C090F0F6EC03F05F
:1016F00003C054F002C053F001C052F000C051F0DA
:101700008B6BBA0E8A6F5B0E896F940E886F54C014
:101710008FF053C08EF052C08DF051C08CF02BEC86
:1017200005F001E21CE1D89258C08FF057C08EF04E
:1017300056C08DF055C08CF0936B926B916B7F0E01
:10174000906FF6EC03F003C058F002C057F001C0F0
:1017500056F000C055F0546A536A526A516A58C034
:101760008BF057C08AF056C089F055C088F08F6B57
:101770008E6B7A0E8D6F880E8C6F2BEC05F01CE152
:10178000D8925CC08FF05BC08EF05AC08DF059C00B
:101790008CF0936B926B916B7F0E906FF6EC03F075
:1017A00003C05CF002C05BF001C05AF000C059F009
:1017B000586A576A566A556AD76AD66A040E5D6EC9
:1017C00076D0010E6D6F6E6F45EC01F0CC0EF66EAB
:1017D000000EF76E0C0E5E6EABEC07F0890EE96E34
:1017E0004CC061F04BC060F04AC05FF049C05EF091
:1017F000020E626F27DC200E6C6F70EC01F0570E4A
:101800006C6F70EC01F0010E6D6F020E6E6F45ECA7
:1018100001F0540E6C6F70EC01F03D0E6C6F70ECCB
:1018200001F0890EE96E40C061F03FC060F03EC03B
:101830005FF03DC05EF0020E626F04DCE20EF66EF9
:10184000000EF76E040E5E6EABEC07F0890EE96ECB
:1018500044C061F043C060F042C05FF041C05EF040
:10186000020E626F22EC08F0200E6C6F70EC01F03B
:10187000200E6C6F70EC01F0040E5E6EFA0E6D6F50
:1018800076EC00F05E2EFAD79D80C00EF212256A2B
:10189000E80ECF6EAB0ECE6E446A436A426A416A6E
:1018A000406A3F6A3E6A3D6A5D6A01D05D6AA7EFA1
:1018B0000CF0F86AD09E078E2080246A236A20806C
:1018C00020801FD00200190000020021000001004A
:1018D00022000100250001002500010FB4070100CE
:1018E0003414010034140400510000000008405179
:1018F00000084055000540590001005D0001002628
:101900000000000EF86E180EF76EC40EF66E090099
:10191000F550006E000A13E00900F550016EE8BEB4
:1019200005D00F0BEA6E0900F5CFE9FF01BC0900F5
:1019300001AC0900F5CFEEFF004EE9D7F9D7F86A00
:10194000B8EF01F0E80ECF6EAB0ECE6E3CD4FED7F2
:02195000030092
:020000040030CA
:0E000000074C3E1E0087A1000FC00FE00F400E
:00000001FF
;PIC18F4550
;CRC=A41B  CREATED="03-nov-16 10:49"
