:040000007CEF0AF097
:08000800046ED8CF05F0E0CF33
:1000100006F00001E9CF0CF0EACF07F0E1CF08F0DD
:10002000E2CF09F0D9CF0AF0DACF0BF0F3CF12F01C
:10003000F4CF13F0FACF14F0F5CF15F0F6CF16F099
:10004000F7CF17F000C00EF001C00FF002C010F0A3
:1000500003C011F0F2AA30EF00F0F2B457EF00F055
:100060000EC000F00FC001F010C002F011C003F08C
:100070000CC0E9FF07C0EAFF078E08C0E1FF09C016
:10008000E2FF0AC0D9FF0BC0DAFF12C0F3FF13C0B2
:10009000F4FF14C0FAFF15C0F5FF16C0F6FF17C035
:1000A000F7FF045006C0E0FF05C0D8FF1000D76A74
:1000B0001D0ED66E1D2AF29430EF00F0506F74655D
:1000C0006E6369613D20256620570000543D25661A
:1000D00020562020493D256620410000EA6A560E40
:1000E000E96EEF500EE0030E016E006A002EFED79F
:1000F000012EFBD7E30E006E002EFED70000EF2E80
:10010000F2D71200080E016E020E006E002EFED70E
:100110008C9E959E020E006E002EFED75A368C9C49
:10012000D8B0958CD8A0959C958E83AEFED7012E25
:10013000EBD7020E006E002EFED78C9E959E00001F
:10014000958C020E006E002EFED7020E006E002E61
:10015000FED7958E83AEFED7016A020E006E002E8A
:10016000FED783BC01808C9E959E8C9C959C120032
:10017000958C020E006E002EFED7958E020E006E3C
:10018000002EFED78C9C959C020E006E002EFED792
:100190008C9E959E130E006E002EFED700D04E0E44
:1001A0005A6EB0DF130E006E002EFED700D059C07D
:1001B0005AF0A8DF130E006E002EFED700D0959CDB
:1001C0000000958E83AEFED7020E006E002EFED785
:1001D00000D00000958C020E006E002EFED7130E8C
:1001E000006E002EFED700D012001AA005D0585085
:1001F00004090809586E01D0588458C059F0B8DF76
:10020000040E585E58C059F0B3DF1200586AEDDF93
:10021000100E586EEADF020E566E60DF1200C80E36
:10022000566E5CDF586AE1DF100E586EDEDF586AEA
:10023000DCDF586ADADF100E586ED7DF300E586EEA
:10024000D4DF300E586ED1DF300E586ECEDF200E68
:10025000586ECBDF200E586EC8DF800E586EC5DF9B
:10026000586AC3DFC00E586EC0DF586ABEDF600E2A
:10027000586EBBDFCBDF77EF01F05750010A07E084
:10028000030A08E0010A09E0070A0AE00CD0800E20
:10029000196E0BD0C00E196E08D0940E196E05D0D1
:1002A000D40E196E02D0800E196E010E565C1926FE
:1002B0001950F00B1E6E1EC058F097DF19500F0B2F
:1002C0001E6E1E3AF00E1E161EC058F08EDF120073
:1002D000C150C00B0E09C16EC050C00B0509C06EE5
:1002E000C09EC280800ED56E010E1C6E98D7010E86
:1002F000566E576EC2DF1A80F28AD76A1D0ED66E0E
:1003000090EF0AF092948994929289924A5002084E
:100310001AE19292899200D000004D6A4D500F0868
:100320000EE392948984928680B602D0D89001D050
:10033000D8804B364C36929489944D2AEFD79294BC
:100340008994929289824C304F6E4B304E6E4F3270
:100350004E323F0E4F164EC04BF04F500F0B4C6EAF
:100360004BC001F04CC002F026EF08F08E0E006E7C
:100370007AC001F079C002F0036A015209E102C0BB
:1003800001F0026A080E005E015202E1006A08D024
:10039000D89001BE04D0023601360006F9D7019E7E
:1003A00012007951D8B471D0006E7D51D8B46DD09F
:1003B000002604E3810E002668E204D07F0E005E72
:1003C00064E363E07AC081F07E51811B7A8F7E8F77
:1003D0007C518003F4CF83F07B517F03F4CF03F093
:1003E000F3CF82F08003F3508327F4508223000E72
:1003F00003227C517F03F3508327F4508223000EA5
:10040000026A032202227A518003F3508227F450B9
:100410000322000E02227A517F03F3500326F45088
:100420000222000E016A01227C517E03F3508227D2
:10043000F4500322000E022201227B517E03F3506E
:100440000326F4500222000E01227A517E03F3505B
:100450000226F4500122002A01BE05D0823703365D
:10046000023601360006000E82AF0AD0032A0222AD
:100470000122015005E1025003E1035001E1002A8D
:1004800081BF018E81AF019E04D0006A016A026AB9
:10049000036A12005950D8B4A5D0656F5D50D8B426
:1004A000A1D0655F05E37F0E6527D8B09BD006D04D
:1004B000810E655FD8A096D0D8B494D065C000F006
:1004C000016A026A036A646B5AC063F0638F5BC09F
:1004D00062F05CC061F0190E656F6051615F0DE202
:1004E000010E625F0AE2635F08E2645F06E2642B6A
:1004F000632B622B6051612728D05F50625F12E24C
:10050000010E635F0FE2645F0DE2642B632B5F50AB
:1005100062276051612719E3622B17E1632B15E114
:10052000642B13D05E508009635F0EE2010E645F9E
:100530000BE2642B5E50800963275F506227E9E37A
:10054000632BE7E1642BE5D70380652F01D00BD047
:10055000D8906137623763376437D89003360236F4
:1005600001366637BAD766A106D0D890013202327A
:100570000332663302D0000635E066BF1ED0D89045
:1005800061376237633764376051615F07E2010E9C
:10059000625F04E2635F02E2645F1AE35F50625FDE
:1005A00005E2010E635F02E2645F12E35E508009C0
:1005B000635F03E2010E645F0BE3032A09E1022A91
:1005C00007E1012A05E1002A0DE00132023203327F
:1005D0005AC065F05E50651B65AF02D0018E06D033
:1005E000019E04D0006A016A026A036A1200800E4A
:1005F000D8B27E1B836B846B7AC082F07E51821BE3
:100600007951D8B4DCD0816F006E7D51D8B4E0D080
:10061000815FD8B481D03DE37EC087F0878F7FC0F3
:1006200086F080C085F0846BD8908733863385331D
:100630008433812FF8D782AF03D08381DDD08391BB
:1006400081918389EA6A7C0EE96EE9D0839982BF41
:100650000AD081A113D08733863385338433002AAF
:10066000D8B4C5D00BD087BF0CD0D890843785378D
:10067000863787370006D8B4BAD0F5D7838D6BD0CC
:10068000839D7AC082F07AAF02D0878FA9D0879FEE
:10069000A7D07DC081F07DC000F07951815F7AC024
:1006A00087F0878F7BC086F07CC085F0846BD89004
:1006B0008733863385338433812FF8D782AF03D0D5
:1006C00083839AD083938191838BEA6A800EE96E4B
:1006D000A6D0839B82BF0AD081A113D087338633F3
:1006E00085338433002AD8B482D00BD087BF0CD096
:1006F000D89084378537863787370006D8B477D0C7
:10070000F5D7838F28D0839F7EC082F07EAF02D042
:10071000878F66D0879F64D07EC087F0878F7FC029
:1007200086F080C085F082AF04D0879F838564D037
:100730008395846B8191EA6A7C0EE96E70D082BFEA
:100740001CD07AC082F081A106D0873386338533EE
:100750008433002A4CE084AF0BD0852B09E1862B33
:1007600007E1872B05E1873386338533002A3FE095
:1007700083BD86D783BFC7D71CD0800E871B87AFAA
:1007800004D03AD07EC082F00AD07AC082F087537B
:1007900006E1865304E1855302E1006A21D087BF58
:1007A00008D0D8908437853786378737002EF7D71B
:1007B0001ED082AF02D0878F13D0879F11D07DC00B
:1007C00000F07EC087F07FC086F080C085F008D042
:1007D00079C000F07AC087F07BC086F07CC085F0DD
:1007E00087C001F086C002F085C003F034D0006AF3
:1007F000016A026A036A2FD0846B851F861F871FD8
:10080000841F842B05E1852B03E1862B01E1872BD7
:1008100083B115D783B356D783B58AD7B3D7EF50F3
:10082000852705E3862B03E1872BD8B48181ED5220
:10083000EF50862703E3872BD8B48181ED52EF5028
:10084000EFBE01D0800A8727D8B0818183B9FED658
:1008500083BB3FD774D7120076C07DF07A517D1BE1
:100860007DAF05D0D894D89076BFD8802FD076C0F1
:100870007DF079C07EF075517E5F06E07DAF26D0B9
:10088000D850010AD86E22D07AC07EF076517E5FB1
:1008900006E07DAF1BD0D850010AD86E17D07BC0C0
:1008A0007EF077517E5F06E07DAF10D0D850010A10
:1008B000D86E0CD07CC07EF078517E5F06E07DAFB4
:1008C00005D0D850010AD86E01D0D890120058C077
:1008D00078F057C077F056C076F055C075F07C6B55
:1008E0007B6B7A6B796BB8DF01E205E1006A016A24
:1008F000026A036A70D058C05CF057C05BF056C003
:100900005AF055C059F0626B590E616F61C0E9FF32
:1009100062C0EAFFEF50666B656F7F0E6527000EC1
:100920006623D8906631653162C0EAFF61C0E9FF95
:10093000EF6E5CC060F05BC05FF05AC05EF059C003
:100940005DF058C05CF057C05BF056C05AF055C01F
:1009500059F05CC060F05BC05FF05AC05EF059C0F7
:100960005DF098DDD8925CC07CF05BC07BF05AC033
:100970007AF059C079F003C080F002C07FF001C066
:100980007EF000C07DF033DE03C05CF002C05BF09F
:1009900001C05AF000C059F061C0E9FF62C0EAFF2F
:1009A000EF0660C078F05FC077F05EC076F05DC0A3
:1009B00075F05CC07CF05BC07BF05AC07AF059C027
:1009C00079F04ADFB6E15DC000F05EC001F05FC0C3
:1009D00002F060C003F012008E0E006E7551005ED2
:1009E00076C002F077C001F0028E005209E0D89084
:1009F000025202E1015204E002320132002EF7D726
:100A000076AF05D0011E021E012AD8B4022A5FEF7C
:100A100005F0806B7F6B7E6B7F0E7D6F7E0E876F28
:100A2000800E886F896B8A6B7A0E8B6F2A0E8C6FA3
:100A3000AA0E8D6FA30E8E6F750E8F6FB60E906F10
:100A4000090E916FB40E926F6F0E936F4F0E946FED
:100A5000B60E956FAA0E966F690E976F8B0E986FF4
:100A6000F60E996FE80E9A6F74C078F073C077F045
:100A700072C076F071C075F07C6B7B6B7A6B796BB2
:100A8000EBDE03E37251800A726F74C07CF073C0B6
:100A90007BF072C07AF071C079F0830E806FF90E2E
:100AA0007F6F220E7E6F7E0E7D6F7BDC03C078F041
:100AB00002C077F001C076F000C075F08DD701C09C
:100AC00081F074C07CF073C07BF072C07AF071C0AA
:100AD00079F0830E806FF90E7F6F220E7E6F7E0E8F
:100AE0007D6F5FDC03C09EF002C09DF001C09CF0F2
:100AF00000C09BF07A6B81C079F038DCD8829EC050
:100B00007CF09DC07BF09CC07AF09BC079F003C064
:100B100080F002C07FF001C07EF000C07DF067DD94
:100B200003C086F002C085F001C084F000C083F0ED
:100B3000030E8117815303E0815102081AE186C038
:100B40007CF085C07BF084C07AF083C079F0DB0E46
:100B5000806F0F0E7F6F490E7E6F7F0E7D6F21DCE1
:100B600003C07CF002C07BF001C07AF000C079F0D5
:100B700065D0812D32D0D8827C6B7B6B7A6B7F0EF7
:100B8000796F86C080F085C07FF084C07EF083C01E
:100B90007DF02DDD03C09EF002C09DF001C09CF0F1
:100BA00000C09BF003C07CF002C07BF001C07AF073
:100BB00000C079F0DB0E806F0F0E7F6F490E7E6FE5
:100BC0007F0E7D6FD1EC01F003C07CF002C07BF0A2
:100BD00001C07AF000C079F031D0D88286C07CF0B4
:100BE00085C07BF084C07AF083C079F0806B7F6B26
:100BF0007E6B7F0E7D6FFBDC03C09EF002C09DF01C
:100C000001C09CF000C09BF003C07CF002C07BF0F0
:100C100001C07AF000C079F0DB0E806F0F0E7F6F9D
:100C2000490E7E6F7F0E7D6FD1EC01F003C07CF02A
:100C300002C07BF001C07AF000C079F0786B776B6E
:100C4000766B7F0E756F7CC080F07BC07FF07AC0C2
:100C50007EF079C07DF0D1EC01F003C07CF002C0E1
:100C60007BF001C07AF000C079F0826B82510408F9
:100C700051E380C07CF07FC07BF07EC07AF07DC005
:100C800079F07CC080F07BC07FF07AC07EF079C0C4
:100C90007DF0D1EC01F003C080F002C07FF001C014
:100CA0007EF000C07DF08251040DF350036A870F7F
:100CB000E96E000E0320EA6EEFCF79F0ECCF7AF008
:100CC000ECCF7BF0ECCF7CF0D1EC01F0EACF9CF0E4
:100CD000E9CF9BF0D89278C07CF077C07BF076C0EB
:100CE0007AF075C079F003C080F002C07FF001C0D7
:100CF0007EF000C07DF07BDC9CC0EAFF9BC0E9FF7A
:100D000003C078F002C077F001C076F000C075F043
:100D1000822BACD78151020802E0812D03D076519D
:100D2000800A766F75C000F076C001F077C002F0DF
:100D300078C003F0F6EF09F055500C0A09E00D0AEF
:100D40000AE0030A0EE0010A13E0070A18E01ED0C9
:100D500006EC01F02ED0010E566E576E3DEC01F000
:100D600028D0010E566E020E576E3DEC01F021D0D8
:100D7000010E566E030E576E3DEC01F01AD0010EB7
:100D8000566E040E576E3DEC01F013D05550F00B2B
:100D9000566E568056C058F0F5EC00F055500F0BCB
:100DA000566E563AF00E5616568056C058F0F5EC70
:100DB00000F012000900F6CF48F0F7CF49F0F5CF68
:100DC00055F0BADF48C0F6FF49C0F7FF472EF2D70B
:100DD00012005450B608546E036A55C058F0558E30
:100DE000D890553256325732033202320132003235
:100DF000542EF6D758AE0BD0001E011E021E031E45
:100E0000002AD8B4012AD8B4022AD8B4032A78EF29
:100E100007F0D8B203D0EA6A5C0EE96E006A016A94
:100E2000026A036A5C6A5D6A5E6A5F6A5B505A10B6
:100E3000591058102CE0200E606FD890543655365B
:100E4000563657365C365D365E365F365B505F5CD5
:100E500008E15A505E5C05E159505D5C02E1585072
:100E60005C5C0FE358505C5E5950D8A0593C5D5E05
:100E70005A50D8A05A3C5E5E5B50D8A05B3C5F5E87
:100E8000D8800036013602360336602FD6D75CC0D4
:100E9000EFFF5DC0ECFF5EC0ECFF5FC0ECFF120037
:100EA000E9504C6E4B504E6E1AE04AC07CF049C07F
:100EB0007BF048C07AF047C079F0806B7F6B200EE2
:100EC0007E6F820E7D6FD1EC01F003C04AF002C04C
:100ED00049F001C048F000C047F04E2EE6D74AC0A6
:100EE00057F049C056F048C055F047C054F071D78C
:100EF00003C04AF002C049F001C048F000C047F00A
:100F00004AAE0DD04C064C8A471E481E491E4A1E4A
:100F1000472AD8B4482AD8B4492AD8B44A2A3B0E1A
:100F2000536E9A0E526ECA0E516E506A0A0E4E6E73
:100F30004B50D8B44C2AD882EA6A470EE96E4AC0B0
:100F400057F049C056F048C055F047C054F053C060
:100F50005BF052C05AF051C059F050C058F059DF00
:100F6000015000520FE14B284E5C0CE04C500CE05D
:100F70000F0B4E5C01E037E24CBE35D04CBC04D0C8
:100F8000200E2DD0200E4C164CAA0CD04C9A4B5053
:100F9000D8A44C0600504C6E2D0E556ECDDE4C5034
:100FA000006E4C6A4B504E5C0AE100504C6E2E0EA7
:100FB000556EC2DE4C50006E200E4C16000E300EE8
:100FC0004CAA0DD04C9A4B50D8A44C0600504C6EF5
:100FD0002D0E556EB1DE4C50006E4C6A300E002660
:100FE00000C055F0A9DED89253C057F052C056F059
:100FF00051C055F050C054F05B6A5A6A596A0A0EE3
:10100000586E07DF03C053F002C052F001C051F028
:1010100000C050F04E2E8FD712004650000A0CE050
:10102000010A3EE0030AD8B4BED0010AD8B423D1E5
:10103000070AD8B4FED15DD2000E016EC250C30BB8
:101040000110C26E020E4A6E82EF01F002C020F063
:1010500001C01FF0C282C2B2FED7226AC4CF21F003
:1010600020C07AF01FC079F0B6EC01F003C02DF07B
:1010700002C02CF001C02BF000C02AF022C07AF090
:1010800021C079F0B6EC01F003C031F002C030F0BD
:1010900001C02FF000C02EF01C2A010E466E2AD28D
:1010A0002DC07CF02CC07BF02BC07AF02AC079F0E8
:1010B000806B7F6B200E7E6F810E7D6FD1EC01F017
:1010C00003C04AF002C049F001C048F000C047F038
:1010D00003C05CF002C05BF001C05AF000C059F0E0
:1010E000606B5F6A5E6A8B0E5D6E4AEC02F003C055
:1010F0002DF002C02CF001C02BF000C02AF031C04E
:101100007CF030C07BF02FC07AF02EC079F0806B7D
:101110007F6B200E7E6F810E7D6FD1EC01F003C0DE
:101120004AF002C049F001C048F000C047F003C0D7
:101130005CF002C05BF001C05AF000C059F0606B77
:101140005F6A5E6A890E5D6E4AEC02F003C031F0A0
:1011500002C030F001C02FF000C02EF0236A2BBE79
:101160002380246A2FBE2480232C0AD01C5208E03E
:10117000255206E1275204E01CC027F0010E296E1B
:10118000242C0AD01C5208E0265206E1285204E022
:101190001CC028F0020E296E23C025F024C026F0C2
:1011A000020E466EA7D11C503B085EE31D2C5CD09E
:1011B0002DC07CF02CC07BF02BC07AF02AC079F0D7
:1011C0002DC080F02CC07FF02BC07EF02AC07DF0B7
:1011D000D1EC01F0D89235C07CF034C07BF033C044
:1011E0007AF032C079F003C080F002C07FF001C015
:1011F0007EF000C07DF0F7EC02F003C035F002C0D5
:1012000034F001C033F000C032F031C07CF030C0A7
:101210007BF02FC07AF02EC079F031C080F030C062
:101220007FF02FC07EF02EC07DF0D1EC01F0D8927F
:1012300039C07CF038C07BF037C07AF036C079F026
:1012400003C080F002C07FF001C07EF000C07DF0DE
:10125000F7EC02F003C039F002C038F001C037F0FB
:1012600000C036F01D6A466A1C503C0803E1F29A41
:10127000030E466E3FD135C05CF034C05BF033C026
:101280005AF032C059F0606B5F6A700E5E6E840E69
:101290005D6E4AEC02F003C04AF002C049F001C0A2
:1012A00048F000C047F003C058F002C057F001C03A
:1012B00056F000C055F067EC04F003C035F002C0F2
:1012C00034F001C033F000C032F039C05CF038C0F7
:1012D0005BF037C05AF036C059F0606B5F6A700E31
:1012E0005E6E840E5D6E4AEC02F003C04AF002C0EE
:1012F00049F001C048F000C047F003C058F002C0F8
:1013000057F001C056F000C055F067EC04F003C080
:1013100039F002C038F001C037F000C036F0295073
:10132000020840E12750285C7A6B796FB6EC01F037
:1013300003C03DF002C03CF001C03BF000C03AF0F9
:101340003DC07CF03CC07BF03BC07AF03AC079F005
:10135000DB0E806F0F0E7F6F490E7E6F800E7D6FEC
:10136000D1EC01F003C04AF002C049F001C048F0DE
:1013700000C047F003C05CF002C05BF001C05AF04F
:1013800000C059F0606B5F6A200E5E6E830E5D6E6A
:101390004AEC02F003C045F002C044F001C043F043
:1013A00000C042F035C07CF034C07BF033C07AF02E
:1013B00032C079F039C080F038C07FF037C07EF09D
:1013C00036C07DF0D1EC01F003C04AF002C049F014
:1013D00001C048F000C047F045C074F044C073F04D
:1013E00043C072F042C071F009EF05F04AC07CF0D2
:1013F00049C07BF048C07AF047C079F003C080F064
:1014000002C07FF001C07EF000C07DF0D1EC01F0A1
:1014100003C041F002C040F001C03FF000C03EF008
:10142000276A286A456A446A436A426A040E466E1D
:1014300061D0010E566E576E3DEC01F0BC0EF66E9B
:10144000000EF76E0A0E476EB5DC890EE96E41C0DC
:101450004AF040C049F03FC048F03EC047F0020E9D
:101460004B6E1EDD200E556E67DC570E556E64DC2C
:10147000010E566E020E576E3DEC01F0540E556E85
:101480005BDC3D0E556E58DC890EE96E35C04AF0C6
:1014900034C049F033C048F032C047F0020E4B6E02
:1014A000FFDCD00EF66E000EF76E060E476E82DC85
:1014B000890EE96E39C04AF038C049F037C048F0AB
:1014C00036C047F0020E4B6EEBDC200E556E34DC5E
:1014D000410E556E31DC030E476EFA0E566E6EEC01
:1014E00000F0472EFAD7F28AD76A1D0ED66E466AEA
:1014F00001D0466A91EF0AF0F86AD09E078E1A80F2
:101500001A801A801B6A1C6A1D6A1A80466A1E6A43
:10151000C150C00B0F09C16E070EB46E68EF01F029
:061520007CD5FED7FFD7C9
:020000040030CA
:0E00000002CC3E1E008721000FC00FE00F4013
:00000001FF
;PIC18F4550
;CRC=B984  CREATED="23-sep-16 08:41"
