:0400000072EF0CF09F
:08000800046ED8CF05F0E0CF33
:1000100006F00001E9CF0CF0EACF07F0E1CF08F0DD
:10002000E2CF09F0D9CF0AF0DACF0BF0F3CF12F01C
:10003000F4CF13F0FACF14F0F5CF15F0F6CF16F099
:10004000F7CF17F000C00EF001C00FF002C010F0A3
:1000500003C011F09DA030EF00F09EB05EEF00F005
:100060000EC000F00FC001F010C002F011C003F08C
:100070000CC0E9FF07C0EAFF078E08C0E1FF09C016
:10008000E2FF0AC0D9FF0BC0DAFF12C0F3FF13C0B2
:10009000F4FF14C0FAFF15C0F5FF16C0F6FF17C035
:1000A000F7FF045006C0E0FF05C0D8FF10005072F3
:1000B000696D65722070727565626100E80ECF6EC1
:1000C000AB0ECE6E252A9E9030EF00F025662057AD
:1000D00068202566206B57682020202020202020C3
:1000E0002020202020200000543D25662020493D6E
:1000F0002566202020202000EA6A710EE96EEF506C
:100100000EE00F0E016E006A002EFED7012EFBD707
:100110008F0E006E002EFED70000EF2EF2D71200D9
:10012000080E016E110E006E002EFED78C9E959E5D
:10013000110E006E002EFED775378C9CD8B0958CB2
:10014000D8A0959C958E83AEFED7012EEBD7110ECD
:10015000006E002EFED78C9E959E0000958C110E91
:10016000006E002EFED7110E006E002EFED7958E6B
:1001700083AEFED7016A110E006E002EFED783BC3F
:1001800001808C9E959E8C9C959C1200958C110EE6
:10019000006E002EFED7958E110E006E002EFED73B
:1001A0008C9C959C110E006E002EFED78C9E959E09
:1001B0004F0E006E002EFED700D04E0E756FB0DFD2
:1001C0004F0E006E002EFED700D074C075F0A8DF71
:1001D0004F0E006E002EFED700D0959C0000958E2D
:1001E00083AEFED7110E006E002EFED700D00000A9
:1001F000958C110E006E002EFED74F0E006E002E55
:10020000FED700D0120020A005D0735104090809C0
:10021000736F01D0738573C074F0B8DF040E735F21
:1002200073C074F0B3DF1200736BEDDF100E736FE9
:10023000EADF020E716F60DF1200C80E716F5CDFC3
:10024000736BE1DF100E736FDEDF736BDCDF736BDC
:10025000DADF100E736FD7DF300E736FD4DF300E1E
:10026000736FD1DF300E736FCEDF200E736FCBDF75
:10027000200E736FC8DF800E736FC5DF736BC3DF33
:10028000C00E736FC0DF736BBEDF600E736FBBDFBA
:10029000CBDFCAEF01F07251010A07E0030A08E060
:1002A000010A09E0070A0AE00CD0800E1F6E0BD08D
:1002B000C00E1F6E08D0940E1F6E05D0D40E1F6E98
:1002C00002D0800E1F6E010E715D1F261F50F00BB5
:1002D000266E26C073F097DF1F500F0B266E263A4E
:1002E000F00E261626C073F08EDF120070510C0A35
:1002F00009E00D0A09E0030A0CE0010A10E0070A10
:1003000014E019D091DF28D0010E716F726FC3DF36
:1003100023D0010E716F020E726FBDDF1DD0010E72
:10032000716F030E726FB7DF17D0010E716F040E7D
:10033000726FB1DF11D07051F00B716F718171C0AC
:1003400073F061DF70510F0B716F713BF00E71171D
:10035000718171C073F057DF12000900F5520CE093
:10036000F6CF62F0F7CF63F0F5CF70F0BFDF62C079
:10037000F6FF63C0F7FFF1D7D3EF01F0950ECD6E16
:10038000840ED56ED76AD66AE80E926EFD0E936E15
:10039000226A53D7010E716F726F7DDFAE0EF66E5B
:1003A000000EF76EDAD720809D80C00EF212898091
:1003B000898294EF0CF0636B626B92928992030EC8
:1003C000006E002EFED700D092948994030E006E2A
:1003D000002EFED700D092948984030E006E002E6A
:1003E000FED700D0666B66510E0818E3928680B681
:1003F00002D0D89001D0D880623763379294899424
:10040000030E006E002EFED700D092948984030E56
:10041000006E002EFED700D0662BE5D7929289821F
:10042000646B6351080B656F64530DE165510808F7
:100430000AE162C000F06351F70B036E62C062F024
:10044000F80E0324636F62C001F063C002F0FAEF9C
:1004500008F0636B626B8E0E646F92908990929835
:100460008998030E006E002EFED700D0656B655193
:10047000070817E3D890643702E2899801D0898889
:10048000929893928A82030E006E002EFED700D0BF
:1004900093928A92030E006E002EFED700D0652B39
:1004A000E6D7929089809290899093928A82030EE7
:1004B000006E002EFED700D093928A92030E006E3B
:1004C000002EFED700D0656B65510E0818E393929D
:1004D0008A82030E006E002EFED700D0938081B07A
:1004E00002D0D89001D0D8806237633793928A9235
:1004F000030E006E002EFED700D0652BE5D792903C
:1005000089806331676F6231666F67336633673343
:1005100066331F0E671766C062F067510F0B636F7B
:1005200062C001F063C002F000EF09F08E0E006EB1
:1005300063C001F062C002F0036A63AF05D0011E20
:10054000021E022A01E1012A015209E102C001F062
:10055000026A080E005E015202E1006A0AD0D890D9
:1005600001BE04D0023601360006F9D763BF01D0C0
:10057000019E0AEF09F08E0E006E91C001F090C04E
:1005800002F0036A015209E102C001F0026A080E9A
:10059000005E015202E1006A08D0D89001BE04D08A
:1005A000023601360006F9D7019E12009051D8B4E8
:1005B00071D0006E9451D8B46DD0002604E3810E42
:1005C000002668E204D07F0E005E64E363E091C021
:1005D00098F09551981B918F958F93519703F4CF75
:1005E0009AF092519603F4CF03F0F3CF99F097036A
:1005F000F3509A27F4509923000E03229351960347
:10060000F3509A27F4509923000E026A0322022223
:1006100091519703F3509927F4500322000E0222C0
:1006200091519603F3500326F4500222000E016A02
:10063000012293519503F3509927F4500322000EA1
:100640000222012292519503F3500326F450022214
:10065000000E012291519503F3500226F45001221D
:10066000002A01BE05D0993703360236013600064E
:10067000000E99AF0AD0032A02220122015005E19F
:10068000025003E1035001E1002A98BF018E98AFA8
:10069000019E04D0006A016A026A036A1200745162
:1006A000D8B4A5D0806F7851D8B4A1D0805F05E3CD
:1006B0007F0E8027D8B09BD006D0810E805FD8A057
:1006C00096D0D8B494D080C000F0016A026A036A60
:1006D0007F6B75C07EF07E8F76C07DF077C07CF03A
:1006E000190E806F7B517C5F0DE2010E7D5F0AE287
:1006F0007E5F08E27F5F06E27F2B7E2B7D2B7B51A6
:100700007C2728D07A517D5F12E2010E7E5F0FE2D6
:100710007F5F0DE27F2B7E2B7A517D277B517C27DB
:1007200019E37D2B17E17E2B15E17F2B13D0795137
:1007300080097E5F0EE2010E7F5F0BE27F2B795115
:1007400080097E277A517D27E9E37E2BE7E17F2B25
:10075000E5D70380802F01D00BD0D8907C377D3730
:100760007E377F37D8900336023601368137BAD7C5
:1007700081A106D0D890013202320332813302D0F7
:10078000000635E081BF1ED0D8907C377D377E379C
:100790007F377B517C5F07E2010E7D5F04E27E5F65
:1007A00002E27F5F1AE37A517D5F05E2010E7E5F10
:1007B00002E27F5F12E3795180097E5F03E2010E5E
:1007C0007F5F0BE3032A09E1022A07E1012A05E121
:1007D000002A0DE001320232033275C080F07951F7
:1007E000801B80AF02D0018E06D0019E04D0006A2B
:1007F000016A026A036A1200800ED8B2951B9A6BD6
:100800009B6B91C099F09551991B9051D8B4DCD055
:10081000986F006E9451D8B4E0D0985FD8B481D06E
:100820003DE395C09EF09E8F96C09DF097C09CF0D2
:100830009B6BD8909E339D339C339B33982FF8D776
:1008400099AF03D09A81DDD09A9198919A89EA6AFA
:10085000930EE96EE9D09A9999BF0AD098A113D066
:100860009E339D339C339B33002AD8B4C5D00BD024
:100870009EBF0CD0D8909B379C379D379E37000683
:10088000D8B4BAD0F5D79A8D6BD09A9D91C099F013
:1008900091AF02D09E8FA9D09E9FA7D094C098F010
:1008A00094C000F09051985F91C09EF09E8F92C0CE
:1008B0009DF093C09CF09B6BD8909E339D339C33EE
:1008C0009B33982FF8D799AF03D09A839AD09A93F5
:1008D00098919A8BEA6A970EE96EA6D09A9B99BF77
:1008E0000AD098A113D09E339D339C339B33002AAA
:1008F000D8B482D00BD09EBF0CD0D8909B379C37F9
:100900009D379E370006D8B477D0F5D79A8F28D078
:100910009A9F95C099F095AF02D09E8F66D09E9F0A
:1009200064D095C09EF09E8F96C09DF097C09CF0BD
:1009300099AF04D09E9F9A8564D09A959B6B9891AD
:10094000EA6A930EE96E70D099BF1CD091C099F0FD
:1009500098A106D09E339D339C339B33002A4CE0F4
:100960009BAF0BD09C2B09E19D2B07E19E2B05E152
:100970009E339D339C33002A3FE09ABD86D79ABFB1
:10098000C7D71CD0800E9E1B9EAF04D03AD095C016
:1009900099F00AD091C099F09E5306E19D5304E16D
:1009A0009C5302E1006A21D09EBF08D0D8909B37AB
:1009B0009C379D379E37002EF7D71ED099AF02D0B7
:1009C0009E8F13D09E9F11D094C000F095C09EF0D2
:1009D00096C09DF097C09CF008D090C000F091C0E8
:1009E0009EF092C09DF093C09CF09EC001F09DC00F
:1009F00002F09CC003F034D0006A016A026A036A04
:100A00002FD09B6B9C1F9D1F9E1F9B1F9B2B05E147
:100A10009C2B03E19D2B01E19E2B9AB115D79AB334
:100A200056D79AB58AD7B3D7EF509C2705E39D2BAD
:100A300003E19E2BD8B49881ED52EF509D2703E33C
:100A40009E2BD8B49881ED52EF50EFBE01D0800AB2
:100A50009E27D8B098819AB9FED69ABB3FD774D753
:100A600012008DC094F09151941B94AF05D0D8948E
:100A7000D8908DBFD8802FD08DC094F090C095F0C5
:100A80008C51955F06E094AF26D0D850010AD86EFD
:100A900022D091C095F08D51955F06E094AF1BD0A8
:100AA000D850010AD86E17D092C095F08E51955F3C
:100AB00006E094AF10D0D850010AD86E0CD093C085
:100AC00095F08F51955F06E094AF05D0D850010A9C
:100AD000D86E01D0D890120069C08FF068C08EF037
:100AE00067C08DF066C08CF0936B926B916B906BCE
:100AF000B8DF01E205E1006A016A026A036A70D0A8
:100B000069C06DF068C06CF067C06BF066C06AF0D9
:100B1000736B6A0E726F72C0E9FF73C0EAFFEF5029
:100B2000776B766F7F0E7627000E7723D89077311C
:100B3000763173C0EAFF72C0E9FFEF6E6DC071F0ED
:100B40006CC070F06BC06FF06AC06EF069C077F077
:100B500068C076F067C075F066C074F06DC07BF059
:100B60006CC07AF06BC079F06AC078F098DDD892EA
:100B70006DC093F06CC092F06BC091F06AC090F0C1
:100B800003C097F002C096F001C095F000C094F049
:100B900033DE03C06DF002C06CF001C06BF000C02A
:100BA0006AF072C0E9FF73C0EAFFEF0671C08FF010
:100BB00070C08EF06FC08DF06EC08CF06DC093F081
:100BC0006CC092F06BC091F06AC090F04ADFB6E161
:100BD0006EC000F06FC001F070C002F071C003F091
:100BE00012008E0E006E8C51005E8DC002F08EC021
:100BF00001F0028E005209E0D890025202E1015247
:100C000004E002320132002EF7D78DAF05D0011E6D
:100C1000021E012AD8B4022A64EF06F0716B706BD1
:100C20006F6B7F0E6E6F7E0E786F800E796F7A6BB2
:100C30007B6B7A0E7C6F2A0E7D6FAA0E7E6FA30EE1
:100C40007F6F750E806FB60E816F090E826FB40EC6
:100C5000836F6F0E846F4F0E856FB60E866FAA0E70
:100C6000876F690E886F8B0E896FF60E8A6FE80E9C
:100C70008B6F65C08FF064C08EF063C08DF062C072
:100C80008CF0936B926B916B906BEBDE03E3635193
:100C9000800A636F65C093F064C092F063C091F006
:100CA00062C090F0830E976FF90E966F220E956FCB
:100CB0007E0E946F7BDC03C08FF002C08EF001C00B
:100CC0008DF000C08CF08DD701C072F065C093F03C
:100CD00064C092F063C091F062C090F0830E976F91
:100CE000F90E966F220E956F7E0E946F5FDC03C037
:100CF0008FF002C08EF001C08DF000C08CF0916BBF
:100D000072C090F038DCD8828FC093F08EC092F021
:100D10008DC091F08CC090F003C097F002C096F0A7
:100D200001C095F000C094F067DD03C077F002C009
:100D300076F001C075F000C074F0030E72177253A4
:100D400003E0725102081AE177C093F076C092F086
:100D500075C091F074C090F0DB0E976F0F0E966F18
:100D6000490E956F7F0E946F21DC03C06DF002C0B9
:100D70006CF001C06BF000C06AF065D0722D32D00B
:100D8000D882936B926B916B7F0E906F77C097F0C8
:100D900076C096F075C095F074C094F02DDD03C058
:100DA0008FF002C08EF001C08DF000C08CF003C047
:100DB00093F002C092F001C091F000C090F0DB0E01
:100DC000976F0F0E966F490E956F7F0E946FD6EC4E
:100DD00002F003C06DF002C06CF001C06BF000C007
:100DE0006AF031D0D88277C093F076C092F075C0A7
:100DF00091F074C090F0976B966B956B7F0E946F2B
:100E0000FBDC03C08FF002C08EF001C08DF000C08B
:100E10008CF003C093F002C092F001C091F000C0CA
:100E200090F0DB0E976F0F0E966F490E956F7F0E49
:100E3000946FD6EC02F003C06DF002C06CF001C0FC
:100E40006BF000C06AF0696B686B676B7F0E666F52
:100E50006DC093F06CC092F06BC091F06AC090F0DE
:100E60006DC097F06CC096F06BC095F06AC094F0BE
:100E7000D6EC02F003C06DF002C06CF001C06BF064
:100E800000C06AF0736B7351040859E371C093F0AA
:100E900070C092F06FC091F06EC090F06DC097F08E
:100EA0006CC096F06BC095F06AC094F0D6EC02F07E
:100EB00003C071F002C070F001C06FF000C06EF0AE
:100EC0007351040DF350036A780FE96E000E03208E
:100ED000EA6EEFCF90F0ECCF91F0ECCF92F0ECCF48
:100EE00093F071C097F070C096F06FC095F06EC02F
:100EF00094F0D6EC02F0EACF8DF0E9CF8CF0D892E6
:100F000069C093F068C092F067C091F066C090F03D
:100F100003C097F002C096F001C095F000C094F0B5
:100F20006BDC8DC0EAFF8CC0E9FF03C069F002C032
:100F300068F001C067F000C066F0732BA4D772514F
:100F4000020802E0722D03D06751800A676F66C005
:100F500000F067C001F068C002F069C003F0EFEF75
:100F60000AF06F51B6086F6F036A70C073F0708F2C
:100F7000D89070337133723303320232013200324F
:100F80006F2FF6D773AF0BD0001E011E021E031E7B
:100F9000002AD8B4012AD8B4022AD8B4032A40EFD0
:100FA00008F0D8B203D0EA6A770EE96E006A016AE7
:100FB000026A036A776B786B796B7A6B765175117D
:100FC000741173112CE0200E7B6FD8906F3770373F
:100FD000713772377737783779377A3776517A5D64
:100FE00008E17551795D05E17451785D02E1735155
:100FF000775D0FE37351775F7451D8A0743D785FCC
:101000007551D8A0753D795F7651D8A0763D7A5F4D
:10101000D88000360136023603367B2FD6D777C00C
:10102000EFFF78C0ECFF79C0ECFF7AC0ECFF120054
:10103000E950676F6651696F1AE065C093F064C04C
:1010400092F063C091F062C090F0976B966B200EA7
:10105000956F820E946FD6EC02F003C065F002C06B
:1010600064F001C063F000C062F0692FE6D765C08C
:1010700072F064C071F063C070F062C06FF071D73D
:1010800003C065F002C064F001C063F000C062F00C
:1010900065AF0DD06707678B621F631F641F651FF5
:1010A000622BD8B4632BD8B4642BD8B4652B3B0E19
:1010B0006E6F9A0E6D6FCA0E6C6F6B6B0A0E696F56
:1010C0006651D8B4672BD882EA6A620EE96E65C0B1
:1010D00072F064C071F063C070F062C06FF06EC0F7
:1010E00076F06DC075F06CC074F06BC073F059DFB2
:1010F000015000520FE16629695D0CE067510CE078
:101100000F0B695D01E03BE267BF39D067BD04D0DA
:10111000200E30D0200E671767AB0DD0679B66514D
:10112000D8A467070050676F2D0E706F76EC01F042
:101130006751006E676B6651695D0BE10050676F28
:101140002E0E706F76EC01F06751006E200E67175F
:10115000000E300E67AB0ED0679B6651D8A46707B0
:101160000050676F2D0E706F76EC01F06751006EC6
:10117000676B300E002600C070F076EC01F0D8925C
:101180006EC072F06DC071F06CC070F06BC06FF02B
:10119000766B756B746B0A0E736F03DF03C06EF0B2
:1011A00002C06DF001C06CF000C06BF0692F8BD7EE
:1011B00012000900F6CF63F0F7CF64F0F5CF70F0BE
:1011C00076EC01F063C0F6FF64C0F7FF622FF1D741
:1011D00012006151000A0CE0010A36E0030AD8B49B
:1011E000F0D0010AD8B456D1070AD8B400D377D3C7
:1011F000DBEF01F002C028F001C027F029EF02F078
:1012000002C02AF001C029F028C063F027C062F0B4
:1012100096EF02F003C03CF002C03BF001C03AF090
:1012200000C039F02AC091F029C090F0BBEC02F068
:1012300003C040F002C03FF001C03EF000C03DF0EE
:10124000222A010E616F4CD33CC093F03BC092F058
:101250003AC091F039C090F0976B966B200E956F65
:10126000800E946FD6EC02F003C065F002C064F00B
:1012700001C063F000C062F003C077F002C076F0F6
:1012800001C075F000C074F07B6B7A6B796B8A0ECD
:10129000786F4FEC03F003C03CF002C03BF001C09C
:1012A0003AF000C039F040C077F03FC076F03EC061
:1012B00075F03DC074F07B6B7A6B7A0E796F880E97
:1012C000786F4FEC03F003C065F002C064F001C01A
:1012D00063F000C062F0D88203C093F002C092F0C5
:1012E00001C091F000C090F0D70E976FA30E966FDB
:1012F000200E956F800E946FFCEC03F003C040F05D
:1013000002C03FF001C03EF000C03DF03CC093F091
:101310003BC092F03AC091F039C090F0EC0E976F5C
:10132000910E966F1B0E956F860E946FD6EC02F0A1
:1013300003C03CF002C03BF001C03AF000C039F0FD
:1013400040C093F03FC092F03EC091F03DC090F09D
:10135000976B966B400E956F820E946FD6EC02F0F1
:1013600003C040F002C03FF001C03EF000C03DF0BD
:10137000316A3ABE3180326A3EBE3280312C0CD0A6
:101380002250010809E2335207E1372C01D004D082
:1013900022C035F0010E376E322C0CD022500108DD
:1013A00009E2345207E13750020804E022C036F067
:1013B000020E376E31C033F032C034F0020E616F6E
:1013C0008FD222501D0865E3252C63D03CC093F0DA
:1013D0003BC092F03AC091F039C090F03CC097F019
:1013E0003BC096F03AC095F039C094F0D6EC02F0CC
:1013F000D89244C093F043C092F042C091F041C0F3
:1014000090F003C097F002C096F001C095F000C0C4
:1014100094F0FCEC03F003C044F002C043F001C0C0
:1014200042F000C041F040C093F03FC092F03EC097
:1014300091F03DC090F040C097F03FC096F03EC0A4
:1014400095F03DC094F0D6EC02F0D89248C093F0ED
:1014500047C092F046C091F045C090F003C097F0AD
:1014600002C096F001C095F000C094F0FCEC03F0CF
:1014700003C048F002C047F001C046F000C045F08C
:10148000256A616B22501D0804E19D90226A030EBB
:10149000616F26D244C077F043C076F042C075F049
:1014A00041C074F07B6B7A6B700E796F830E786F2E
:1014B0004FEC03F003C065F002C064F001C063F0BC
:1014C00000C062F003C069F002C068F001C067F0BC
:1014D00000C066F06CEC05F003C044F002C043F0BD
:1014E00001C042F000C041F048C077F047C076F03C
:1014F00046C075F045C074F07B6B7A6B700E796FE7
:10150000830E786F4FEC03F003C065F002C064F007
:1015100001C063F000C062F003C069F002C068F06F
:1015200001C067F000C066F06CEC05F003C048F045
:1015300002C047F001C046F000C045F0546A536A4B
:10154000526A516A3750020840E13550365C916B5F
:10155000906FBBEC02F003C04CF002C04BF001C036
:101560004AF000C049F04CC093F04BC092F04AC022
:1015700091F049C090F0DB0E976F0F0E966F490EF9
:10158000956F800E946FD6EC02F003C065F002C038
:1015900064F001C063F000C062F003C077F002C0E5
:1015A00076F001C075F000C074F07B6B7A6B200E92
:1015B000796F820E786F4FEC03F003C054F002C0D5
:1015C00053F001C052F000C051F054C065F053C058
:1015D00064F052C063F051C062F00EEF06F003C039
:1015E00054F002C053F001C052F000C051F044C0AA
:1015F00093F043C092F042C091F041C090F048C0D7
:1016000097F047C096F046C095F045C094F0D6ECF0
:1016100002F003C065F002C064F001C063F000C0D6
:1016200062F003C093F002C092F001C091F000C0DC
:1016300090F054C097F053C096F052C095F051C04E
:1016400094F0D6EC02F003C050F002C04FF001C09D
:101650004EF000C04DF0356A366A376AD6502F6EAC
:10166000D7CF30F030C091F02FC090F0BBEC02F03B
:10167000D882936B926B916B8F0E906F03C097F033
:1016800002C096F001C095F000C094F0FCEC03F0AD
:1016900003C02EF002C02DF001C02CF000C02BF0D2
:1016A0002EC077F02DC076F02CC075F02BC074F0F2
:1016B0007B6B800E7A6F3B0E796F870E786F4FECE5
:1016C00003F003C02EF002C02DF001C02CF000C0CA
:1016D0002BF050C093F04FC092F04EC091F04DC02F
:1016E00090F02EC097F02DC096F02CC095F02BC036
:1016F00094F0D6EC02F0D89258C093F057C092F014
:1017000056C091F055C090F003C097F002C096F01B
:1017100001C095F000C094F0FCEC03F003C058F059
:1017200002C057F001C056F000C055F08F6BBA0EE2
:101730008E6F5B0E8D6F940E8C6F58C093F057C0F8
:1017400092F056C091F055C090F031EC05F001E2F6
:101750001CE1D8925CC093F05BC092F05AC091F04B
:1017600059C090F0976B966B956B7F0E946FFCEC65
:1017700003F003C05CF002C05BF001C05AF000C08F
:1017800059F0586A576A566A556A5CC08FF05BC058
:101790008EF05AC08DF059C08CF0936B926B7A0E1C
:1017A000916F880E906F31EC05F01CE1D89260C00B
:1017B00093F05FC092F05EC091F05DC090F0976BC7
:1017C000966B956B7F0E946FFCEC03F003C060F09A
:1017D00002C05FF001C05EF000C05DF05C6A5B6A51
:1017E0005A6A596AD76AD66A040E616F79D0010EB7
:1017F000716F726F4BEC01F0890EE96E5CC065F0A1
:101800005BC064F05AC063F059C062F0020E666FAC
:101810000FDCCE0EF66E000EF76E040E626FC9DCA2
:10182000890EE96E60C065F05FC064F05EC063F071
:101830005DC062F0020E666F18EC08F0D40EF66E12
:10184000000EF76E120E626FB4DC010E716F020EA5
:10185000726F4BEC01F0540E706F76EC01F03D0EA0
:10186000706F76EC01F0890EE96E44C065F043C0FC
:1018700064F042C063F041C062F0020E666F18EC83
:1018800008F0EC0EF66E000EF76E040E626F91DC3F
:10189000890EE96E48C065F047C064F046C063F049
:1018A00045C062F0020E666F18EC08F0F20EF66E9C
:1018B000000EF76E050E626F7CDC9D80C00EF2128A
:1018C000256AE80ECF6EAB0ECE6E486A476A466A4E
:1018D000456A446A436A426A416A616B01D0616B3E
:1018E00099EF0CF0F86AD09E078E2080246A236A54
:1018F00020802080196A1A6A216A226A256A20805B
:10190000140E386E586A576A566A556A5C6A5B6A82
:101910005A6A596A616B266AC150C00B0F09C16EC1
:10192000070EB46EBEEF01F0E80ECF6EAB0ECE6EBA
:0619300050D4FED70300B5
:020000040030CA
:0E000000074C3E1E0087A1000FC00FE00F400E
:00000001FF
;PIC18F4550
;CRC=E468  CREATED="03-nov-16 20:51"
