:0400000085EF0DF08B
:0800080028EF01F000000000E8
:100010000000000000000000046ED8CF05F0E0CF23
:1000200006F00001E9CF0CF0EACF07F0E1CF08F0CD
:10003000E2CF09F0D9CF0AF0DACF0BF0F3CF12F00C
:10004000F4CF13F0FACF14F0F5CF15F0F6CF16F089
:10005000F7CF17F000C00EF001C00FF002C010F093
:1000600003C011F0F0A638EF00F0F0B066EF00F03A
:100070000EC000F00FC001F010C002F011C003F07C
:100080000CC0E9FF07C0EAFF078E08C0E1FF09C006
:10009000E2FF0AC0D9FF0BC0DAFF12C0F3FF13C0A2
:1000A000F4FF14C0FAFF15C0F5FF16C0F6FF17C025
:1000B000F7FF045006C0E0FF05C0D8FF10005072E3
:1000C000696D65722070727565626100612B938243
:1000D00081B2FDD7F09038EF00F0A36BA26B929243
:1000E0008992030E006E002EFED700D09294899460
:1000F000030E006E002EFED700D092948984030E6A
:10010000006E002EFED700D0A66BA6510E0818E395
:10011000928680B602D0D89001D0D880A237A3377B
:1001200092948994030E006E002EFED700D0929414
:100130008984030E006E002EFED700D0A62BE5D7D3
:1001400092928982A46BA351080BA56FA4530DE171
:10015000A55108080AE1A2C000F0A351F70B036EF5
:10016000A2C0A2F0F80E0324A36FA2C001F0A3C0A6
:1001700002F029EF01F0A36BA26B8E0EA46F929098
:10018000899092988998030E006E002EFED700D0B9
:10019000A56BA551070817E3D890A43702E2899808
:1001A00001D08988929893908A80030E006E002E69
:1001B000FED700D093908A90030E006E002EFED7DB
:1001C00000D0A52BE6D79290898092908990939049
:1001D0008A80030E006E002EFED700D093908A9086
:1001E000030E006E002EFED700D0A56BA5510E08A1
:1001F00018E393908A80030E006E002EFED700D085
:10020000938481B402D0D89001D0D880A237A3378C
:1002100093908A90030E006E002EFED700D0A52B7F
:10022000E5D792908980A331A76FA231A66FA7333B
:10023000A633A733A6331F0EA717A6C0A2F0A75157
:100240000F0BA36FA2C001F0A3C002F02EEF01F0CC
:1002500044D702C028F001C027F08DD702C02AF091
:1002600001C029F0E80ECF6E770ECE6E252A9E9043
:1002700011002020454E4552474941206B576820C8
:10028000202000002566206B576820202020202099
:10029000202020202020202020202020200020207E
:1002A00020454E45524749412057682020202000D4
:1002B0002566205768202020202020202020202074
:1002C000202020202020000020202054656E73690B
:1002D0006F6E20524D5320200000256620562020AE
:1002E000202020202020202020202020202020200E
:1002F000000020436F727269656E746520524D5321
:1003000020200000256620412020202020202020C1
:10031000202020202020202020200000466163741F
:100320006F7220706F74656E636961200000436FA7
:1003300073286669293D2566202020202020202062
:10034000202020202020202020202000EA6A720E79
:10035000E96EEF500EE00F0E016E006A002EFED720
:10036000012EFBD78F0E006E002EFED70000EF2E61
:10037000F2D71200080E016E110E006E002EFED78D
:100380008C9E959E110E006E002EFED776378C9CAB
:10039000D8B0958CD8A0959C958E83AEFED7012EB3
:1003A000EBD7110E006E002EFED78C9E959E00009E
:1003B000958C110E006E002EFED7110E006E002ED1
:1003C000FED7958E83AEFED7016A110E006E002E09
:1003D000FED783BC01808C9E959E8C9C959C1200C0
:1003E000958C110E006E002EFED7958E110E006EAC
:1003F000002EFED78C9C959C110E006E002EFED711
:100400008C9E959E4F0E006E002EFED700D04E0E95
:10041000766FB0DF4F0E006E002EFED700D075C095
:1004200076F0A8DF4F0E006E002EFED700D0959C10
:100430000000958E83AEFED7110E006E002EFED703
:1004400000D00000958C110E006E002EFED74F0ECE
:10045000006E002EFED700D0120020A005D07451EF
:1004600004090809746F01D0748574C075F0B8DF91
:10047000040E745F74C075F0B3DF1200746BEDDFAF
:10048000100E746FEADF020E726F60DF1200C80E8A
:10049000726F5CDF746BE1DF100E746FDEDF746B04
:1004A000DCDF746BDADF100E746FD7DF300E746F21
:1004B000D4DF300E746FD1DF300E746FCEDF200EBC
:1004C000746FCBDF200E746FC8DF800E746FC5DFD2
:1004D000746BC3DFC00E746FC0DF746BBEDF600E61
:1004E000746FBBDFCBDFF4EF02F07351010A07E05A
:1004F000030A08E0010A09E0070A0AE00CD0800EAE
:100500001F6E0BD0C00E1F6E08D0940E1F6E05D04C
:10051000D40E1F6E02D0800E1F6E010E725D1F265C
:100520001F50F00B266E26C074F097DF1F500F0B84
:10053000266E263AF00E261626C074F08EDF1200C4
:1005400071510C0A09E00D0A09E0030A0CE0010AE6
:1005500010E0070A14E019D091DF28D0010E726F65
:10056000736FC3DF23D0010E726F020E736FBDDF96
:100570001DD0010E726F030E736FB7DF17D0010E1F
:10058000726F040E736FB1DF11D07151F00B726F87
:10059000728172C074F061DF71510F0B726F723B28
:1005A000F00E7217728172C074F057DF12000900EA
:1005B000F5520CE0F6CF63F0F7CF64F0F5CF71F0B1
:1005C000BFDF63C0F6FF64C0F7FFF1D7FDEF02F0B5
:1005D000950ECD6E840ED56ED76AD66AE80E926EF1
:1005E000FE0E936E226A53D7010E726F736F7DDF1A
:1005F000BE0EF66E000EF76EDAD720809D80F08674
:10060000C00EF21289808982ABEF0DF08E0E006E63
:1006100064C001F063C002F0036A64AF05D0011E3C
:10062000021E022A01E1012A015209E102C001F081
:10063000026A080E005E015202E1006A0AD0D890F8
:1006400001BE04D0023601360006F9D764BF01D0DE
:10065000019E82EF09F08E0E006E92C001F091C0F3
:1006600002F0036A015209E102C001F0026A080EB9
:10067000005E015202E1006A08D0D89001BE04D0A9
:10068000023601360006F9D7019E12009151D8B406
:1006900071D0006E9551D8B46DD0002604E3810E60
:1006A000002668E204D07F0E005E64E363E092C03F
:1006B00099F09651991B928F968F94519803F4CF8D
:1006C0009BF093519703F4CF03F0F3CF9AF0980384
:1006D000F3509B27F4509A23000E03229451970362
:1006E000F3509B27F4509A23000E026A0322022241
:1006F00092519803F3509A27F4500322000E0222DD
:1007000092519703F3500326F4500222000E016A1F
:10071000012294519603F3509A27F4500322000EBD
:100720000222012293519603F3500326F450022231
:10073000000E012292519603F3500226F45001223A
:10074000002A01BE05D09A3703360236013600066C
:10075000000E9AAF0AD0032A02220122015005E1BD
:10076000025003E1035001E1002A99BF018E99AFC5
:10077000019E04D0006A016A026A036A1200755180
:10078000D8B4A5D0816F7951D8B4A1D0815F05E3E9
:100790007F0E8127D8B09BD006D0810E815FD8A074
:1007A00096D0D8B494D081C000F0016A026A036A7E
:1007B000806B76C07FF07F8F77C07EF078C07DF051
:1007C000190E816F7C517D5F0DE2010E7E5F0AE2A2
:1007D0007F5F08E2805F06E2802B7F2B7E2B7C51BF
:1007E0007D2728D07B517E5F12E2010E7F5F0FE2F2
:1007F000805F0DE2802B7F2B7B517E277C517D27F4
:1008000019E37E2B17E17F2B15E1802B13D07A5152
:1008100080097F5F0EE2010E805F0BE2802B7A5130
:1008200080097F277B517E27E9E37F2BE7E1802B3F
:10083000E5D70380812F01D00BD0D8907D377E374C
:100840007F378037D8900336023601368237BAD7E1
:1008500082A106D0D890013202320332823302D014
:10086000000635E082BF1ED0D8907D377E377F37B7
:1008700080377C517D5F07E2010E7E5F04E27F5F7F
:1008800002E2805F1AE37B517E5F05E2010E7F5F2B
:1008900002E2805F12E37A5180097F5F03E2010E7A
:1008A000805F0BE3032A09E1022A07E1012A05E13F
:1008B000002A0DE001320232033276C081F07A5113
:1008C000811B81AF02D0018E06D0019E04D0006A48
:1008D000016A026A036A1200800ED8B2961B9B6BF3
:1008E0009C6B92C09AF096519A1B9151D8B4DCD06F
:1008F000996F006E9551D8B4E0D0995FD8B481D08B
:100900003DE396C09FF09F8F97C09EF098C09DF0EA
:100910009C6BD8909F339E339D339C33992FF8D78F
:100920009AAF03D09B81DDD09B9199919B89EA6A14
:10093000940EE96EE9D09B999ABF0AD099A113D081
:100940009F339E339D339C33002AD8B4C5D00BD03F
:100950009FBF0CD0D8909C379D379E379F3700069D
:10096000D8B4BAD0F5D79B8D6BD09B9D92C09AF02E
:1009700092AF02D09F8FA9D09F9FA7D095C099F02A
:1009800095C000F09151995F92C09FF09F8F93C0E6
:100990009EF094C09DF09C6BD8909F339E339D3306
:1009A0009C33992FF8D79AAF03D09B839AD09B930F
:1009B00099919B8BEA6A980EE96EA6D09B9B9ABF91
:1009C0000AD099A113D09F339E339D339C33002AC4
:1009D000D8B482D00BD09FBF0CD0D8909C379D3715
:1009E0009E379F370006D8B477D0F5D79B8F28D095
:1009F0009B9F96C09AF096AF02D09F8F66D09F9F24
:100A000064D096C09FF09F8F97C09EF098C09DF0D5
:100A10009AAF04D09F9F9B8564D09B959C6B9991C6
:100A2000EA6A940EE96E70D09ABF1CD092C09AF018
:100A300099A106D09F339E339D339C33002A4CE00E
:100A40009CAF0BD09D2B09E19E2B07E19F2B05E16D
:100A50009F339E339D33002A3FE09BBD86D79BBFCB
:100A6000C7D71CD0800E9F1B9FAF04D03AD096C032
:100A70009AF00AD092C09AF09F5306E19E5304E187
:100A80009D5302E1006A21D09FBF08D0D8909C37C7
:100A90009D379E379F37002EF7D71ED09AAF02D0D2
:100AA0009F8F13D09F9F11D095C000F096C09FF0EC
:100AB00097C09EF098C09DF008D091C000F092C001
:100AC0009FF093C09EF094C09DF09FC001F09EC027
:100AD00002F09DC003F034D0006A016A026A036A22
:100AE0002FD09C6B9D1F9E1F9F1F9C1F9C2B05E161
:100AF0009D2B03E19E2B01E19F2B9BB115D79BB34F
:100B000056D79BB58AD7B3D7EF509D2705E39E2BC9
:100B100003E19F2BD8B49981ED52EF509E2703E358
:100B20009F2BD8B49981ED52EF50EFBE01D0800ACF
:100B30009F27D8B099819BB9FED69BBB3FD774D76E
:100B400012008EC095F09251951B95AF05D0D894A8
:100B5000D8908EBFD8802FD08EC095F091C096F0DF
:100B60008D51965F06E095AF26D0D850010AD86E19
:100B700022D092C096F08E51965F06E095AF1BD0C2
:100B8000D850010AD86E17D093C096F08F51965F57
:100B900006E095AF10D0D850010AD86E0CD094C0A2
:100BA00096F09051965F06E095AF05D0D850010AB7
:100BB000D86E01D0D89012006AC090F069C08FF052
:100BC00068C08EF067C08DF0946B936B926B916BE5
:100BD000B8DF01E205E1006A016A026A036A70D0C7
:100BE0006AC06EF069C06DF068C06CF067C06BF0F1
:100BF000746B6B0E736F73C0E9FF74C0EAFFEF5044
:100C0000786B776F7F0E7727000E7823D890783136
:100C1000773174C0EAFF73C0E9FFEF6E6EC072F007
:100C20006DC071F06CC070F06BC06FF06AC078F08E
:100C300069C077F068C076F067C075F06EC07CF070
:100C40006DC07BF06CC07AF06BC079F098DDD89203
:100C50006EC094F06DC093F06CC092F06BC091F0D8
:100C600003C098F002C097F001C096F000C095F064
:100C700033DE03C06EF002C06DF001C06CF000C046
:100C80006BF073C0E9FF74C0EAFFEF0672C090F02A
:100C900071C08FF070C08EF06FC08DF06EC094F098
:100CA0006DC093F06CC092F06BC091F04ADFB6E17A
:100CB0006FC000F070C001F071C002F072C003F0AC
:100CC00012008E0E006E8D51005E8EC002F08FC03D
:100CD00001F0028E005209E0D890025202E1015266
:100CE00004E002320132002EF7D78EAF05D0011E8C
:100CF000021E012AD8B4022AD4EF06F0726B716B7F
:100D0000706B7F0E6F6F7E0E796F800E7A6F7B6BCC
:100D10007C6B7A0E7D6F2A0E7E6FAA0E7F6FA30EFC
:100D2000806F750E816FB60E826F090E836FB40EE1
:100D3000846F6F0E856F4F0E866FB60E876FAA0E8B
:100D4000886F690E896F8B0E8A6FF60E8B6FE80EB7
:100D50008C6F66C090F065C08FF064C08EF063C089
:100D60008DF0946B936B926B916BEBDE03E36451AC
:100D7000800A646F66C094F065C093F064C092F01E
:100D800063C091F0830E986FF90E976F220E966FE5
:100D90007E0E956F7BDC03C090F002C08FF001C027
:100DA0008EF000C08DF08DD701C073F066C094F056
:100DB00065C093F064C092F063C091F0830E986FA9
:100DC000F90E976F220E966F7E0E956F5FDC03C053
:100DD00090F002C08FF001C08EF000C08DF0926BD9
:100DE00073C091F038DCD88290C094F08FC093F03B
:100DF0008EC092F08DC091F003C098F002C097F0C1
:100E000001C096F000C095F067DD03C078F002C025
:100E100077F001C076F000C075F0030E73177353BE
:100E200003E0735102081AE178C094F077C093F0A0
:100E300076C092F075C091F0DB0E986F0F0E976F31
:100E4000490E966F7F0E956F21DC03C06EF002C0D5
:100E50006DF001C06CF000C06BF065D0732D32D026
:100E6000D882946B936B926B7F0E916F78C098F0E1
:100E700077C097F076C096F075C095F02DDD03C071
:100E800090F002C08FF001C08EF000C08DF003C062
:100E900094F002C093F001C092F000C091F0DB0E1C
:100EA000986F0F0E976F490E966F7F0E956F46ECF9
:100EB00003F003C06EF002C06DF001C06CF000C022
:100EC0006BF031D0D88278C094F077C093F076C0C0
:100ED00092F075C091F0986B976B966B7F0E956F43
:100EE000FBDC03C090F002C08FF001C08EF000C0A8
:100EF0008DF003C094F002C093F001C092F000C0E6
:100F000091F0DB0E986F0F0E976F490E966F7F0E64
:100F1000956F46EC03F003C06EF002C06DF001C0A7
:100F20006CF000C06BF06A6B696B686B7F0E676F6B
:100F30006EC094F06DC093F06CC092F06BC091F0F5
:100F40006EC098F06DC097F06CC096F06BC095F0D5
:100F500046EC03F003C06EF002C06DF001C06CF00F
:100F600000C06BF0746B7451040859E372C094F0C4
:100F700071C093F070C092F06FC091F06EC098F0A5
:100F80006DC097F06CC096F06BC095F046EC03F026
:100F900003C072F002C071F001C070F000C06FF0C9
:100FA0007451040DF350036A790FE96E000E0320AB
:100FB000EA6EEFCF91F0ECCF92F0ECCF93F0ECCF64
:100FC00094F072C098F071C097F070C096F06FC046
:100FD00095F046EC03F0EACF8EF0E9CF8DF0D89291
:100FE0006AC094F069C093F068C092F067C091F055
:100FF00003C098F002C097F001C096F000C095F0D1
:101000006BDC8EC0EAFF8DC0E9FF03C06AF002C04E
:1010100069F001C068F000C067F0742BA4D7735169
:10102000020802E0732D03D06851800A686F67C020
:1010300000F068C001F069C002F06AC003F064EF1C
:101040000BF00900F5520DE0F6CF63F0F7CF64F036
:10105000F5CF71F0A0EC02F063C0F6FF64C0F7FFBB
:10106000F0D712007051B608706F036A71C074F047
:10107000718FD8907133723373330332023201327D
:101080000032702FF6D774AF0BD0001E011E021E67
:10109000031E002AD8B4012AD8B4022AD8B4032ADD
:1010A000C1EF08F0D8B203D0EA6A780EE96E006AA0
:1010B000016A026A036A786B796B7A6B7B6B775192
:1010C0007611751174112CE0200E7C6FD89070375A
:1010D000713772377337783779377A377B3777518B
:1010E0007B5D08E176517A5D05E17551795D02E13C
:1010F0007451785D0FE37451785F7551D8A0753DD8
:10110000795F7651D8A0763D7A5F7751D8A0773D48
:101110007B5FD88000360136023603367C2FD6D767
:1011200078C0EFFF79C0ECFF7AC0ECFF7BC0ECFF2A
:101130001200E950686F67516A6F1AE066C094F058
:1011400065C093F064C092F063C091F0986B976BA8
:10115000200E966F820E956F46EC03F003C066F08A
:1011600002C065F001C064F000C063F06A2FE6D7EA
:1011700066C073F065C072F064C071F063C070F057
:1011800071D703C066F002C065F001C064F000C012
:1011900063F066AF0DD06807688B631F641F651F1F
:1011A000661F632BD8B4642BD8B4652BD8B4662BD8
:1011B0003B0E6F6F9A0E6E6FCA0E6D6F6C6B0A0EE0
:1011C0006A6F6751D8B4682BD882EA6A630EE96EF9
:1011D00066C073F065C072F064C071F063C070F0F7
:1011E0006FC077F06EC076F06DC075F06CC074F0B3
:1011F00059DF015000520FE167296A5D0CE0685128
:101200000CE00F0B6A5D01E03BE268BF39D068BDBE
:1012100004D0200E30D0200E681768AB0DD0689B2C
:101220006751D8A468070050686F2D0E716FA0EC4D
:1012300002F06851006E686B67516A5D0BE1005007
:10124000686F2E0E716FA0EC02F06851006E200ED8
:101250006817000E300E68AB0ED0689B6751D8A49B
:1012600068070050686F2D0E716FA0EC02F0685196
:10127000006E686B300E002600C071F0A0EC02F02A
:10128000D8926FC073F06EC072F06DC071F06CC018
:1012900070F0776B766B756B0A0E746F03DF03C0AB
:1012A0006FF002C06EF001C06DF000C06CF06A2FEC
:1012B0008BD712000900F6CF64F0F7CF65F0F5CFB9
:1012C00071F0A0EC02F064C0F6FF65C0F7FF632F79
:1012D000F1D712006251000A0DE0010A2FE0030A63
:1012E000D8B4E7D0010AD8B44AD1070AD8B411D388
:1012F00070EF0DF0252C20D028C064F027C063F0DB
:1013000006EF03F003C03CF002C03BF001C03AF02E
:1013100000C039F02AC092F029C091F02BEC03F004
:1013200003C040F002C03FF001C03EF000C03DF0FD
:10133000222A256A010E626F71EF0DF03CC094F015
:101340003BC093F03AC092F039C091F0986B976B24
:10135000200E966F800E956F46EC03F003C066F08A
:1013600002C065F001C064F000C063F003C078F013
:1013700002C077F001C076F000C075F07C6B7B6B2B
:101380007A6B8A0E796FBFEC03F003C03CF002C0A9
:101390003BF001C03AF000C039F040C078F03FC0E7
:1013A00077F03EC076F03DC075F07C6B7B6B7A0EBB
:1013B0007A6F880E796FBFEC03F003C066F002C04D
:1013C00065F001C064F000C063F0D88203C094F0FF
:1013D00002C093F001C092F000C091F0986B976B3F
:1013E000200E966F800E956F6CEC04F003C040F0F9
:1013F00002C03FF001C03EF000C03DF03CC094F0A0
:101400003BC093F03AC092F039C091F0EC0E986F67
:10141000910E976F1B0E966F860E956F46EC03F03C
:1014200003C03CF002C03BF001C03AF000C039F00C
:1014300040C094F03FC093F03EC092F03DC091F0A8
:10144000986B976B400E966F820E956F46EC03F08B
:1014500003C040F002C03FF001C03EF000C03DF0CC
:10146000316A3ABE3180326A3EBE3280312C0CD0B5
:101470002250010809E2335207E1372C01D004D091
:1014800022C035F0010E376E322C0CD022500108EC
:1014900009E2345207E13750020804E022C036F076
:1014A000020E376E31C033F032C034F0020E626F7C
:1014B00018D322501D0862E33CC094F03BC093F067
:1014C0003AC092F039C091F03CC098F03BC097F020
:1014D0003AC096F039C095F046EC03F0D89244C07B
:1014E00094F043C093F042C092F041C091F003C029
:1014F00098F002C097F001C096F000C095F06CEC37
:1015000004F003C044F002C043F001C042F000C048
:1015100041F040C094F03FC093F03EC092F03DC017
:1015200091F040C098F03FC097F03EC096F03DC0AB
:1015300095F046EC03F0D89248C094F047C093F081
:1015400046C092F045C091F003C098F002C097F0F9
:1015500001C096F000C095F06CEC04F003C048F0B8
:1015600002C047F001C046F000C045F0626B225057
:101570001D0804E19D90226A030E626FB2D244C03E
:1015800078F043C077F042C076F041C075F07C6BD4
:101590007B6B700E7A6F830E796FBFEC03F003C024
:1015A00066F002C065F001C064F000C063F003C0E3
:1015B0006AF002C069F001C068F000C067F0DCECBE
:1015C00005F003C044F002C043F001C042F000C087
:1015D00041F048C078F047C077F046C076F045C08B
:1015E00075F07C6B7B6B700E7A6F830E796FBFEC3E
:1015F00003F003C066F002C065F001C064F000C0F3
:1016000063F003C06AF002C069F001C068F000C076
:1016100067F0DCEC05F003C048F002C047F001C001
:1016200046F000C045F0546A536A526A516A375016
:10163000020840E13550365C926B916F2BEC03F061
:1016400003C04CF002C04BF001C04AF000C049F0AA
:101650004CC094F04BC093F04AC092F049C091F056
:10166000DB0E986F0F0E976F490E966F800E956F79
:1016700046EC03F003C066F002C065F001C064F000
:1016800000C063F003C078F002C077F001C076F0CC
:1016900000C075F07C6B7B6B200E7A6F820E796FC9
:1016A000BFEC03F003C054F002C053F001C052F08D
:1016B00000C051F054C066F053C065F052C064F0F1
:1016C00051C063F07EEF06F003C054F002C053F047
:1016D00001C052F000C051F044C094F043C093F0F8
:1016E00042C092F041C091F048C098F047C097F0D6
:1016F00046C096F045C095F046EC03F003C066F096
:1017000002C065F001C064F000C063F003C094F053
:1017100002C093F001C092F000C091F054C098F064
:1017200053C097F052C096F051C095F046EC03F0CC
:1017300003C050F002C04FF001C04EF000C04DF0A9
:10174000356A366A376AD6502F6ED7CF30F030C040
:1017500092F02FC091F02BEC03F0D882946B936B36
:10176000926B8F0E916F03C098F002C097F001C08A
:1017700096F000C095F06CEC04F003C02EF002C0AF
:101780002DF001C02CF000C02BF02EC078F02DC041
:1017900077F02CC076F02BC075F07C6B800E7B6FE1
:1017A0003B0E7A6F870E796FBFEC03F003C02EF00B
:1017B00002C02DF001C02CF000C02BF050C094F0FE
:1017C0004FC093F04EC092F04DC091F02EC098F0F3
:1017D0002DC097F02CC096F02BC095F046EC03F08E
:1017E000D89258C094F057C093F056C092F055C0AC
:1017F00091F003C098F002C097F001C096F000C0CD
:1018000095F06CEC04F003C058F002C057F001C032
:1018100056F000C055F0906BBA0E8F6F5B0E8E6F56
:10182000940E8D6F58C094F057C093F056C092F04C
:1018300055C091F0A1EC05F001E238E158C078F014
:1018400057C077F056C076F055C075F07C6BBA0E75
:101850007B6F5B0E7A6F940E796FBFEC03F003C061
:1018600058F002C057F001C056F000C055F0D892B1
:101870005CC094F05BC093F05AC092F059C091F0F4
:1018800058C098F057C097F056C096F055C095F0E4
:101890006CEC04F003C05CF002C05BF001C05AF0D5
:1018A00000C059F0586A576A566A556A906B8F6B38
:1018B0007A0E8E6F880E8D6F5CC094F05BC093F0D3
:1018C0005AC092F059C091F0A1EC05F001E21CE180
:1018D000D89260C094F05FC093F05EC092F05DC09B
:1018E00091F0986B976B966B7F0E956F6CEC04F094
:1018F00003C060F002C05FF001C05EF000C05DF0A8
:101900005C6A5B6A5A6A596AD76AD66A040E626F61
:10191000E8D06151040801E2616B6151FB0FD8B05E
:10192000CDD0050F73EF0DF0010E726F736F75EC74
:1019300002F0720EF66E020EF76E21EC08F0010E48
:10194000726F020E736F75EC02F0890EE96E60C063
:1019500066F05FC065F05EC064F05DC063F0020ECB
:10196000676F99EC08F0860EF66E020EF76E170E92
:10197000636FA0DCA3D0010E726F736F75EC02F081
:101980009E0EF66E020EF76E21EC08F0010E726FDD
:10199000020E736F75EC02F0890EE96E5CC066F0A2
:1019A0005BC065F05AC064F059C063F0020E676F07
:1019B00099EC08F0B20EF66E020EF76E140E636F1D
:1019C00079DC7CD0010E726F736F75EC02F0C80E7B
:1019D000F66E020EF76E21EC08F0010E726F020E29
:1019E000736F75EC02F0890EE96E44C066F043C077
:1019F00065F042C064F041C063F0020E676F99EC7D
:101A000008F0DC0EF66E020EF76E140E636F52DCF9
:101A100055D0010E726F736F75EC02F0F20EF66E18
:101A2000020EF76E21EC08F0010E726F020E736F5A
:101A300075EC02F0890EE96E48C066F047C065F0AB
:101A400046C064F045C063F0020E676F99EC08F081
:101A5000060EF66E030EF76E140E636F2BDC2ED09F
:101A6000010E726F736F75EC02F01C0EF66E030EB2
:101A7000F76E21EC08F0010E726F020E736F75ECB9
:101A800002F02E0EF66E030EF76E080E636F12DC78
:101A9000890EE96E54C066F053C065F052C064F020
:101AA00051C063F0020E676F99EC08F0380EF66EC5
:101AB000030EF76E130E636F5AEC09F09D80C00E93
:101AC000F212256AE80ECF6E770ECE6E486A476A2C
:101AD000466A456A446A436A426A416A626B01D057
:101AE000626BB1EF0DF0E824F76AF736010FF66E7E
:101AF0001B0EF7220A00F550FA6E0800F550F96E39
:101B000028197619C419121A601AF86A9F80F09C75
:101B1000D08E078E2080246A236A20802080196A54
:101B20001A6A216A226A256A2080140E386E586A61
:101B3000576A566A556A5C6A5B6A5A6A596A626B86
:101B4000246A236A266AC150C00B0F09C16E070EB2
:101B5000B46EE8EF02F0E80ECF6E770ECE6E6AEF4D
:061B600009F0FDD70300AF
:020000040030CA
:0E000000074C3E1E0087A1000FC00FE00F400E
:00000001FF
;PIC18F4550
;CRC=87F8  CREATED="06-nov-16 16:05"
