:040000009DEF0BF075
:08000800046ED8CF05F0E0CF33
:1000100006F00001E9CF0CF0EACF07F0E1CF08F0DD
:10002000E2CF09F0D9CF0AF0DACF0BF0F3CF12F01C
:10003000F4CF13F0FACF14F0F5CF15F0F6CF16F099
:10004000F7CF17F000C00EF001C00FF002C010F0A3
:1000500003C011F0F2AA30EF00F0F2B45EEF00F04E
:100060000EC000F00FC001F010C002F011C003F08C
:100070000CC0E9FF07C0EAFF078E08C0E1FF09C016
:10008000E2FF0AC0D9FF0BC0DAFF12C0F3FF13C0B2
:10009000F4FF14C0FAFF15C0F5FF16C0F6FF17C035
:1000A000F7FF045006C0E0FF05C0D8FF10005072F3
:1000B000696D65722070727565626100E80ED76EB9
:1000C000AB0ED66E252AF29430EF00F0504F543D1F
:1000D00020256620572020202000543D2566202022
:1000E000493D2566202020202000EA6A5F0EE96E47
:1000F000EF500EE00F0E016E006A002EFED7012EAB
:10010000FBD78F0E006E002EFED70000EF2EF2D729
:100110001200080E016E110E006E002EFED78C9E8E
:10012000959E110E006E002EFED763378C9CD8B0C2
:10013000958CD8A0959C958E83AEFED7012EEBD7DB
:10014000110E006E002EFED78C9E959E0000958CA1
:10015000110E006E002EFED7110E006E002EFED77F
:10016000958E83AEFED7016A110E006E002EFED76B
:1001700083BC01808C9E959E8C9C959C1200958CD6
:10018000110E006E002EFED7958E110E006E002E01
:10019000FED78C9C959C110E006E002EFED78C9E77
:1001A000959E4F0E006E002EFED700D04E0E636F50
:1001B000B0DF4F0E006E002EFED700D062C063F09D
:1001C000A8DF4F0E006E002EFED700D0959C0000D9
:1001D000958E83AEFED7110E006E002EFED700D096
:1001E0000000958C110E006E002EFED74F0E006E93
:1001F000002EFED700D0120020A005D061510409C6
:100200000809616F01D0618561C062F0B8DF040E3A
:10021000615F61C062F0B3DF1200616BEDDF100E51
:10022000616FEADF020E5F6E60DF1200C80E5F6E64
:100230005CDF616BE1DF100E616FDEDF616BDCDFC5
:10024000616BDADF100E616FD7DF300E616FD4DFC4
:10025000300E616FD1DF300E616FCEDF200E616F27
:10026000CBDF200E616FC8DF800E616FC5DF616B71
:10027000C3DFC00E616FC0DF616BBEDF600E616FF8
:10028000BBDFCBDFBFEF01F06051010A07E0030ADB
:1002900008E0010A09E0070A0AE00CD0800E1F6E90
:1002A0000BD0C00E1F6E08D0940E1F6E05D0D40E5A
:1002B0001F6E02D0800E1F6E010E5F5C1F261F5046
:1002C000F00B266E26C061F097DF1F500F0B266ED5
:1002D000263AF00E261626C061F08EDF12005E5020
:1002E0000C0A09E00D0A09E0030A0CE0010A10E01B
:1002F000070A14E019D091DF28D0010E5F6E606FFD
:10030000C3DF23D0010E5F6E020E606FBDDF1DD014
:10031000010E5F6E030E606FB7DF17D0010E5F6EC8
:10032000040E606FB1DF11D05E50F00B5F6E5F8026
:100330005FC061F061DF5E500F0B5F6E5F3AF00EE1
:100340005F165F805FC061F057DF12000900F55251
:100350000CE0F6CF50F0F7CF51F0F5CF5EF0BFDFF5
:1003600050C0F6FF51C0F7FFF1D7C8EF01F0800E83
:10037000D56EE80E926EFF0E936E226A57D7010E6D
:100380005F6E606F81DFAE0EF66E000EF76EDED729
:100390002080F28AC00EF21289808982B7EF0BF0BA
:1003A000516A506A92928992030E006E002EFED717
:1003B00000D092948994030E006E002EFED700D0D8
:1003C00092948984030E006E002EFED700D0546AEA
:1003D00054500E0818E3928680B602D0D89001D00F
:1003E000D8805036513692948994030E006E002EB8
:1003F000FED700D092948984030E006E002EFED7A3
:1004000000D0542AE5D792928982526A5150080B43
:10041000536E52520DE1535008080AE150C000F0EB
:100420005150F70B036E50C050F0F80E0324516E7C
:1004300050C001F051C002F0EFEF08F0516A506A6D
:100440008E0E526E9290899092988998030E006E4B
:10045000002EFED700D0536A5350070817E3D890F8
:10046000523602E2899801D08988929893928A82C2
:10047000030E006E002EFED700D093928A92030ED8
:10048000006E002EFED700D0532AE6D792908980C6
:100490009290899093928A82030E006E002EFED76E
:1004A00000D093928A92030E006E002EFED700D0E9
:1004B000536A53500E0818E393928A82030E006E1B
:1004C000002EFED700D0938081B002D0D89001D00A
:1004D000D8805036513693928A92030E006E002EC9
:1004E000FED700D0532AE5D7929089805130556EBF
:1004F0005030546E55325432553254321F0E551608
:1005000054C050F055500F0B516E50C001F051C007
:1005100002F0F5EF08F08E0E006E51C001F050C0F1
:1005200002F0036A51AE05D0011E021E022A01E14B
:10053000012A015209E102C001F0026A080E005EC0
:10054000015202E1006A0AD0D89001BE04D00236FE
:1005500001360006F9D751BE01D0019EFFEF08F029
:100560008E0E006E7FC001F07EC002F0036A015261
:1005700009E102C001F0026A080E005E015202E1C8
:10058000006A08D0D89001BE04D0023601360006B9
:10059000F9D7019E12007E51D8B471D0006E8251FD
:1005A000D8B46DD0002604E3810E002668E204D0A2
:1005B0007F0E005E64E363E07FC086F08351861B9C
:1005C0007F8F838F81518503F4CF88F0805184031E
:1005D000F4CF03F0F3CF87F08503F3508827F4506E
:1005E0008723000E032281518403F3508827F4509F
:1005F0008723000E026A032202227F518503F350F3
:100600008727F4500322000E02227F518403F35007
:100610000326F4500222000E016A01228151830355
:10062000F3508727F4500322000E0222012280514A
:100630008303F3500326F4500222000E01227F515F
:100640008303F3500226F4500122002A01BE05D094
:1006500087370336023601360006000E87AF0AD010
:10066000032A02220122015005E1025003E1035056
:1006700001E1002A86BF018E86AF019E04D0006A88
:10068000016A026A036A12006251D8B4A5D06E6F83
:100690006651D8B4A1D06E5F05E37F0E6E27D8B047
:1006A0009BD006D0810E6E5FD8A096D0D8B494D0DF
:1006B0006EC000F0016A026A036A6D6B63C06CF081
:1006C0006C8F64C06BF065C06AF0190E6E6F695173
:1006D0006A5F0DE2010E6B5F0AE26C5F08E26D5F1C
:1006E00006E26D2B6C2B6B2B69516A2728D0685161
:1006F0006B5F12E2010E6C5F0FE26D5F0DE26D2B1E
:100700006C2B68516B2769516A2719E36B2B17E132
:100710006C2B15E16D2B13D0675180096C5F0EE2D5
:10072000010E6D5F0BE26D2B675180096C276851DC
:100730006B27E9E36C2BE7E16D2BE5D703806E2F88
:1007400001D00BD0D8906A376B376C376D37D890A3
:100750000336023601366F37BAD76FA106D0D8906C
:100760000132023203326F3302D0000635E06FBF30
:100770001ED0D8906A376B376C376D3769516A5F16
:1007800007E2010E6B5F04E26C5F02E26D5F1AE349
:1007900068516B5F05E2010E6C5F02E26D5F12E370
:1007A000675180096C5F03E2010E6D5F0BE3032A62
:1007B00009E1022A07E1012A05E1002A0DE00132E0
:1007C0000232033263C06EF067516E1B6EAF02D00F
:1007D000018E06D0019E04D0006A016A026A036A93
:1007E0001200800ED8B2831B886B896B7FC087F0A4
:1007F0008351871B7E51D8B4DCD0866F006E825146
:10080000D8B4E0D0865FD8B481D03DE383C08CF00B
:100810008C8F84C08BF085C08AF0896BD8908C3324
:100820008B338A338933862FF8D787AF03D08881FB
:10083000DDD0889186918889EA6A810EE96EE9D0D7
:10084000889987BF0AD086A113D08C338B338A3323
:100850008933002AD8B4C5D00BD08CBF0CD0D89027
:1008600089378A378B378C370006D8B4BAD0F5D79A
:10087000888D6BD0889D7FC087F07FAF02D08C8F32
:10088000A9D08C9FA7D082C086F082C000F07E5194
:10089000865F7FC08CF08C8F80C08BF081C08AF027
:1008A000896BD8908C338B338A338933862FF8D772
:1008B00087AF03D088839AD088938691888BEA6A21
:1008C000850EE96EA6D0889B87BF0AD086A113D07B
:1008D0008C338B338A338933002AD8B482D00BD03F
:1008E0008CBF0CD0D89089378A378B378C3700066D
:1008F000D8B477D0F5D7888F28D0889F83C087F069
:1009000083AF02D08C8F66D08C9F64D083C08CF074
:100910008C8F84C08BF085C08AF087AF04D08C9F09
:10092000888564D08895896B8691EA6A810EE96E24
:1009300070D087BF1CD07FC087F086A106D08C33D3
:100940008B338A338933002A4CE089AF0BD08A2B52
:1009500009E18B2B07E18C2B05E18C338B338A3338
:10096000002A3FE088BD86D788BFC7D71CD0800E3D
:100970008C1B8CAF04D03AD083C087F00AD07FC0E4
:1009800087F08C5306E18B5304E18A5302E1006A3D
:1009900021D08CBF08D0D89089378A378B378C37D5
:1009A000002EF7D71ED087AF02D08C8F13D08C9F2C
:1009B00011D082C000F083C08CF084C08BF085C061
:1009C0008AF008D07EC000F07FC08CF080C08BF031
:1009D00081C08AF08CC001F08BC002F08AC003F0A5
:1009E00034D0006A016A026A036A2FD0896B8A1FB9
:1009F0008B1F8C1F891F892B05E18A2B03E18B2B11
:100A000001E18C2B88B115D788B356D788B58AD722
:100A1000B3D7EF508A2705E38B2B03E18C2BD8B497
:100A20008681ED52EF508B2703E38C2BD8B486815F
:100A3000ED52EF50EFBE01D0800A8C27D8B08681EE
:100A400088B9FED688BB3FD774D712007BC082F02E
:100A50007F51821B82AF05D0D894D8907BBFD880BD
:100A60002FD07BC082F07EC083F07A51835F06E096
:100A700082AF26D0D850010AD86E22D07FC083F032
:100A80007B51835F06E082AF1BD0D850010AD86E3D
:100A900017D080C083F07C51835F06E082AF10D016
:100AA000D850010AD86E0CD081C083F07D51835F8D
:100AB00006E082AF05D0D850010AD86E01D0D89098
:100AC000120057C07DF056C07CF055C07BF054C07A
:100AD0007AF0816B806B7F6B7E6BB8DF01E205E1A2
:100AE000006A016A026A036A70D057C05BF056C0A0
:100AF0005AF055C059F054C058F0616B580E606FF1
:100B000060C0E9FF61C0EAFFEF50656B646F7F0E64
:100B10006427000E6523D8906531643161C0EAFF17
:100B200060C0E9FFEF6E5BC05FF05AC05EF059C075
:100B30005DF058C05CF057C065F056C064F055C019
:100B400063F054C062F05BC069F05AC068F059C0ED
:100B500067F058C066F098DDD8925BC081F05AC04B
:100B600080F059C07FF058C07EF003C085F002C00D
:100B700084F001C083F000C082F033DE03C05BF07C
:100B800002C05AF001C059F000C058F060C0E9FF3F
:100B900061C0EAFFEF065FC07DF05EC07CF05DC023
:100BA0007BF05CC07AF05BC081F05AC080F059C025
:100BB0007FF058C07EF04ADFB6E15CC000F05DC057
:100BC00001F05EC002F05FC003F012008E0E006EF6
:100BD0007A51005E7BC002F07CC001F0028E0052B0
:100BE00009E0D890025202E1015204E002320132DF
:100BF000002EF7D77BAF05D0011E021E012AD8B404
:100C0000022A59EF06F05F6A5E6A5D6A7F0E5C6ECB
:100C10007E0E666F800E676F686B696B7A0E6A6F07
:100C20002A0E6B6FAA0E6C6FA30E6D6F750E6E6F32
:100C3000B60E6F6F090E706FB40E716F6F0E726F1C
:100C40004F0E736FB60E746FAA0E756F690E766FC6
:100C50008B0E776FF60E786FE80E796F53C07DF0CC
:100C600052C07CF051C07BF050C07AF0816B806B39
:100C70007F6B7E6BEBDE03E35150800A516E53C0F5
:100C800081F052C080F051C07FF050C07EF0830EE2
:100C9000856FF90E846F220E836F7E0E826F7BDC70
:100CA00003C07DF002C07CF001C07BF000C07AF090
:100CB0008DD701C060F053C081F052C080F051C0A8
:100CC0007FF050C07EF0830E856FF90E846F220E88
:100CD000836F7E0E826F5FDC03C07DF002C07CF00C
:100CE00001C07BF000C07AF07F6B60C07EF038DC22
:100CF000D8827DC081F07CC080F07BC07FF07AC05C
:100D00007EF003C085F002C084F001C083F000C013
:100D100082F067DD03C065F002C064F001C063F0DB
:100D200000C062F0030E6017605303E060510208D8
:100D30001AE165C081F064C080F063C07FF062C0DA
:100D40007EF0DB0E856F0F0E846F490E836F7F0E72
:100D5000826F21DC03C05BF002C05AF001C059F081
:100D600000C058F065D0602D32D0D882816B806B86
:100D70007F6B7F0E7E6F65C085F064C084F063C0BA
:100D800083F062C082F02DDD03C07DF002C07CF0F4
:100D900001C07BF000C07AF003C081F002C080F097
:100DA00001C07FF000C07EF0DB0E856F0F0E846FF8
:100DB000490E836F7F0E826FCBEC02F003C05BF0B5
:100DC00002C05AF001C059F000C058F031D0D882AA
:100DD00065C081F064C080F063C07FF062C07EF0C7
:100DE000856B846B836B7F0E826FFBDC03C07DF0B1
:100DF00002C07CF001C07BF000C07AF003C081F03B
:100E000002C080F001C07FF000C07EF0DB0E856F75
:100E10000F0E846F490E836F7F0E826FCBEC02F052
:100E200003C05BF002C05AF001C059F000C058F096
:100E3000576A566A556A7F0E546E5BC081F05AC07D
:100E400080F059C07FF058C07EF05BC085F05AC07A
:100E500084F059C083F058C082F0CBEC02F003C09C
:100E60005BF002C05AF001C059F000C058F0616B4D
:100E70006151040859E35FC081F05EC080F05DC03D
:100E80007FF05CC07EF05BC085F05AC084F059C032
:100E900083F058C082F0CBEC02F003C05FF002C0D8
:100EA0005EF001C05DF000C05CF06151040DF350D4
:100EB000036A660FE96E000E0320EA6EEFCF7EF044
:100EC000ECCF7FF0ECCF80F0ECCF81F05FC085F00D
:100ED0005EC084F05DC083F05CC082F0CBEC02F0B9
:100EE000EACF7BF0E9CF7AF0D89257C081F056C0B4
:100EF00080F055C07FF054C07EF003C085F002C082
:100F000084F001C083F000C082F06BDC7BC0EAFF9C
:100F10007AC0E9FF03C057F002C056F001C055F097
:100F200000C054F0612BA4D76051020802E0602D8C
:100F300003D05550800A556E54C000F055C001F0E2
:100F400056C002F057C003F0E4EF0AF00900F6CFF4
:100F500051F0F7CF52F0F5CF5EF06FEC01F051C0D9
:100F6000F6FF52C0F7FF502EF1D712005D50B608C1
:100F70005D6E036A5EC061F05E8ED8905E325F3255
:100F8000603303320232013200325D2EF6D761AF98
:100F90000BD0001E011E021E031E002AD8B4012A17
:100FA000D8B4022AD8B4032A45EF08F0D8B203D047
:100FB000EA6A650EE96E006A016A026A036A656B95
:100FC000666B676B686B64516311621161112CE091
:100FD000200E696FD8905D365E365F3660376537B4
:100FE0006637673768376451685D08E16351675D4C
:100FF00005E16251665D02E16151655D0FE361519A
:10100000655F6251D8A0623D665F6351D8A0633DC1
:10101000675F6451D8A0643D685FD88000360136B0
:1010200002360336692FD6D765C0EFFF66C0ECFFE6
:1010300067C0ECFF68C0ECFF1200E950556E5450D9
:10104000576E1AE053C081F052C080F051C07FF05B
:1010500050C07EF0856B846B200E836F820E826F92
:10106000CBEC02F003C053F002C052F001C051F0CB
:1010700000C050F0572EE6D753C060F052C05FF06A
:1010800051C05EF050C05DF071D703C053F002C094
:1010900052F001C051F000C050F053AE0DD05506D3
:1010A000558A501E511E521E531E502AD8B4512A22
:1010B000D8B4522AD8B4532A3B0E5C6E9A0E5B6E9B
:1010C000CA0E5A6E596A0A0E576E5450D8B4552A31
:1010D000D882EA6A500EE96E53C060F052C05FF0E9
:1010E00051C05EF050C05DF05CC064F05BC063F066
:1010F0005AC062F059C061F059DF015000520FE14F
:101100005428575C0CE055500CE00F0B575C01E085
:101110003BE255BE39D055BC04D0200E30D0200E55
:10112000551655AA0DD0559A5450D8A455060050BE
:10113000556E2D0E5E6E6FEC01F05550006E556AC7
:101140005450575C0BE10050556E2E0E5E6E6FECE6
:1011500001F05550006E200E5516000E300E55AAA7
:101160000ED0559A5450D8A455060050556E2D0EE9
:101170005E6E6FEC01F05550006E556A300E002621
:1011800000C05EF06FEC01F0D8925CC060F05BC014
:101190005FF05AC05EF059C05DF0646B636B626BC8
:1011A0000A0E616F03DF03C05CF002C05BF001C098
:1011B0005AF000C059F0572E8BD712004F50000A3A
:1011C0000CE0010A36E0030AD8B4F0D0010AD8B422
:1011D00056D1070AD8B43ED2ADD2D0EF01F002C04A
:1011E00028F001C027F01EEF02F002C02AF001C073
:1011F00029F028C051F027C050F08BEF02F003C057
:1012000036F002C035F001C034F000C033F02AC01F
:101210007FF029C07EF0B0EC02F003C03AF002C0CB
:1012200039F001C038F000C037F0222A010E4F6EAD
:1012300082D236C081F035C080F034C07FF033C038
:101240007EF0856B846B200E836F800E826FCBECFB
:1012500002F003C053F002C052F001C051F000C0D0
:1012600050F003C065F002C064F001C063F000C03C
:1012700062F0696B686B676B8A0E666F44EC03F013
:1012800003C036F002C035F001C034F000C033F0C6
:101290003AC065F039C064F038C063F037C062F01E
:1012A000696B686B7A0E676F880E666F44EC03F0AB
:1012B00003C053F002C052F001C051F000C050F022
:1012C000D88203C081F002C080F001C07FF000C06E
:1012D0007EF0D70E856FA30E846F200E836F800E75
:1012E000826FF1EC03F003C03AF002C039F001C0A4
:1012F00038F000C037F036C081F035C080F034C01F
:101300007FF033C07EF0EC0E856F910E846F1B0E64
:10131000836F860E826FCBEC02F003C036F002C002
:1013200035F001C034F000C033F03AC081F039C06C
:1013300080F038C07FF037C07EF0856B846B400E44
:10134000836F820E826FCBEC02F003C03AF002C0D2
:1013500039F001C038F000C037F02B6A34BE2B8062
:101360002C6A38BE2C802B2C0CD02250010809E2AC
:101370002D5207E1312C01D004D022C02FF0010EF4
:10138000316E2C2C0CD02250010809E22E5207E1BC
:101390003150020804E022C030F0020E316E2BC042
:1013A0002DF02CC02EF0020E4F6EC5D122501D081C
:1013B00065E3252C63D036C081F035C080F034C0A1
:1013C0007FF033C07EF036C085F035C084F034C085
:1013D00083F033C082F0CBEC02F0D8923EC081F0B3
:1013E0003DC080F03CC07FF03BC07EF003C085F084
:1013F00002C084F001C083F000C082F0F1EC03F081
:1014000003C03EF002C03DF001C03CF000C03BF024
:101410003AC081F039C080F038C07FF037C07EF02C
:101420003AC085F039C084F038C083F037C082F00C
:10143000CBEC02F0D89242C081F041C080F040C0B5
:101440007FF03FC07EF003C085F002C084F001C091
:1014500083F000C082F0F1EC03F003C042F002C060
:1014600041F001C040F000C03FF0256A4F6A2250B1
:101470001D0804E1F29A226A030E4F6E5CD13EC051
:1014800065F03DC064F03CC063F03BC062F0696B46
:10149000686B700E676F830E666F44EC03F003C0D9
:1014A00053F002C052F001C051F000C050F003C030
:1014B00057F002C056F001C055F000C054F061EC86
:1014C00005F003C03EF002C03DF001C03CF000C09A
:1014D0003BF042C065F041C064F040C063F03FC0E3
:1014E00062F0696B686B700E676F830E666F44EC19
:1014F00003F003C053F002C052F001C051F000C02D
:1015000050F003C057F002C056F001C055F000C0C3
:1015100054F061EC05F003C042F002C041F001C09C
:1015200040F000C03FF04E6A4D6A4C6A4B6A315041
:10153000020840E12F50305C7F6B7E6FB0EC02F010
:1015400003C046F002C045F001C044F000C043F0C3
:1015500046C081F045C080F044C07FF043C07EF0BB
:10156000DB0E856F0F0E846F490E836F800E826FC6
:10157000CBEC02F003C053F002C052F001C051F0B6
:1015800000C050F003C065F002C064F001C063F019
:1015900000C062F0696B686B200E676F820E666F29
:1015A00044EC03F003C04EF002C04DF001C04CF01B
:1015B00000C04BF04EC053F04DC052F04CC051F043
:1015C0004BC050F003EF06F003C04EF002C04DF0E8
:1015D00001C04CF000C04BF03EC081F03DC080F037
:1015E0003CC07FF03BC07EF042C085F041C084F03B
:1015F00040C083F03FC082F0CBEC02F003C053F058
:1016000002C052F001C051F000C050F003C081F0A0
:1016100002C080F001C07FF000C07EF04EC085F0B7
:101620004DC084F04CC083F04BC082F0CBEC02F094
:1016300003C04AF002C049F001C048F000C047F0C2
:101640002F6A306A4E6A4D6A4C6A4B6A316A040EE0
:101650004F6E71D0010E5F6E606F44EC01F0CC0EE6
:10166000F66E000EF76E050E506E70DC890EE96E98
:101670004AC053F049C052F048C051F047C050F042
:10168000020E546EDADCD30EF66E000EF76E060E06
:10169000506E5CDC010E5F6E020E606F44EC01F078
:1016A000540E5E6E6FEC01F03D0E5E6E6FEC01F05D
:1016B000890EE96E3EC053F03DC052F03CC051F07F
:1016C0003BC050F0020E546EB8DCDE0EF66E000E1B
:1016D000F76E040E506E3ADC890EE96E42C053F08C
:1016E00041C052F040C051F03FC050F0020E546E65
:1016F000A4DCE40EF66E000EF76E050E506E26DCCE
:10170000040E506EFA0E5F6E75EC00F0502EFAD794
:10171000F28AC00EF212256AE80ED76EAB0ED66EB4
:10172000426A416A406A3F6A3E6A3D6A3C6A3B6A75
:101730004F6A01D04F6ABCEF0BF0F86AD09E078E5B
:101740002080246A236A20802080196A1A6A216A0C
:10175000226A256A2080140E326E4F6A266AC150B2
:10176000C00B0F09C16E070EB46EB7EF01F0E80EA3
:0C177000D76EAB0ED66E22D5FED703005C
:020000040030CA
:0E000000074C3E1E0087A1000FC00FE00F400E
:00000001FF
;PIC18F4550
;CRC=3590  CREATED="03-nov-16 11:09"
