:0400000081EF0AF092
:08000800046ED8CF05F0E0CF33
:1000100006F00001E9CF0CF0EACF07F0E1CF08F0DD
:10002000E2CF09F0D9CF0AF0DACF0BF0F3CF12F01C
:10003000F4CF13F0FACF14F0F5CF15F0F6CF16F099
:10004000F7CF17F000C00EF001C00FF002C010F0A3
:1000500003C011F0F2AA30EF00F0F2B457EF00F055
:100060000EC000F00FC001F010C002F011C003F08C
:100070000CC0E9FF07C0EAFF078E08C0E1FF09C016
:10008000E2FF0AC0D9FF0BC0DAFF12C0F3FF13C0B2
:10009000F4FF14C0FAFF15C0F5FF16C0F6FF17C035
:1000A000F7FF045006C0E0FF05C0D8FF1000FD0EAA
:1000B000D76E2D0ED66E232AF29430EF00F0506FDB
:1000C00074656E6369613D20256620570000543DCC
:1000D000256620562020493D256620410000EA6A19
:1000E0005C0EE96EEF500EE0030E016E006A002E0A
:1000F000FED7012EFBD7E30E006E002EFED70000C8
:10010000EF2EF2D71200080E016E020E006E002EC6
:10011000FED78C9E959E020E006E002EFED7603795
:100120008C9CD8B0958CD8A0959C958E83AEFED72C
:10013000012EEBD7020E006E002EFED78C9E959EF0
:100140000000958C020E006E002EFED7020E006E8F
:10015000002EFED7958E83AEFED7016A020E006E8A
:10016000002EFED783BC01808C9E959E8C9C959C16
:100170001200958C020E006E002EFED7958E020E98
:10018000006E002EFED78C9C959C020E006E002EF9
:10019000FED78C9E959E130E006E002EFED700D0CB
:1001A0004E0E606FB0DF130E006E002EFED700D033
:1001B0005FC060F0A8DF130E006E002EFED700D0E7
:1001C000959C0000958E83AEFED7020E006E002E29
:1001D000FED700D00000958C020E006E002EFED7D8
:1001E000130E006E002EFED700D0120020A005D006
:1001F0005E50040908095E6E01D05E845EC05FF047
:10020000B8DF040E5E5E5EC05FF0B3DF12005E6AB0
:10021000EDDF100E5E6EEADF020E5C6E60DF120034
:10022000C80E5C6E5CDF5E6AE1DF100E5E6EDEDFC4
:100230005E6ADCDF5E6ADADF100E5E6ED7DF300EDC
:100240005E6ED4DF300E5E6ED1DF300E5E6ECEDFBE
:10025000200E5E6ECBDF200E5E6EC8DF800E5E6EFF
:10026000C5DF5E6AC3DFC00E5E6EC0DF5E6ABEDFE2
:10027000600E5E6EBBDFCBDF7AEF01F05D50010AEE
:1002800007E0030A08E0010A09E0070A0AE00CD0C7
:10029000800E1F6E0BD0C00E1F6E08D0940E1F6E06
:1002A00005D0D40E1F6E02D0800E1F6E010E5C5C56
:1002B0001F261F50F00B246E24C05EF097DF1F50E6
:1002C0000F0B246E243AF00E241624C05EF08EDF4D
:1002D0001200C150C00B0E09C16EC050C00B050901
:1002E000C06EC09EC280800ED56EF90E926E010E59
:1002F000226E96D7010E5C6E5D6EC0DF2080F28AA2
:10030000C00EF212FD0ED76ED66A97EF0AF09294E5
:10031000899492928992505002081AE1929289929D
:1003200000D00000536A53500F080EE39294898462
:10033000928680B602D0D89001D0D88051365236FD
:1003400092948994532AEFD79294899492928982B5
:100350005230556E5130546E553254323F0E551650
:1003600054C051F055500F0B526E51C001F052C0A5
:1003700002F02BEF08F08E0E006E80C001F07FC0FF
:1003800002F0036A015209E102C001F0026A080E9C
:10039000005E015202E1006A08D0D89001BE04D08C
:1003A000023601360006F9D7019E12007F51D8B4FB
:1003B00071D0006E8351D8B46DD0002604E3810E55
:1003C000002668E204D07F0E005E64E363E080C034
:1003D00087F08451871B808F848F82518603F4CFEE
:1003E00089F081518503F4CF03F0F3CF88F08603C1
:1003F000F3508927F4508823000E0322825185038D
:10040000F3508927F4508823000E026A0322022247
:1004100080518603F3508827F4500322000E0222F5
:1004200080518503F3500326F4500222000E016A26
:10043000012282518403F3508827F4500322000ED6
:100440000222012281518403F3500326F450022238
:10045000000E012280518403F3500226F450012241
:10046000002A01BE05D08837033602360136000661
:10047000000E88AF0AD0032A02220122015005E1B2
:10048000025003E1035001E1002A87BF018E87AFCC
:10049000019E04D0006A016A026A036A12005F507A
:1004A000D8B4A5D06B6F6351D8B4A1D06B5F05E30E
:1004B0007F0E6B27D8B09BD006D0810E6B5FD8A083
:1004C00096D0D8B494D06BC000F0016A026A036A77
:1004D0006A6B60C069F0698F61C068F062C067F0E4
:1004E000190E6B6F6651675F0DE2010E685F0AE2DD
:1004F000695F08E26A5F06E26A2B692B682B665126
:10050000672728D06551685F12E2010E695F0FE22C
:100510006A5F0DE26A2B692B655168276651672770
:1005200019E3682B17E1692B15E16A2B13D064518D
:100530008009695F0EE2010E6A5F0BE26A2B64516B
:100540008009692765516827E9E3692BE7E16A2B90
:10055000E5D703806B2F01D00BD0D8906737683771
:1005600069376A37D8900336023601366C37BAD706
:100570006CA106D0D8900132023203326C3302D023
:10058000000635E06CBF1ED0D890673768376937F2
:100590006A376651675F07E2010E685F04E2695FD0
:1005A00002E26A5F1AE36551685F05E2010E695F66
:1005B00002E26A5F12E364518009695F03E2010E9F
:1005C0006A5F0BE3032A09E1022A07E1012A05E138
:1005D000002A0DE001320232033260C06BF0645138
:1005E0006B1B6BAF02D0018E06D0019E04D0006A57
:1005F000016A026A036A1200800ED8B2841B896BFA
:100600008A6B80C088F08451881B7F51D8B4DCD0BD
:10061000876F006E8351D8B4E0D0875FD8B481D0A3
:100620003DE384C08DF08D8F85C08CF086C08BF04B
:100630008A6BD8908D338C338B338A33872FF8D7DE
:1006400088AF03D08981DDD0899187918989EA6A51
:10065000820EE96EE9D0899988BF0AD087A113D0AC
:100660008D338C338B338A33002AD8B4C5D00BD06A
:100670008DBF0CD0D8908A378B378C378D370006DA
:10068000D8B4BAD0F5D7898D6BD0899D80C088F059
:1006900080AF02D08D8FA9D08D9FA7D083C087F067
:1006A00083C000F07F51875F80C08DF08D8F81C047
:1006B0008CF082C08BF08A6BD8908D338C338B3367
:1006C0008A33872FF8D788AF03D089839AD089934C
:1006D0008791898BEA6A860EE96EA6D0899B88BFCE
:1006E0000AD087A113D08D338C338B338A33002A01
:1006F000D8B482D00BD08DBF0CD0D8908A378B372E
:100700008C378D370006D8B477D0F5D7898F28D0AD
:10071000899F84C088F084AF02D08D8F66D08D9F72
:1007200064D084C08DF08D8F85C08CF086C08BF036
:1007300088AF04D08D9F898564D089958A6B879115
:10074000EA6A820EE96E70D088BF1CD080C088F043
:1007500087A106D08D338C338B338A33002A4CE04B
:100760008AAF0BD08B2B09E18C2B07E18D2B05E198
:100770008D338C338B33002A3FE089BD86D789BF08
:10078000C7D71CD0800E8D1B8DAF04D03AD084C04B
:1007900088F00AD080C088F08D5306E18C5304E1C4
:1007A0008B5302E1006A21D08DBF08D0D8908A37E0
:1007B0008B378C378D37002EF7D71ED088AF02D0FD
:1007C0008D8F13D08D9F11D083C000F084C08DF029
:1007D00085C08CF086C08BF008D07FC000F080C050
:1007E0008DF081C08CF082C08BF08DC001F08CC088
:1007F00002F08BC003F034D0006A016A026A036A17
:100800002FD08A6B8B1F8C1F8D1F8A1F8A2B05E1AF
:100810008B2B03E18C2B01E18D2B89B115D789B38B
:1008200056D789B58AD7B3D7EF508B2705E38C2BE2
:1008300003E18D2BD8B48781ED52EF508C2703E371
:100840008D2BD8B48781ED52EF50EFBE01D0800AD6
:100850008D27D8B0878189B9FED689BB3FD774D799
:1008600012007CC083F08051831B83AF05D0D894E5
:10087000D8907CBFD8802FD07CC083F07FC084F01C
:100880007B51845F06E083AF26D0D850010AD86E32
:1008900022D080C084F07C51845F06E083AF1BD0FF
:1008A000D850010AD86E17D081C084F07D51845F82
:1008B00006E083AF10D0D850010AD86E0CD082C0A9
:1008C00084F07E51845F06E083AF05D0D850010AE2
:1008D000D86E01D0D89012005EC07EF05DC07DF071
:1008E0005CC07CF05BC07BF0826B816B806B7F6B4C
:1008F000B8DF01E205E1006A016A026A036A70D0AA
:100900005EC062F05DC061F05CC060F05BC05FF033
:10091000686B5F0E676F67C0E9FF68C0EAFFEF5062
:100920006C6B6B6F7F0E6B27000E6C23D8906C3155
:100930006B3168C0EAFF67C0E9FFEF6E62C066F026
:1009400061C065F060C064F05FC063F05EC062F0DB
:100950005DC061F05CC060F05BC05FF062C066F0DB
:1009600061C065F060C064F05FC063F098DDD8924C
:1009700062C082F061C081F060C080F05FC07FF033
:1009800003C086F002C085F001C084F000C083F08F
:1009900033DE03C062F002C061F001C060F000C04D
:1009A0005FF067C0E9FF68C0EAFFEF0666C07EF04F
:1009B00065C07DF064C07CF063C07BF062C082F0F3
:1009C00061C081F060C080F05FC07FF04ADFB6E1B7
:1009D00063C000F064C001F065C002F066C003F0BF
:1009E00012008E0E006E7B51005E7CC002F07DC056
:1009F00001F0028E005209E0D890025202E1015249
:100A000004E002320132002EF7D77CAF05D0011E80
:100A1000021E012AD8B4022A64EF05F0866B856BAA
:100A2000846B7F0E836F7E0E8D6F800E8E6F8F6B4B
:100A3000906B7A0E916F2A0E926FAA0E936FA30E8F
:100A4000946F750E956FB60E966F090E976FB40E74
:100A5000986F6F0E996F4F0E9A6FB60E9B6FAA0E1E
:100A60009C6F690E9D6F8B0E9E6FF60E9F6FE80E4A
:100A7000A06F7AC07EF079C07DF078C07CF077C03E
:100A80007BF0826B816B806B7F6BEBDE03E37851D5
:100A9000800A786F7AC082F079C081F078C080F0E7
:100AA00077C07FF0830E866FF90E856F220E846FFC
:100AB0007E0E836F7BDC03C07EF002C07DF001C040
:100AC0007CF000C07BF08DD701C087F07AC082F047
:100AD00079C081F078C080F077C07FF0830E866F98
:100AE000F90E856F220E846F7E0E836F5FDC03C06C
:100AF000A4F002C0A3F001C0A2F000C0A1F0806B7E
:100B000087C07FF038DCD882A4C082F0A3C081F017
:100B1000A2C080F0A1C07FF003C086F002C085F0C3
:100B200001C084F000C083F067DD03C08CF002C018
:100B30008BF001C08AF000C089F0030E871787533D
:100B400003E0875102081AE18CC082F08BC081F06B
:100B50008AC080F089C07FF0DB0E866F0F0E856F34
:100B6000490E846F7F0E836F21DC03C082F002C0C8
:100B700081F001C080F000C07FF065D0872D32D0B9
:100B8000D882826B816B806B7F0E7F6F8CC086F00A
:100B90008BC085F08AC084F089C083F02DDD03C04E
:100BA000A4F002C0A3F001C0A2F000C0A1F003C0F5
:100BB00082F002C081F001C080F000C07FF0DB0E47
:100BC000866F0F0E856F490E846F7F0E836FD6EC94
:100BD00001F003C082F002C081F001C080F000C0CB
:100BE0007FF031D0D8828CC082F08BC081F08AC077
:100BF00080F089C07FF0866B856B846B7F0E836F7E
:100C0000FBDC03C0A4F002C0A3F001C0A2F000C04E
:100C1000A1F003C082F002C081F001C080F000C0EA
:100C20007FF0DB0E866F0F0E856F490E846F7F0E8F
:100C3000836FD6EC01F003C082F002C081F001C0E6
:100C400080F000C07FF07E6B7D6B7C6B7F0E7B6FD6
:100C500082C086F081C085F080C084F07FC083F0C0
:100C6000D6EC01F003C082F002C081F001C080F038
:100C700000C07FF0886B8851040851E386C082F081
:100C800085C081F084C080F083C07FF082C086F090
:100C900081C085F080C084F07FC083F0D6EC01F085
:100CA00003C086F002C085F001C084F000C083F06C
:100CB0008851040DF350036A8D0FE96E000E032076
:100CC000EA6EEFCF7FF0ECCF80F0ECCF81F0ECCF8D
:100CD00082F0D6EC01F0EACFA2F0E9CFA1F0D892F1
:100CE0007EC082F07DC081F07CC080F07BC07FF050
:100CF00003C086F002C085F001C084F000C083F01C
:100D00007BDCA2C0EAFFA1C0E9FF03C07EF002C005
:100D10007DF001C07CF000C07BF0882BACD7875100
:100D2000020802E0872D03D07C51800A7C6F7BC0D3
:100D300000F07CC001F07DC002F07EC003F0FBEF4C
:100D400009F05B500C0A09E00D0A0AE0030A0EE004
:100D5000010A13E0070A18E01ED007EC01F02ED0BC
:100D6000010E5C6E5D6E3EEC01F028D0010E5C6EF3
:100D7000020E5D6E3EEC01F021D0010E5C6E030EA2
:100D80005D6E3EEC01F01AD0010E5C6E040E5D6EDD
:100D90003EEC01F013D05B50F00B5C6E5C805CC0ED
:100DA0005EF0F6EC00F05B500F0B5C6E5C3AF00E00
:100DB0005C165C805CC05EF0F6EC00F0120009008E
:100DC000F6CF4EF0F7CF4FF0F5CF5BF0BADF4EC065
:100DD000F6FF4FC0F7FF4D2EF2D712005A50B6085B
:100DE0005A6E036A5BC05EF05B8ED8905B325C32F9
:100DF0005D3203320232013200325A2EF6D75EAE35
:100E00000BD0001E011E021E031E002AD8B4012AA8
:100E1000D8B4022AD8B4032A7DEF07F0D8B203D0A1
:100E2000EA6A620EE96E006A016A026A036A626B2C
:100E3000636B646B656B615160115F105E102CE039
:100E4000200E666FD8905A365B365C365D36623758
:100E50006337643765376151655D08E16051645DF2
:100E600005E15F50635D02E15E50625D0FE35E503D
:100E7000625F5F50D8A05F3C635F6051D8A0603D67
:100E8000645F6151D8A0613D655FD880003601364E
:100E900002360336662FD6D762C0EFFF63C0ECFF81
:100EA00064C0ECFF65C0ECFF1200E950526E515077
:100EB000546E1AE050C082F04FC081F04EC080F0F6
:100EC0004DC07FF0866B856B200E846F820E836F22
:100ED000D6EC01F003C050F002C04FF001C04EF05C
:100EE00000C04DF0542EE6D750C05DF04FC05CF00E
:100EF0004EC05BF04DC05AF071D703C050F002C035
:100F00004FF001C04EF000C04DF050AE0DD0520673
:100F1000528A4D1E4E1E4F1E501E4D2AD8B44E2AC8
:100F2000D8B44F2AD8B4502A3B0E596E9A0E586E38
:100F3000CA0E576E566A0A0E546E5150D8B4522AD1
:100F4000D882EA6A4D0EE96E50C05DF04FC05CF089
:100F50004EC05BF04DC05AF059C061F058C060F00F
:100F600057C05FF056C05EF059DF015000520FE1EC
:100F70005128545C0CE052500CE00F0B545C01E023
:100F800037E252BE35D052BC04D0200E2DD0200EF8
:100F9000521652AA0CD0529A5150D8A45206005060
:100FA000526E2D0E5B6ECDDE5250006E526A515065
:100FB000545C0AE10050526E2E0E5B6EC2DE52503F
:100FC000006E200E5216000E300E52AA0DD0529A0C
:100FD0005150D8A452060050526E2D0E5B6EB1DEF9
:100FE0005250006E526A300E002600C05BF0A9DE3F
:100FF000D89259C05DF058C05CF057C05BF056C045
:101000005AF0616B606B5F6A0A0E5E6E07DF03C0A9
:1010100059F002C058F001C057F000C056F0542EED
:101020008FD712004C50000A0CE0010A3EE0030A80
:10103000D8B4BED0010AD8B423D1070AD8B4FED19F
:101040005DD2000E016EC250C30B0110C26E020EC3
:10105000506E87EF01F002C026F001C025F0C28279
:10106000C2B2FED7286AC4CF27F026C080F025C0C0
:101070007FF0BBEC01F003C033F002C032F001C0DE
:1010800031F000C030F028C080F027C07FF0BBEC0A
:1010900001F003C037F002C036F001C035F000C0E7
:1010A00034F0222A010E4C6E2AD233C082F032C0B4
:1010B00081F031C080F030C07FF0866B856B200EF0
:1010C000846F810E836FD6EC01F003C050F002C034
:1010D0004FF001C04EF000C04DF003C062F002C0FE
:1010E00061F001C060F000C05FF0666B656B646B1F
:1010F0008B0E636F4FEC02F003C033F002C032F08E
:1011000001C031F000C030F037C082F036C081F04D
:1011100035C080F034C07FF0866B856B200E846F05
:10112000810E836FD6EC01F003C050F002C04FF087
:1011300001C04EF000C04DF003C062F002C061F08B
:1011400001C060F000C05FF0666B656B646B890E78
:10115000636F4FEC02F003C037F002C036F001C0FD
:1011600035F000C034F0296A31BE29802A6A35BEC4
:101170002A80292C0AD0225208E02B5206E12D5257
:1011800004E022C02DF0010E2F6E2A2C0AD022522C
:1011900008E02C5206E12E5204E022C02EF0020E8E
:1011A0002F6E29C02BF02AC02CF0020E4C6EA7D156
:1011B00022503B085EE3232C5CD033C082F032C067
:1011C00081F031C080F030C07FF033C086F032C093
:1011D00085F031C084F030C083F0D6EC01F0D892B5
:1011E0003BC082F03AC081F039C080F038C07FF057
:1011F00003C086F002C085F001C084F000C083F017
:10120000FCEC02F003C03BF002C03AF001C039F040
:1012100000C038F037C082F036C081F035C080F0B1
:1012200034C07FF037C086F036C085F035C084F01A
:1012300034C083F0D6EC01F0D8923FC082F03EC0BB
:1012400081F03DC080F03CC07FF003C086F002C05A
:1012500085F001C084F000C083F0FCEC02F003C014
:101260003FF002C03EF001C03DF000C03CF0236AF8
:101270004C6A22503C0803E1F29A030E4C6E3FD1B7
:101280003BC062F03AC061F039C060F038C05FF036
:10129000666B656B700E646F840E636F4FEC02F0CB
:1012A00003C050F002C04FF001C04EF000C04DF03E
:1012B00003C05EF002C05DF001C05CF000C05BF0F6
:1012C0006CEC04F003C03BF002C03AF001C039F00E
:1012D00000C038F03FC062F03EC061F03DC060F039
:1012E0003CC05FF0666B656B700E646F840E636F5D
:1012F0004FEC02F003C050F002C04FF001C04EF0BE
:1013000000C04DF003C05EF002C05DF001C05CF0B3
:1013100000C05BF06CEC04F003C03FF002C03EF094
:1013200001C03DF000C03CF02F50020840E12D50BC
:101330002E5C806B7F6FBBEC01F003C043F002C0FA
:1013400042F001C041F000C040F043C082F042C012
:1013500081F041C080F040C07FF0DB0E866F0F0E41
:10136000856F490E846F800E836FD6EC01F003C049
:1013700050F002C04FF001C04EF000C04DF003C06D
:1013800062F002C061F001C060F000C05FF0666B07
:10139000656B200E646F830E636F4FEC02F003C029
:1013A0004BF002C04AF001C049F000C048F03BC019
:1013B00082F03AC081F039C080F038C07FF03FC081
:1013C00086F03EC085F03DC084F03CC083F0D6EC92
:1013D00001F003C050F002C04FF001C04EF000C059
:1013E0004DF04BC07AF04AC079F049C078F048C05F
:1013F00077F00EEF05F050C082F04FC081F04EC084
:1014000080F04DC07FF003C086F002C085F001C0BF
:1014100084F000C083F0D6EC01F003C047F002C0B6
:1014200046F001C045F000C044F02D6A2E6A4B6AB8
:101430004A6A496A486A040E4C6E61D0010E5C6EBD
:101440005D6E3EEC01F0BE0EF66E000EF76E0A0EFB
:101450004D6EB5DC890EE96E47C050F046C04FF0C6
:1014600045C04EF044C04DF0020E516E1EDD200E00
:101470005B6E67DC570E5B6E64DC010E5C6E020E09
:101480005D6E3EEC01F0540E5B6E5BDC3D0E5B6E00
:1014900058DC890EE96E3BC050F03AC04FF039C0BD
:1014A0004EF038C04DF0020E516EFFDCD20EF66EDB
:1014B000000EF76E060E4D6E82DC890EE96E3FC09F
:1014C00050F03EC04FF03DC04EF03CC04DF0020E1B
:1014D000516EEBDC200E5B6E34DC410E5B6E31DC5A
:1014E000030E4D6EFA0E5C6E6FEC00F04D2EFAD7C7
:1014F000F28AD76A1D0ED66E4C6A01D04C6A98EFFC
:101500000AF0F86AD09E078E208020802080196A19
:101510001A6A216A226A236A20804C6A246AC150AE
:10152000C00B0F09C16E070EB46E69EF01F07AD5DA
:04153000FED70300DF
:020000040030CA
:0E00000002CC3E1E0087A1000FC00FE00F4093
:00000001FF
;PIC18F4550
;CRC=C491  CREATED="29-sep-16 23:08"
