:0400000090EF0BF082
:08000800046ED8CF05F0E0CF33
:1000100006F00001E9CF0CF0EACF07F0E1CF08F0DD
:10002000E2CF09F0D9CF0AF0DACF0BF0F3CF12F01C
:10003000F4CF13F0FACF14F0F5CF15F0F6CF16F099
:10004000F7CF17F000C00EF001C00FF002C010F0A3
:1000500003C011F09DA030EF00F09EB057EF00F00C
:100060000EC000F00FC001F010C002F011C003F08C
:100070000CC0E9FF07C0EAFF078E08C0E1FF09C016
:10008000E2FF0AC0D9FF0BC0DAFF12C0F3FF13C0B2
:10009000F4FF14C0FAFF15C0F5FF16C0F6FF17C035
:1000A000F7FF045006C0E0FF05C0D8FF1000E80EBF
:1000B000CF6EAB0ECE6E232A9E9030EF00F0506FC5
:1000C00074656E6369613D20256620570000543DCC
:1000D00025662020493D256620200000950ECD6E26
:1000E000840ED56ED76AD66AE80E926EFF0E936EB6
:1000F000226A9D80C00EF21289808982A8EF0BF0DF
:10010000556A546A92928992030E006E002EFED7B1
:1001100000D092948994030E006E002EFED700D07A
:1001200092948984030E006E002EFED700D0586A88
:1001300058500E0818E3928680B602D0D89001D0AD
:10014000D8805436553692948994030E006E002E52
:10015000FED700D092948984030E006E002EFED745
:1001600000D0582AE5D792928982566A5550080BDA
:10017000576E56520DE1575008080AE154C000F07E
:100180005550F70B036E54C054F0F80E0324556E0F
:1001900054C001F055C002F09EEF08F0556A546A51
:1001A0008E0E566E9290899092988998030E006EEA
:1001B000002EFED700D0576A5750070817E3D89093
:1001C000563602E2899801D08988929893928A8261
:1001D000030E006E002EFED700D093928A92030E7B
:1001E000006E002EFED700D0572AE6D79290898065
:1001F0009290899093928A82030E006E002EFED711
:1002000000D093928A92030E006E002EFED700D08B
:10021000576A57500E0818E393928A82030E006EB5
:10022000002EFED700D0938081B002D0D89001D0AC
:10023000D8805436553693928A92030E006E002E63
:10024000FED700D0572AE5D7929089805530596E55
:100250005430586E59325832593258321F0E59168E
:1002600058C054F059500F0B556E54C001F055C092
:1002700002F0A4EF08F08E0E006E55C001F054C0DD
:1002800002F0036A55AE05D0011E021E022A01E1EA
:10029000012A015209E102C001F0026A080E005E63
:1002A000015202E1006A0AD0D89001BE04D00236A1
:1002B00001360006F9D755BE01D0019EAEEF08F019
:1002C0008E0E006E83C001F082C002F0036A0152FC
:1002D00009E102C001F0026A080E005E015202E16B
:1002E000006A08D0D89001BE04D00236013600065C
:1002F000F9D7019E12008251D8B471D0006E865198
:10030000D8B46DD0002604E3810E002668E204D044
:100310007F0E005E64E363E083C08AF087518A1B2E
:10032000838F878F85518903F4CF8CF084518803A4
:10033000F4CF03F0F3CF8BF08903F3508C27F45004
:100340008B23000E032285518803F3508C27F45031
:100350008B23000E026A0322022283518903F35089
:100360008B27F4500322000E022283518803F3509E
:100370000326F4500222000E016A012285518703F0
:10038000F3508B27F4500322000E022201228451E5
:100390008703F3500326F4500222000E01228351FA
:1003A0008703F3500226F4500122002A01BE05D033
:1003B0008B370336023601360006000E8BAF0AD0AB
:1003C000032A02220122015005E1025003E10350F9
:1003D00001E1002A8ABF018E8AAF019E04D0006A23
:1003E000016A026A036A12006651D8B4A5D0726F1E
:1003F0006A51D8B4A1D0725F05E37F0E7227D8B0DE
:100400009BD006D0810E725FD8A096D0D8B494D07D
:1004100072C000F0016A026A036A716B67C070F013
:10042000708F68C06FF069C06EF0190E726F6D51F9
:100430006E5F0DE2010E6F5F0AE2705F08E2715FAE
:1004400006E2712B702B6F2B6D516E2728D06C51EB
:100450006F5F12E2010E705F0FE2715F0DE2712BB0
:10046000702B6C516F276D516E2719E36F2B17E1BD
:10047000702B15E1712B13D06B518009705F0EE268
:10048000010E715F0BE2712B6B51800970276C516B
:100490006F27E9E3702BE7E1712BE5D70380722F1B
:1004A00001D00BD0D8906E376F3770377137D89036
:1004B0000336023601367337BAD773A106D0D89007
:1004C000013202320332733302D0000635E073BFCB
:1004D0001ED0D8906E376F37703771376D516E5FA1
:1004E00007E2010E6F5F04E2705F02E2715F1AE3E0
:1004F0006C516F5F05E2010E705F02E2715F12E303
:100500006B518009705F03E2010E715F0BE3032AF8
:1005100009E1022A07E1012A05E1002A0DE0013282
:100520000232033267C072F06B51721B72AF02D09D
:10053000018E06D0019E04D0006A016A026A036A35
:100540001200800ED8B2871B8C6B8D6B83C08BF032
:1005500087518B1B8251D8B4DCD08A6F006E8651D4
:10056000D8B4E0D08A5FD8B481D03DE387C090F0A2
:10057000908F88C08FF089C08EF08D6BD8909033AB
:100580008F338E338D338A2FF8D78BAF03D08C8186
:10059000DDD08C918A918C89EA6A850EE96EE9D06A
:1005A0008C998BBF0AD08AA113D090338F338E33AE
:1005B0008D33002AD8B4C5D00BD090BF0CD0D890C2
:1005C0008D378E378F3790370006D8B4BAD0F5D72D
:1005D0008C8D6BD08C9D83C08BF083AF02D0908FBD
:1005E000A9D0909FA7D086C08AF086C000F0825123
:1005F0008A5F83C090F0908F84C08FF085C08EF0AA
:100600008D6BD89090338F338E338D338A2FF8D7FC
:100610008BAF03D08C839AD08C938A918C8BEA6AAF
:10062000890EE96EA6D08C9B8BBF0AD08AA113D00D
:1006300090338F338E338D33002AD8B482D00BD0D1
:1006400090BF0CD0D8908D378E378F3790370006FB
:10065000D8B477D0F5D78C8F28D08C9F87C08BF0FB
:1006600087AF02D0908F66D0909F64D087C090F003
:10067000908F88C08FF089C08EF08BAF04D0909F90
:100680008C8564D08C958D6B8A91EA6A850EE96EB3
:1006900070D08BBF1CD083C08BF08AA106D0903362
:1006A0008F338E338D33002A4CE08DAF0BD08E2BE1
:1006B00009E18F2B07E1902B05E190338F338E33C7
:1006C000002A3FE08CBD86D78CBFC7D71CD0800ED8
:1006D000901B90AF04D03AD087C08BF00AD083C073
:1006E0008BF0905306E18F5304E18E5302E1006AD0
:1006F00021D090BF08D0D8908D378E378F37903764
:10070000002EF7D71ED08BAF02D0908F13D0909FC2
:1007100011D086C000F087C090F088C08FF089C0EB
:100720008EF008D082C000F083C090F084C08FF0BB
:1007300085C08EF090C001F08FC002F08EC003F033
:1007400034D0006A016A026A036A2FD08D6B8E1F53
:100750008F1F901F8D1F8D2B05E18E2B03E18F2B9B
:1007600001E1902B8CB115D78CB356D78CB58AD7B5
:10077000B3D7EF508E2705E38F2B03E1902BD8B42E
:100780008A81ED52EF508F2703E3902BD8B48A81F2
:10079000ED52EF50EFBE01D0800A9027D8B08A8189
:1007A0008CB9FED68CBB3FD774D712007FC086F0C1
:1007B0008351861B86AF05D0D894D8907FBFD88050
:1007C0002FD07FC086F082C087F07E51875F06E021
:1007D00086AF26D0D850010AD86E22D083C087F0C9
:1007E0007F51875F06E086AF1BD0D850010AD86ED4
:1007F00017D084C087F08051875F06E086AF10D0A5
:10080000D850010AD86E0CD085C087F08151875F1F
:1008100006E086AF05D0D850010AD86E01D0D89036
:1008200012005BC081F05AC080F059C07FF058C000
:100830007EF0856B846B836B826BB8DF01E205E130
:10084000006A016A026A036A70D05BC05FF05AC036
:100850005EF059C05DF058C05CF0656B5C0E646F73
:1008600064C0E9FF65C0EAFFEF50696B686F7F0EF7
:100870006827000E6923D8906931683165C0EAFFA6
:1008800064C0E9FFEF6E5FC063F05EC062F05DC000
:1008900061F05CC060F05BC069F05AC068F059C09C
:1008A00067F058C066F05FC06DF05EC06CF05DC070
:1008B0006BF05CC06AF098DDD8925FC085F05EC0D6
:1008C00084F05DC083F05CC082F003C089F002C098
:1008D00088F001C087F000C086F033DE03C05FF00F
:1008E00002C05EF001C05DF000C05CF064C0E9FFD2
:1008F00065C0EAFFEF0663C081F062C080F061C0AE
:100900007FF060C07EF05FC085F05EC084F05DC0A7
:1009100083F05CC082F04ADFB6E160C000F061C0E5
:1009200001F062C002F063C003F012008E0E006E90
:100930007E51005E7FC002F080C001F0028E005246
:1009400009E0D890025202E1015204E00232013281
:10095000002EF7D77FAF05D0011E021E012AD8B4A2
:10096000022A09EF05F0636B626B616B7F0E606FAB
:100970007E0E6A6F800E6B6F6C6B6D6B7A0E6E6F96
:100980002A0E6F6FAA0E706FA30E716F750E726FC5
:10099000B60E736F090E746FB40E756F6F0E766FAF
:1009A0004F0E776FB60E786FAA0E796F690E7A6F59
:1009B0008B0E7B6FF60E7C6FE80E7D6F57C081F05B
:1009C00056C080F055C07FF054C07EF0856B846BBC
:1009D000836B826BEBDE03E35550800A556E57C084
:1009E00085F056C084F055C083F054C082F0830E69
:1009F000896FF90E886F220E876F7E0E866F7BDC03
:100A000003C081F002C080F001C07FF000C07EF022
:100A10008DD701C064F057C085F056C084F055C032
:100A200083F054C082F0830E896FF90E886F220E16
:100A3000876F7E0E866F5FDC03C081F002C080F09E
:100A400001C07FF000C07EF0836B64C082F038DCB0
:100A5000D88281C085F080C084F07FC083F07EC0E2
:100A600082F003C089F002C088F001C087F000C0A6
:100A700086F067DD03C069F002C068F001C067F06E
:100A800000C066F0030E6417645303E0645102086B
:100A90001AE169C085F068C084F067C083F066C061
:100AA00082F0DB0E896F0F0E886F490E876F7F0E05
:100AB000866F21DC03C05FF002C05EF001C05DF014
:100AC00000C05CF065D0642D32D0D882856B846B19
:100AD000836B7F0E826F69C089F068C088F067C041
:100AE00087F066C086F02DDD03C081F002C080F083
:100AF00001C07FF000C07EF003C085F002C084F02A
:100B000001C083F000C082F0DB0E896F0F0E886F8A
:100B1000490E876F7F0E866F7BEC01F003C05FF09C
:100B200002C05EF001C05DF000C05CF031D0D88240
:100B300069C085F068C084F067C083F066C082F049
:100B4000896B886B876B7F0E866FFBDC03C081F03F
:100B500002C080F001C07FF000C07EF003C085F0CD
:100B600002C084F001C083F000C082F0DB0E896F08
:100B70000F0E886F490E876F7F0E866F7BEC01F03A
:100B800003C05FF002C05EF001C05DF000C05CF029
:100B90005B6A5A6A596A7F0E586E5FC085F05EC004
:100BA00084F05DC083F05CC082F05FC089F05EC0FD
:100BB00088F05DC087F05CC086F07BEC01F003C07C
:100BC0005FF002C05EF001C05DF000C05CF0656BDC
:100BD0006551040859E363C085F062C084F061C0C8
:100BE00083F060C082F05FC089F05EC088F05DC0B5
:100BF00087F05CC086F07BEC01F003C063F002C0BC
:100C000062F001C061F000C060F06551040DF35066
:100C1000036A6A0FE96E000E0320EA6EEFCF82F0DE
:100C2000ECCF83F0ECCF84F0ECCF85F063C089F09B
:100C300062C088F061C087F060C086F07BEC01F094
:100C4000EACF7FF0E9CF7EF0D8925BC085F05AC042
:100C500084F059C083F058C082F003C089F002C00C
:100C600088F001C087F000C086F06BDC7FC0EAFF2F
:100C70007EC0E9FF03C05BF002C05AF001C059F02A
:100C800000C058F0652BA4D76451020802E0642D1F
:100C900003D05950800A596E58C000F059C001F075
:100CA0005AC002F05BC003F093EF0AF0080E016E29
:100CB000110E006E002EFED78C9E959E110E006EBA
:100CC000002EFED767378C9CD8B0958CD8A0959C09
:100CD000958E83AEFED7012EEBD7110E006E002E3F
:100CE000FED78C9E959E0000958C110E006E002EF6
:100CF000FED7110E006E002EFED7958E83AEFED766
:100D0000016A110E006E002EFED783BC01808C9EFE
:100D1000959E8C9C959C1200958C110E006E002E59
:100D2000FED7958E110E006E002EFED78C9C959CE2
:100D3000110E006E002EFED78C9E959E4F0E006EFB
:100D4000002EFED700D04E0E676FB0DF4F0E006E44
:100D5000002EFED700D066C067F0A8DF4F0E006EF1
:100D6000002EFED700D0959C0000958E83AEFED756
:100D7000110E006E002EFED700D00000958C110ED3
:100D8000006E002EFED74F0E006E002EFED700D054
:100D9000120020A005D0655104090809656F01D033
:100DA000658565C066F0B8DF040E655F65C066F0F6
:100DB000B3DF12006451010A07E0030A08E0010AE8
:100DC00009E0070A0AE00CD0800E1F6E0BD0C00E9F
:100DD0001F6E08D0940E1F6E05D0D40E1F6E02D069
:100DE000800E1F6E010E635D1F261F50F00B246ED8
:100DF00024C065F0CEDF1F500F0B246E243AF00E96
:100E0000241624C065F0C5DF1200EA6A630EE96E9D
:100E1000EF500EE00F0E016E006A002EFED7012E7D
:100E2000FBD78F0E006E002EFED70000EF2EF2D7FC
:100E30001200656BAEDF100E656FABDF020E636FE5
:100E4000E4DF59EF07F062510C0A09E00D0A09E0EE
:100E5000030A0CE0010A10E0070A14E019D0E9D7F0
:100E600028D0010E636F646FA5DF23D0010E636F7E
:100E7000020E646F9FDF1DD0010E636F030E646F5F
:100E800099DF17D0010E636F040E646F93DF11D0EA
:100E90006251F00B636F638163C065F07ADF62516A
:100EA0000F0B636F633BF00E6317638163C065F0E4
:100EB00070DF12000900F6CF55F0F7CF56F0F5CFEE
:100EC00062F0C1DF55C0F6FF56C0F7FF542EF2D7CF
:100ED00012006151B608616F036A62C065F0628FEB
:100EE000D89062336333643303320232013200320A
:100EF000612FF6D765AF0BD0001E011E021E031E28
:100F0000002AD8B4012AD8B4022AD8B4032AF8EFA8
:100F100007F0D8B203D0EA6A690EE96E006A016A86
:100F2000026A036A696B6A6B6B6B6C6B6851671161
:100F3000661165112CE0200E6D6FD8906137623715
:100F40006337643769376A376B376C3768516C5D64
:100F500008E167516B5D05E166516A5D02E165512B
:100F6000695D0FE36551695F6651D8A0663D6A5FB0
:100F70006751D8A0673D6B5F6851D8A0683D6C5F32
:100F8000D88000360136023603366D2FD6D769C0B9
:100F9000EFFF6AC0ECFF6BC0ECFF6CC0ECFF12000F
:100FA000E950596E58505B6E1AE057C085F056C034
:100FB00084F055C083F054C082F0896B886B200E9A
:100FC000876F820E866F7BEC01F003C057F002C082
:100FD00056F001C055F000C054F05B2EE6D757C064
:100FE00064F056C063F055C062F054C061F071D730
:100FF00003C057F002C056F001C055F000C054F0D5
:1010000057AE0DD05906598A541E551E561E571EEE
:10101000542AD8B4552AD8B4562AD8B4572A3B0EE5
:10102000606F9A0E5F6ECA0E5E6E5D6A0A0E5B6E30
:101030005850D8B4592AD882EA6A540EE96E57C07B
:1010400064F056C063F055C062F054C061F060C0F7
:1010500068F05FC067F05EC066F05DC065F059DFA4
:10106000015000520FE158285B5C0CE059500CE035
:101070000F0B5B5C01E037E259BE35D059BC04D0A0
:10108000200E2DD0200E591659AA0CD0599A58501E
:10109000D8A459060050596E2D0E626FD4DE5950F7
:1010A000006E596A58505B5C0AE10050596E2E0E72
:1010B000626FC9DE5950006E200E5916000E300EB8
:1010C00059AA0DD0599A5850D8A459060050596EB3
:1010D0002D0E626FB8DE5950006E596A300E002630
:1010E00000C062F0B0DED89260C064F05FC063F010
:1010F0005EC062F05DC061F0686B676B666B0A0E84
:10110000656F07DF03C060F002C05FF001C05EF0F2
:1011100000C05DF05B2E8FD712005350000A0CE028
:10112000010A36E0030AD8B4F0D0010AD8B456D187
:10113000070AD8B47FD2F1D280EF00F002C026F0C7
:1011400001C025F0CEEF00F002C028F001C027F06A
:1011500026C055F025C054F03BEF01F003C036F037
:1011600002C035F001C034F000C033F028C083F075
:1011700027C082F060EC01F003C03AF002C039F001
:1011800001C038F000C037F0222A010E536EC6D2DB
:1011900036C085F035C084F034C083F033C082F0AF
:1011A000896B886B200E876F800E866F7BEC01F059
:1011B00003C057F002C056F001C055F000C054F013
:1011C00003C069F002C068F001C067F000C066F0BB
:1011D0006D6B6C6B6B6B8A0E6A6FF4EC01F003C085
:1011E00036F002C035F001C034F000C033F03AC030
:1011F00069F039C068F038C067F037C066F06D6BD1
:101200006C6B7A0E6B6F880E6A6FF4EC01F003C0A2
:1012100057F002C056F001C055F000C054F0D8821B
:1012200003C085F002C084F001C083F000C082F0EA
:10123000D70E896FA30E886F200E876F800E866F82
:10124000A1EC02F003C03AF002C039F001C038F05E
:1012500000C037F036C085F035C084F034C083F06C
:1012600033C082F0EC0E896F910E886F1B0E876F72
:10127000860E866F7BEC01F003C036F002C035F0BD
:1012800001C034F000C033F03AC085F039C084F0BA
:1012900038C083F037C082F0896B886B400E876F4F
:1012A000820E866F7BEC01F003C03AF002C039F089
:1012B00001C038F000C037F02B6A34BE2B802C6A96
:1012C00038BE2C802B2C0CD02250010809E22D5264
:1012D00007E1312C01D004D022C02FF0010E316E75
:1012E0002C2C0CD02250010809E22E5207E131507B
:1012F000020804E022C030F0020E316E2BC02DF047
:101300002CC02EF0020E536E09D222501D0865E348
:10131000232C63D036C085F035C084F034C083F010
:1013200033C082F036C089F035C088F034C087F011
:1013300033C086F07BEC01F0D8923EC085F03DC012
:1013400084F03CC083F03BC082F003C089F002C04F
:1013500088F001C087F000C086F0A1EC02F003C065
:101360003EF002C03DF001C03CF000C03BF03AC08E
:1013700085F039C084F038C083F037C082F03AC0BD
:1013800089F039C088F038C087F037C086F07BEC30
:1013900001F0D89242C085F041C084F040C083F093
:1013A0003FC082F003C089F002C088F001C087F01E
:1013B00000C086F0A1EC02F003C042F002C041F090
:1013C00001C040F000C03FF0236A536A22501D085C
:1013D00004E19D90226A030E536EA0D13EC069F0D5
:1013E0003DC068F03CC067F03BC066F06D6B6C6B55
:1013F000700E6B6F830E6A6FF4EC01F003C057F050
:1014000002C056F001C055F000C054F003C05BF0BC
:1014100002C05AF001C059F000C058F011EC04F0BD
:1014200003C03EF002C03DF001C03CF000C03BF004
:1014300042C069F041C068F040C067F03FC066F04C
:101440006D6B6C6B700E6B6F830E6A6FF4EC01F05A
:1014500003C057F002C056F001C055F000C054F070
:1014600003C05BF002C05AF001C059F000C058F050
:1014700011EC04F003C042F002C041F001C040F0A2
:1014800000C03FF04E6A4D6A4C6A4B6A3150020808
:1014900040E12F50305C836B826F60EC01F003C041
:1014A00046F002C045F001C044F000C043F046C021
:1014B00085F045C084F044C083F043C082F0DB0E69
:1014C000896F0F0E886F490E876F800E866F7BECD9
:1014D00001F003C057F002C056F001C055F000C043
:1014E00054F003C069F002C068F001C067F000C0AA
:1014F00066F06D6B6C6B200E6B6F820E6A6FF4EC96
:1015000001F003C04EF002C04DF001C04CF000C02D
:101510004BF04EC057F04DC056F04CC055F04BC08C
:1015200054F0B3EF04F003C04EF002C04DF001C020
:101530004CF000C04BF03EC085F03DC084F03CC094
:1015400083F03BC082F042C089F041C088F040C0C7
:1015500087F03FC086F07BEC01F003C057F002C07B
:1015600056F001C055F000C054F003C085F002C031
:1015700084F001C083F000C082F04EC089F04DC0FD
:1015800088F04CC087F04BC086F07BEC01F003C0C4
:101590004AF002C049F001C048F000C047F02F6A8D
:1015A000306A4E6A4D6A4C6A4B6A316AD650FF0AFD
:1015B000010F296E000ED7542A6E2AC083F029C06D
:1015C00082F060EC01F04AC085F049C084F048C068
:1015D00083F047C082F003C089F002C088F001C0E8
:1015E00087F000C086F07BEC01F003C057F002C02A
:1015F00056F001C055F000C054F003C069F002C0BD
:1016000068F001C067F000C066F0180E6D6F0D0E37
:101610006C6F0F0E6B6F980E6A6FF4EC01F003C0E5
:1016200052F002C051F001C050F000C04FF0040E63
:10163000536E74D0010E636F646FDAEC06F0BE0E69
:10164000F66E000EF76E0A0E546E34DC890EE96EEB
:101650004AC057F049C056F048C055F047C054F052
:10166000020E586E9DDC200E626F23EC07F0570EC1
:10167000626F23EC07F0010E636F020E646FDAEC09
:1016800006F0540E626F23EC07F03D0E626F23EC00
:1016900007F0890EE96E3EC057F03DC056F03CC0E1
:1016A00055F03BC054F0020E586E7ADCD20EF66E46
:1016B000000EF76E040E546E5AEC07F0890EE96EB8
:1016C00042C057F041C056F040C055F03FC054F002
:1016D000020E586E65DC200E626F23EC07F0200EC0
:1016E000626F23EC07F0040E546EFA0E636F05EC84
:1016F00007F0542EFAD79D80C00EF212236AE80E2E
:10170000CF6EAB0ECE6E426A416A406A3F6A3E6A55
:101710003D6A3C6A3B6A536A01D0536AADEF0BF0F5
:10172000F86AD09E078E208020802080196A1A6A6D
:10173000216A226A236A2080140E326E536A246A58
:10174000C150C00B0F09C16E070EB46E6EEF00F0F2
:0E175000E80ECF6EAB0ECE6EE0D4FED70300D7
:020000040030CA
:0E000000074C3E1E0087A1000FC00FE00F400E
:00000001FF
;PIC18F4550
;CRC=15E1  CREATED="03-nov-16 10:04"
