:040000001DEF0BF0F5
:08000800046ED8CF05F0E0CF33
:1000100006F00001E9CF0CF0EACF07F0E1CF08F0DD
:10002000E2CF09F0D9CF0AF0DACF0BF0F3CF12F01C
:10003000F4CF13F0FACF14F0F5CF15F0F6CF16F099
:10004000F7CF17F000C00EF001C00FF002C010F0A3
:1000500003C011F0F2AA30EF00F0F2B457EF00F055
:100060000EC000F00FC001F010C002F011C003F08C
:100070000CC0E9FF07C0EAFF078E08C0E1FF09C016
:10008000E2FF0AC0D9FF0BC0DAFF12C0F3FF13C0B2
:10009000F4FF14C0FAFF15C0F5FF16C0F6FF17C035
:1000A000F7FF045006C0E0FF05C0D8FF1000E80EBF
:1000B000D76EAB0ED66E232AF29430EF00F0536564
:1000C000206D6964696F2064657366617365000003
:1000D000506F74656E6369613D202566205700008E
:1000E000543D256620562020493D256620410000CC
:1000F000800ED56EF90E926E226AF28AC00EF2124E
:100100008980898235EF0BF0506A4F6A929289920A
:10011000030E006E002EFED700D092948994030E39
:10012000006E002EFED700D092948984030E006EDC
:10013000002EFED700D0536A53500E0818E3928663
:1001400080B602D0D89001D0D8804F3650369294E5
:100150008994030E006E002EFED700D092948984FD
:10016000030E006E002EFED700D0532AE5D79292E0
:100170008982516A5050080B526E51520DE1525013
:1001800008080AE14FC000F05050F70B036E4FC053
:100190004FF0F80E0324506E4FC001F050C002F033
:1001A0008CEF08F08E0E516E9290899092988998FB
:1001B000030E006E002EFED700D0526A5250070880
:1001C00017E3D890513602E2899801D08988929835
:1001D00092948984030E006E002EFED700D0929474
:1001E0008994030E006E002EFED700D0522AE6D767
:1001F000929089809290899092948984030E006EE7
:10020000002EFED700D092948994030E006E002E2B
:10021000FED700D0526A52500E0818E39294898497
:10022000030E006E002EFED700D0928680B602D05C
:10023000D89001D0D8804F36503692948994030ECE
:10024000006E002EFED700D0522AE5D7929089800A
:100250005030546E4F30536E543253325432533206
:100260001F0E541653C04FF054500F0B506E4FC01A
:1002700001F050C002F092EF08F08E0E006E82C0C6
:1002800001F081C002F0036A015209E102C001F0ED
:10029000026A080E005E015202E1006A08D0D8909E
:1002A00001BE04D0023601360006F9D7019E1200C5
:1002B0006151D8B4A5D06D6F6551D8B4A1D06D5F30
:1002C00005E37F0E6D27D8B09BD006D0810E6D5F01
:1002D000D8A096D0D8B494D06DC000F0016A026A5C
:1002E000036A6C6B62C06BF06B8F63C06AF064C0B2
:1002F00069F0190E6D6F6851695F0DE2010E6A5F5A
:100300000AE26B5F08E26C5F06E26C2B6B2B6A2BD8
:100310006851692728D067516A5F12E2010E6B5F4E
:100320000FE26C5F0DE26C2B6B2B67516A276851F3
:10033000692719E36A2B17E16B2B15E16C2B13D09E
:10034000665180096B5F0EE2010E6C5F0BE26C2B55
:10035000665180096B2767516A27E9E36B2BE7E158
:100360006C2BE5D703806D2F01D00BD0D890693767
:100370006A376B376C37D8900336023601366E37E2
:10038000BAD76EA106D0D8900132023203326E3352
:1003900002D0000635E06EBF1ED0D89069376A37AC
:1003A0006B376C376851695F07E2010E6A5F04E2E0
:1003B0006B5F02E26C5F1AE367516A5F05E2010E50
:1003C0006B5F02E26C5F12E3665180096B5F03E2D0
:1003D000010E6C5F0BE3032A09E1022A07E1012AFF
:1003E00005E1002A0DE001320232033262C06DF0F5
:1003F00066516D1B6DAF02D0018E06D0019E04D0F8
:10040000006A016A026A036A1200800ED8B2861B73
:100410008B6B8C6B82C08AF086518A1B8151D8B459
:10042000DCD0896F006E8551D8B4E0D0895FD8B434
:1004300081D03DE386C08FF08F8F87C08EF088C05B
:100440008DF08C6BD8908F338E338D338C33892F16
:10045000F8D78AAF03D08B81DDD08B9189918B89BE
:10046000EA6A840EE96EE9D08B998ABF0AD089A125
:1004700013D08F338E338D338C33002AD8B4C5D04C
:100480000BD08FBF0CD0D8908C378D378E378F37ED
:100490000006D8B4BAD0F5D78B8D6BD08B9D82C0B7
:1004A0008AF082AF02D08F8FA9D08F9FA7D085C04E
:1004B00089F085C000F08151895F82C08FF08F8FF5
:1004C00083C08EF084C08DF08C6BD8908F338E33C8
:1004D0008D338C33892FF8D78AAF03D08B839AD092
:1004E0008B9389918B8BEA6A880EE96EA6D08B9BE1
:1004F0008ABF0AD089A113D08F338E338D338C33CA
:10050000002AD8B482D00BD08FBF0CD0D8908C37B3
:100510008D378E378F370006D8B477D0F5D78B8FCD
:1005200028D08B9F86C08AF086AF02D08F8F66D08E
:100530008F9F64D086C08FF08F8F87C08EF088C069
:100540008DF08AAF04D08F9F8B8564D08B958C6B98
:100550008991EA6A840EE96E70D08ABF1CD082C08D
:100560008AF089A106D08F338E338D338C33002AE5
:100570004CE08CAF0BD08D2B09E18E2B07E18F2B3C
:1005800005E18F338E338D33002A3FE08BBD86D754
:100590008BBFC7D71CD0800E8F1B8FAF04D03AD033
:1005A00086C08AF00AD082C08AF08F5306E18E534B
:1005B00004E18D5302E1006A21D08FBF08D0D890AA
:1005C0008C378D378E378F37002EF7D71ED08AAFF6
:1005D00002D08F8F13D08F9F11D085C000F086C0BE
:1005E0008FF087C08EF088C08DF008D081C000F0F9
:1005F00082C08FF083C08EF084C08DF08FC001F078
:100600008EC002F08DC003F034D0006A016A026A25
:10061000036A2FD08C6B8D1F8E1F8F1F8C1F8C2B0E
:1006200005E18D2B03E18E2B01E18F2B8BB115D7CB
:100630008BB356D78BB58AD7B3D7EF508D2705E349
:100640008E2B03E18F2BD8B48981ED52EF508E278A
:1006500003E38F2BD8B48981ED52EF50EFBE01D068
:10066000800A8F27D8B089818BB9FED68BBB3FD744
:1006700074D712008151D8B471D0006E8551D8B4AE
:100680006DD0002604E3810E002668E204D07F0EC0
:10069000005E64E363E082C089F08651891B828F2B
:1006A000868F84518803F4CF8BF083518703F4CF76
:1006B00003F0F3CF8AF08803F3508B27F4508A239A
:1006C000000E032284518703F3508B27F4508A23B2
:1006D000000E026A0322022282518803F3508A2705
:1006E000F4500322000E022282518703F3500326A6
:1006F000F4500222000E016A012284518603F35055
:100700008A27F4500322000E02220122835186031D
:10071000F3500326F4500222000E01228251860378
:10072000F3500226F4500122002A01BE05D08A3778
:100730000336023601360006000E8AAF0AD0032ABD
:1007400002220122015005E1025003E1035001E1C0
:10075000002A89BF018E89AF019E04D0006A016A18
:10076000026A036A12007EC085F08251851B85AF44
:1007700005D0D894D8907EBFD8802FD07EC085F089
:1007800081C086F07D51865F06E085AF26D0D850C7
:10079000010AD86E22D082C086F07E51865F06E0C4
:1007A00085AF1BD0D850010AD86E17D083C086F011
:1007B0007F51865F06E085AF10D0D850010AD86E11
:1007C0000CD084C086F08051865F06E085AF05D0EE
:1007D000D850010AD86E01D0D890120056C080F0CF
:1007E00055C07FF054C07EF053C07DF0846B836BA6
:1007F000826B816BB8DF01E205E1006A016A026A7F
:10080000036A70D056C05AF055C059F054C058F021
:1008100053C057F0606B570E5F6E5FC0E9FF60C05A
:10082000EAFFEF50646B636F7F0E6327000E642353
:10083000D8906431633160C0EAFF5FC0E9FFEF6EBA
:100840005AC05EF059C05DF058C05CF057C05BF014
:1008500056C064F055C063F054C062F053C061F0FC
:100860005AC068F059C067F058C066F057C065F0CC
:100870001FDDD8925AC084F059C083F058C082F06E
:1008800057C081F003C088F002C087F001C086F035
:1008900000C085F0BADD03C05AF002C059F001C0B3
:1008A00058F000C057F05FC0E9FF60C0EAFFEF06F4
:1008B0005EC080F05DC07FF05CC07EF05BC07DF00C
:1008C0005AC084F059C083F058C082F057C081F0FC
:1008D0004ADFB6E15BC000F05CC001F05DC002F031
:1008E0005EC003F01200080E016E110E006E002EA5
:1008F000FED78C9E959E110E006E002EFED762379D
:100900008C9CD8B0958CD8A0959C958E83AEFED744
:10091000012EEBD7110E006E002EFED78C9E959EF9
:100920000000958C110E006E002EFED7110E006E89
:10093000002EFED7958E83AEFED7016A110E006E93
:10094000002EFED783BC01808C9E959E8C9C959C2E
:100950001200958C110E006E002EFED7958E110E92
:10096000006E002EFED78C9C959C110E006E002E02
:10097000FED78C9E959E4F0E006E002EFED700D0A7
:100980004E0E626FB0DF4F0E006E002EFED700D00D
:1009900061C062F0A8DF4F0E006E002EFED700D0BF
:1009A000959C0000958E83AEFED7110E006E002E32
:1009B000FED700D00000958C110E006E002EFED7E1
:1009C0004F0E006E002EFED700D0120020A005D0E2
:1009D000605104090809606F01D0608560C061F052
:1009E000B8DF040E605F60C061F0B3DF12005F50DB
:1009F000010A07E0030A08E0010A09E0070A0AE021
:100A00000CD0800E1F6E0BD0C00E1F6E08D0940E3F
:100A10001F6E05D0D40E1F6E02D0800E1F6E010E09
:100A20005E5C1F261F50F00B246E24C060F0CEDFEA
:100A30001F500F0B246E243AF00E241624C060F0D1
:100A4000C5DF1200EA6A5E0EE96EEF500EE00F0E8F
:100A5000016E006A002EFED7012EFBD78F0E006EAE
:100A6000002EFED70000EF2EF2D71200606BAEDF33
:100A7000100E606FABDF020E5E6EE4DF76EF05F006
:100A80005D500C0A09E00D0A09E0030A0CE0010AB6
:100A900010E0070A14E019D0E9D728D0010E5E6EE5
:100AA0005F6EA5DF23D0010E5E6E020E5F6E9FDFCC
:100AB0001DD0010E5E6E030E5F6E99DF17D0010E22
:100AC0005E6E040E5F6E93DF11D05D50F00B5E6EB4
:100AD0005E805EC060F07ADF5D500F0B5E6E5E3A46
:100AE000F00E5E165E805EC060F070DF12000900DE
:100AF000F5520CE0F6CF4FF0F7CF50F0F5CF5DF0A8
:100B0000BFDF4FC0F6FF50C0F7FFF1D763EF0AF029
:100B10008E0E006E7D51005E7EC002F07FC001F03F
:100B2000028E005209E0D890025202E1015204E024
:100B300002320132002EF7D77EAF05D0011E021E11
:100B4000012AD8B4022AFBEF05F0626B616B606B7F
:100B50007F0E5F6E7E0E696F800E6A6F6B6B6C6BC3
:100B60007A0E6D6F2A0E6E6FAA0E6F6FA30E706FE6
:100B7000750E716FB60E726F090E736FB40E746FCF
:100B80006F0E756F4F0E766FB60E776FAA0E786F79
:100B9000690E796F8B0E7A6FF60E7B6FE80E7C6FA5
:100BA00056C080F055C07FF054C07EF053C07DF039
:100BB000846B836B826B816BD6DD03E35450800AB8
:100BC000546E56C084F055C083F054C082F053C0B8
:100BD00081F0830E886FF90E876F220E866F7E0E6E
:100BE000856F48DD03C080F002C07FF001C07EF059
:100BF00000C07DF08DD701C063F056C084F055C0B1
:100C000083F054C082F053C081F0830E886FF90ED8
:100C1000876F220E866F7E0E856F2CDD03C080F0FD
:100C200002C07FF001C07EF000C07DF0826B63C027
:100C300081F03DEC01F0D88280C084F07FC083F069
:100C40007EC082F07DC081F003C088F002C087F0D2
:100C500001C086F000C085F005EC02F003C068F02A
:100C600002C067F001C066F000C065F0030E6317B4
:100C7000635303E0635102081AE168C084F067C05F
:100C800083F066C082F065C081F0DB0E886F0F0EC6
:100C9000876F490E866F7F0E856FECDC03C05EF0B8
:100CA00002C05DF001C05CF000C05BF065D0632D58
:100CB00032D0D882846B836B826B7F0E816F68C069
:100CC00088F067C087F066C086F065C085F005ECE7
:100CD00002F003C080F002C07FF001C07EF000C0CF
:100CE0007DF003C084F002C083F001C082F000C038
:100CF00081F0DB0E886F0F0E876F490E866F7F0EB7
:100D0000856FB8DC03C05EF002C05DF001C05CF02E
:100D100000C05BF031D0D88268C084F067C083F037
:100D200066C082F065C081F0886B876B866B7F0E32
:100D3000856F05EC02F003C080F002C07FF001C0B7
:100D40007EF000C07DF003C084F002C083F001C0DB
:100D500082F000C081F0DB0E886F0F0E876F490EA6
:100D6000866F7F0E856F86DC03C05EF002C05DF08B
:100D700001C05CF000C05BF05A6A596A586A7F0E85
:100D8000576E5EC084F05DC083F05CC082F05BC0D3
:100D900081F05EC088F05DC087F05CC086F05BC00B
:100DA00085F068DC03C05EF002C05DF001C05CF05D
:100DB00000C05BF0646B6451040858E362C084F0C7
:100DC00061C083F060C082F05FC081F05EC088F0D7
:100DD0005DC087F05CC086F05BC085F04BDC03C073
:100DE00062F002C061F001C060F000C05FF06451C9
:100DF000040DF350036A690FE96E000E0320EA6EDA
:100E0000EFCF81F0ECCF82F0ECCF83F0ECCF84F029
:100E100062C088F061C087F060C086F05FC085F076
:100E200029DCEACF7EF0E9CF7DF0D8925AC084F079
:100E300059C083F058C082F057C081F003C088F0D9
:100E400002C087F001C086F000C085F005EC02F01A
:100E50007EC0EAFF7DC0E9FF03C05AF002C059F02E
:100E600001C058F000C057F0642BA5D763510208A9
:100E700002E0632D03D05850800A586E57C000F02E
:100E800058C001F059C002F05AC003F08FEF0AF0C9
:100E90000900F6CF50F0F7CF51F0F5CF5DF0F0DD5F
:100EA00050C0F6FF51C0F7FF4F2EF2D712005C5032
:100EB000B6085C6E036A5DC060F05D8ED8905D32EE
:100EC0005E325F3203320232013200325C2EF6D7DC
:100ED00060AF0BD0001E011E021E031E002AD8B4F4
:100EE000012AD8B4022AD8B4032AE6EF07F0D8B210
:100EF00003D0EA6A640EE96E006A016A026A036A54
:100F0000646B656B666B676B635162116111601195
:100F10002CE0200E686FD8905C365D365E365F360A
:100F200064376537663767376351675D08E162513B
:100F3000665D05E16151655D02E16051645D0FE34D
:100F40006051645F6151D8A0613D655F6251D8A076
:100F5000623D665F6351D8A0633D675FD88000360D
:100F6000013602360336682FD6D764C0EFFF65C05E
:100F7000ECFF66C0ECFF67C0ECFF1200E950546E56
:100F80005350566E1AE052C084F051C083F050C0E6
:100F900082F04FC081F0886B876B200E866F820EC7
:100FA000856F3AEC03F003C052F002C051F001C06B
:100FB00050F000C04FF0562EE6D752C05FF051C03F
:100FC0005EF050C05DF04FC05CF071D703C052F0CE
:100FD00002C051F001C050F000C04FF052AE0DD031
:100FE0005406548A4F1E501E511E521E4F2AD8B40A
:100FF000502AD8B4512AD8B4522A3B0E5B6E9A0EAE
:101000005A6ECA0E596E586A0A0E566E5350D8B4AC
:10101000542AD882EA6A4F0EE96E52C05FF051C07E
:101020005EF050C05DF04FC05CF05BC063F05AC032
:1010300062F059C061F058C060F059DF01500052B1
:101040000FE15328565C0CE054500CE00F0B565C3B
:1010500001E037E254BE35D054BC04D0200E2DD070
:10106000200E541654AA0CD0549A5350D8A45406A7
:101070000050546E2D0E5D6E03DD5450006E546AA8
:101080005350565C0AE10050546E2E0E5D6EF8DC33
:101090005450006E200E5416000E300E54AA0DD07F
:1010A000549A5350D8A454060050546E2D0E5D6EC1
:1010B000E7DC5450006E546A300E002600C05DF02C
:1010C000DFDCD8925BC05FF05AC05EF059C05DF0C3
:1010D00058C05CF0636B626B616B0A0E606F07DF78
:1010E00003C05BF002C05AF001C059F000C058F0D4
:1010F000562E8FD712004C50000A0CE0010A36E041
:10110000030AD8B4D3D0010AD8B43BD1070AD8B463
:101110002AD290D284EF00F002C026F001C025F060
:10112000D2EF00F002C028F001C027F026C082F004
:1011300025C081F03DEC01F003C033F002C032F075
:1011400001C031F000C030F028C082F027C081F02B
:101150003DEC01F003C037F002C036F001C035F0BD
:1011600000C034F0222A010E4C6E65D233C064F008
:1011700032C063F031C062F030C061F0686B676B01
:101180007A0E666F880E656F58EC01F003C052F05E
:1011900002C051F001C050F000C04FF0D88203C02F
:1011A00084F002C083F001C082F000C081F05C0EC8
:1011B000886F8F0E876F220E866F800E856F05EC0D
:1011C00002F003C033F002C032F001C031F000C0C1
:1011D00030F037C084F036C083F035C082F034C0C0
:1011E00081F0886B876B200E866F810E856F3AECDD
:1011F00003F003C052F002C051F001C050F000C033
:101200004FF003C064F002C063F001C062F000C0A0
:1012100061F0686B676B666B890E656F58EC01F067
:1012200003C052F002C051F001C050F000C04FF0B6
:10123000D88203C084F002C083F001C082F000C0F5
:1012400081F0886B876B200E866F800E856F05ECB2
:1012500002F003C037F002C036F001C035F000C024
:1012600034F0296A31BE29802A6A35BE2A80292CA9
:101270000AD0225208E02B5206E12D5204E022C08F
:101280002DF0010E2F6E2A2C0AD0225208E02C528B
:1012900006E12E5204E022C02EF0020E2F6E29C06D
:1012A0002BF02AC02CF0020E4C6EC5D122501D0826
:1012B00067E3232C65D033C084F032C083F031C0A3
:1012C00082F030C081F033C088F032C087F031C086
:1012D00086F030C085F03AEC03F0D8923BC084F041
:1012E0003AC083F039C082F038C081F003C088F082
:1012F00002C087F001C086F000C085F005EC02F066
:1013000003C03BF002C03AF001C039F000C038F031
:1013100037C084F036C083F035C082F034C081F02D
:1013200037C088F036C087F035C086F034C085F00D
:101330003AEC03F0D8923FC084F03EC083F03DC049
:1013400082F03CC081F003C088F002C087F001C089
:1013500086F000C085F005EC02F003C03FF002C04B
:101360003EF001C03DF000C03CF0236A4C6A2250C0
:101370001D0806E1F29CF29EF2BEFDD7030E4C6EF4
:101380005AD13BC064F03AC063F039C062F038C053
:1013900061F0686B676B700E666F830E656F58EC5B
:1013A00001F003C052F002C051F001C050F000C083
:1013B0004FF003C056F002C055F001C054F000C019
:1013C00053F0EEEC03F003C03BF002C03AF001C072
:1013D00039F000C038F03FC064F03EC063F03DC05B
:1013E00062F03CC061F0686B676B700E666F830ED5
:1013F000656F58EC01F003C052F002C051F001C01B
:1014000050F000C04FF003C056F002C055F001C0CC
:1014100054F000C053F0EEEC03F003C03FF002C004
:101420003EF001C03DF000C03CF02F50020853E1F7
:101430002D502E5C826B816F3DEC01F003C043F0B8
:1014400002C042F001C041F000C040F043C084F04F
:1014500042C083F041C082F040C081F0DB0E886F53
:101460000F0E876F490E866F800E856F3AEC03F082
:1014700003C052F002C051F001C050F000C04FF064
:1014800003C064F002C063F001C062F000C061F00C
:10149000686B676B200E666F830E656F58EC01F00A
:1014A00003C04BF002C04AF001C049F000C048F050
:1014B000010E5E6E5F6EF7EC04F0BE0EF66E000E6F
:1014C000F76E77EF05F0040E4F6EFA0E5E6E22ECAB
:1014D00005F04F2EFAD73BC084F03AC083F039C0F4
:1014E00082F038C081F03FC088F03EC087F03DC038
:1014F00086F03CC085F03AEC03F003C052F002C025
:1015000051F001C050F000C04FF04BC056F04AC03F
:1015100055F049C054F048C053F0A5EF05F052C053
:1015200084F051C083F050C082F04FC081F003C0FE
:1015300088F002C087F001C086F000C085F03AEC68
:1015400003F003C047F002C046F001C045F000C000
:1015500044F02D6A2E6A4B6A4A6A496A486A2F6AC1
:10156000040E4C6E68D0010E5E6E5F6EF7EC04F0F8
:10157000D00EF66E000EF76E0A0E4F6E89DC890EE5
:10158000E96E47C052F046C051F045C050F044C02B
:101590004FF0020E536EF2DC200E5D6E40EC05F053
:1015A000570E5D6E40EC05F0010E5E6E020E5F6E32
:1015B000F7EC04F0540E5D6E40EC05F03D0E5D6EF0
:1015C00040EC05F0890EE96E3BC052F03AC051F094
:1015D00039C050F038C04FF0020E536ECFDCE40E2D
:1015E000F66E000EF76E060E4F6E52DC890EE96E37
:1015F0003FC052F03EC051F03DC050F03CC04FF0F3
:10160000020E536EBBDC200E5D6E40EC05F0410E09
:101610005D6E40EC05F0040E4F6EFA0E5E6E22EC2D
:1016200005F04F2EFAD7C00EF212D76A1D0ED66EF5
:101630004C6A01D04C6A3AEF0BF0F86AD09E078EE4
:10164000208020802080196A1A6A216A226A236A0F
:1016500020804C6A4E6A4D6A246AC150C00B0F0943
:10166000C16E070EB46E78EF00F0E80ED76EAB0EC9
:08167000D66E41D5FED7030040
:020000040030CA
:0E000000074C3E1E0087A1000FC00FE00F400E
:00000001FF
;PIC18F4550
;CRC=1637  CREATED="30-oct-16 21:58"
